:020000040800F2
:10000000104D002035020008E51A000843190008C9
:10001000E11A000819070008292300080000000061
:100020000000000000000000000000009D0100082A
:100030001D07000800000000E1010008AD1E0008D7
:100040004F0200084F0200084F0200084F0200084C
:100050004F0200084F0200084F0200084F0200083C
:100060004F0200084F0200084F0200084F0200082C
:100070004F0200084F0200084F0200084F0200081C
:100080004F0200084F0200084F0200084F0200080C
:100090004F0200084F0200084F0200084F020008FC
:1000A0004F0200084F0200084F0200084F020008EC
:1000B000151F00084F0200084F0200084F020008F9
:1000C0004F0200084F0200084F0200084F020008CC
:1000D0004F020008192300084F0200084F020008D1
:1000E0004F0200084F0200084F02000800F002F81B
:1000F00000F045F80AA090E8000C82448344AAF17D
:100100000107DA4501D100F03AF8AFF2090EBAE87A
:100110000F0013F0010F18BFFB1A43F0010318473B
:100120008C3E0000AC3E0000103A24BF78C878C175
:10013000FAD8520724BF30C830C144BF04680C60ED
:10014000704700000023002400250026103A28BF35
:1001500078C1FBD8520728BF30C148BF0B60704739
:10016000752900F0D380632900F08182732900F0A3
:100170008682002070471FB51FBD10B510BD00F06E
:1001800099FA1146FFF7F7FF02F060F900F0B7FAAD
:1001900003B4FFF7F2FF03BC02F0E4F8224B196846
:1001A0000868B0E8F00F80F30988BFF36F8F4FF055
:1001B000000080F311884EF00D0E70470000000023
:1001C00006480068006880F3088862B661B6BFF32D
:1001D0004F8FBFF36F8F00DF00BF00BF08ED00E05F
:1001E000EFF30980BFF36F8F0F4B1A6820E9F00F10
:1001F000106008B54FF0BF0080F31188BFF34F8F38
:10020000BFF36F8F03F0AAF94FF0000080F311885D
:10021000BDE8084019680868B0E8F00F80F3098865
:10022000BFF36F8F704700BF38000020EFF30580E9
:10023000704700000948804709480047FEE7FEE78D
:10024000FEE7FEE7FEE7FEE7FEE7FEE7FEE7FEE786
:1002500004480549054A064B70470000BD1E0008CA
:10026000ED00000810470020104D0020104900202C
:1002700010490020704700000FB4044910B503AACC
:10028000029800F001FA10BC5DF814FB2400002075
:100290000FB41CB5074B06AA7B446946009005982D
:1002A00000F0C3F90020694600F0D2F91CBC5DF8EB
:1002B00014FB0000B503000070B50C460546012A8A
:1002C00005D02878800600D5EA69002302E00123E2
:1002D00005E05B1C934202D2E05C0028F9D1A869DA
:1002E000E618C01AA861286A184428622846AFF3A5
:1002F000008004E0D5E9012114F8010B9047B442D5
:10030000F8D32846AFF3008070BD00002DE9F0411E
:100310000646002410687529314616A510D0AFF3A3
:100320000080002802DA404213A507E031688A07FE
:1003300001D512A502E0490704D511A5012401E069
:10034000AFF3008000210A2206F1240709E0B0FB88
:10035000F2FCB0FBF2F302FB1C003030785418467C
:10036000491C0028F3D123462A463046BDE8F04117
:1003700000F0FCB8000000002D0000002B00000081
:10038000200000002DE9F0410F46054600202862BC
:100390002846E968884770B3252805D0D5E90121AA
:1003A0009047286A401CF2E7E968284600268847FB
:1003B0006C2804460AD0682C08D04C2C35D06A2C06
:1003C00031D0742C31D07A2C2FD016E0E968064653
:1003D00028468847B042044608D16C2E23D04FF4FB
:1003E00080662846E9688847044606E06C2E03D0FC
:1003F0004FF4807601E01EE04026E4B1A4F1410014
:10040000192802D8203446F400663A462146284688
:100410002E60FFF7A5FE60B1012808D0FF1D27F070
:1004200007070837B4E78026DBE70026D9E73F1D3A
:10043000AEE72046B2E7286ABDE8F08140EA010352
:10044000024630B59B0710D14FF0013400E008C2DE
:1004500008C91D1B9D4315EAC41FF8D013F0FF0106
:1004600002F8011B0DD01B0AF8E711F8013B002B25
:1004700002F8013B05D011F8013B002B02F8013BCB
:10048000F3D130BD10B5431C02E010F8011B71B16F
:100490008107FAD14FF0013202C88C1A8C4314EA5A
:1004A000C211F9D0C01A0A0603D0C01E10BDC01A6E
:1004B00010BD0A0401D0801E10BD0902FCD0401EF0
:1004C00010BD02F0FF0343EA032242EA024200F0B9
:1004D00002B84FF000020429C0F0128010F0030CA3
:1004E00000F01B80CCF1040CBCF1020F18BF00F827
:1004F000012BA8BF20F8022BA1EB0C0100F00DB8D6
:100500005FEAC17C24BF00F8012B00F8012B48BF33
:1005100000F8012B70474FF0000200B513469446D7
:100520009646203922BFA0E80C50A0E80C50B1F14B
:100530002001BFF4F7AF090728BFA0E80C5048BF5F
:100540000CC05DF804EB890028BF40F8042B08BFFD
:10055000704748BF20F8022B11F0804F18BF00F8F9
:10056000012B704770477047704770472DE9F0477F
:100570000D4699469246044600F124080168880613
:1005800004D5E06921F01001216000E00120A842BB
:1005900001DD471B00E00027A1697A1902EB090081
:1005A000081AA0612078C00602D42046AFF300806C
:1005B000002608E0D4E901211AF806009047206AD5
:1005C000401C761C20624E45F4DB2078C0060AD51C
:1005D0002046AFF3008006E0D4E9012130209047A7
:1005E000206A401C2062381EA7F10107F4DC07E0F6
:1005F000D4E9012118F805009047206A401C2062C8
:10060000281EA5F10105F3DC2046AFF30080207819
:10061000000602D50220BDE8F0870120FBE70000BC
:1006200001694A1C02610878704700B58FB0CDE9B6
:1006300001310021059105497944CDE903101146A6
:100640006846FFF79FFE0FB000BD0000E5FFFFFF0B
:100650000A6802F8010B0A60704710B5436913B1CC
:10066000AFF3008001E0FFF727FE012010BD1278F4
:1006700000F124010A7000224A700122EDE711689E
:100680004FF0FF32E9E70000074B70B50D467B44A1
:10069000FFF7CBFF0446284600F008F810B14FF0F2
:1006A000FF3070BD204670BD9F1D0000007B00F034
:1006B00080007047754600F02BF8AE46050069468D
:1006C000534620F00700854618B020B5FFF7C0FD5F
:1006D000BDE820404FF000064FF000074FF0000843
:1006E0004FF0000B21F00701AC46ACE8C009ACE8C4
:1006F000C009ACE8C009ACE8C0098D46704710B528
:100700000446AFF300802046BDE81040FFF740BD2F
:1007100000487047AC46002000BFFEE7704700006D
:1007200072B605E000224FF40051024800F041FA91
:10073000F8E70000001001401CB5094800210B46F5
:100740008022CDE9001007A1094802F06BFF09A043
:10075000FFF792FD02F058FE0DA0FFF78DFD1CBDC6
:100760000400002053746172745F5461736B000065
:10077000011E00084265666F7265207363686564D8
:10078000756C65722073746172740D0A000000004C
:100790004166746572207363686564756C65722068
:1007A0007374617274202D2073686F756C64204EB1
:1007B00045564552207265616368206865726521FF
:1007C0000D0A000070B50446002594F821000228A7
:1007D00003D00420A063012548E02068006820F0D1
:1007E0000E00216808602068006820F00100216880
:1007F00008601F492068884201D1012026E01C4979
:1008000014312068884201D110201FE01849283196
:100810002068884201D1801518E015493C312068D4
:10082000884201D1801411E011495031206888427A
:1008300002D14FF4803009E00D49643120688842CC
:1008400002D14FF4801001E04FF080700849083960
:100850004860012084F8210000BF002084F82000B7
:1008600000BF606B10B12046616B8847284670BDA1
:10087000080002402DE9F8470346002294466EE145
:100880004FF0010808FA02F4D1F8008008EA0400E9
:10089000A0427DD1DFF8DCA2D1F80480A8EB0A09E0
:1008A000D0453AD014DCB8F1030F50D009DCB8F1D0
:1008B000000F31D0B8F1010F1CD0B8F1020F49D1AF
:1008C00020E0B8F1110F18D0B8F1120F42D11EE09C
:1008D000B9F5881F25D006DCB9F5803F20D0B9F5E1
:1008E000801F37D11AE0B9F5001F18D0B9F5041FE1
:1008F00030D117E0D1F80CC02DE0D1F80C8008F110
:10090000040C28E0D1F80C8008F1080C23E0D1F8A1
:100910000C8008F10C0C1EE000BF00BF00BF00BF40
:1009200000BF00BFD1F80880B8F1000F02D14FF02E
:10093000040C0BE0D1F80880B8F1010F03D14FF09F
:10094000080C1C6102E04FF0080C5C6103E04FF002
:10095000000C00E000BF00BFFF2801D8984601E06E
:1009600003F104084646FF2802D84FEA820803E054
:10097000A2F108084FEA88084746D6F800804FF0F1
:100980000F0909FA07F928EA09080CFA07F900E043
:1009900088E048EA0908C6F80080D1F8048008F029
:1009A0008058B8F1805F7DD100BFDFF8CC81D8F8E6
:1009B000188048F00108DFF8C091C9F81880C846CF
:1009C000D8F8188008F00108CDF8008000BF00BFFB
:1009D0004FEAB9384FEA920958F829504FEA82781D
:1009E0004FEA18794FF00F0808FA09F825EA0805C8
:1009F000DFF88881434502D14FF0000816E0DFF8A8
:100A00008081434502D14FF001080FE0DFF8748187
:100A1000434502D14FF0020808E0DFF86C814345FE
:100A200002D14FF0030801E04FF004084FEA827949
:100A30004FEA197908FA09F848EA0505DFF84C8108
:100A40004FEA920948F82950D1F8048008F4803818
:100A5000B8F5803F0AD1DFF83881D8F8008048EA3D
:100A60000008DFF82C91C9F8008009E0DFF8208148
:100A7000D8F8008028EA0008DFF81491C9F800804F
:100A8000D1F8048008F40038B8F5003F10D1DFF841
:100A9000008108F10408D8F8008048EA0008DFF86F
:100AA000F09000E05AE009F10409C9F800800DE077
:100AB000DFF8DC8008F10408D8F8008028EA000894
:100AC000DFF8CC9009F10409C9F80080D1F804805E
:100AD00008F48018B8F5801F0ED1DFF8B48008F153
:100AE0000808D8F8008048EA0008DFF8A49009F167
:100AF0000809C9F800800DE0DFF8948008F10808C3
:100B0000D8F8008028EA0008DFF8849009F1080985
:100B1000C9F80080D1F8048008F40018B8F5001F67
:100B20000ED1DFF86C8008F10C08D8F8008048EA94
:100B30000008DFF85C9009F10C09C9F800800DE0AD
:100B4000DFF84C8008F10C08D8F8008028EA00088B
:100B5000DFF83C9009F10C09C9F80080521CD1F86B
:100B6000008028FA02F8B8F1000F7FF489AEBDE8E2
:100B7000F88700000000111000100240000801403A
:100B8000000C014000100140001401400800014029
:100B900000040140024693680B400BB1012000E0C5
:100BA00000207047C2680A400AB1416100E001615B
:100BB00070470AB1016101E00B0403617047000056
:100BC00001480068704700002C00002003480068BE
:100BD0000349097808440149086070472C00002047
:100BE0003400002010B50848006840F010000649A5
:100BF0000860032000F05CF80F2000F007F800F018
:100C000008F8002010BD000000200240014600202E
:100C10007047704701460846002809DB00F01F03B3
:100C200001229A4043099B0003F1E023C3F800210D
:100C300000BF70472DE9F05F80460D46164600273D
:100C400001F074FB074639462A46334601F0070097
:100C5000C0F1070ABAF1040F02D94FF0040A01E00B
:100C6000C0F1070AD14600F1040ABAF1070F02D217
:100C70004FF0000A01E0A0F1030AD4464FF0010A48
:100C80000AFA09FAAAF1010A0AEA020A0AFA0CFAAD
:100C90004FF0010B0BFA0CFBABF1010B0BEA030B52
:100CA0004AEA0B042146404601F048FBBDE8F09FAC
:100CB00000BF00F00702064B19684FF6FF0319400A
:100CC000044B0B4343EA0221014B196000BF7047FC
:100CD0000CED00E00000FA0570B504460D460CB9B5
:100CE000012070BD5A48006800F00700A8420ED2EB
:100CF0005748006820F00700284355490860084617
:100D0000006800F00700A84201D00120E9E7207840
:100D100000F0020002281DD1207800F00400042811
:100D200005D14C48406840F4E0604A49486020786A
:100D300000F00800082805D14648406840F460509B
:100D4000444948604348406820F0F000A1680843E7
:100D500040494860207800F0010078B360680128BD
:100D600006D13C48006800F4003090B90120B8E793
:100D70006068022806D13748006800F0007040B96A
:100D80000120AEE73348006800F0020008B90120F6
:100D9000A7E73048406820F00300616808432D4908
:100DA0004860FFF70DFF064609E0FFF709FF801BCB
:100DB00041F28831884202D9032092E707E02548B2
:100DC000406800F00C006168B0EB810FEDD1204865
:100DD000006800F00700A8420ED91D48006820F006
:100DE000070028431A4908600846006800F0070019
:100DF000A84201D0012074E7207800F00400042804
:100E000007D11448406820F4E060E16808431149C4
:100E10004860207800F00800082808D10D48406894
:100E200020F46050216940EAC1000A49486000F09E
:100E30003FF808494968C1F30311074A515CC840AB
:100E40000649086006480068FFF7E0FE002048E712
:100E50000020024000100240A439000800000020D9
:100E600030000020014800687047000000000020AA
:100E700000B5FFF7F7FF04494968C1F30221034AAF
:100E8000515CC84000BD000000100240B4390008A9
:100E900000B5FFF7E7FF04494968C1F3C221034ADF
:100EA000515CC84000BD000000100240B439000889
:100EB000F0B585B00FF26C0C9CE8E01001A8A0E83A
:100EC000E0101CA52D6800950021002200230024BD
:100ED0000020194D696801F00C05F5B1042D02D010
:100EE000082D19D101E0154819E001ADC1F3834681
:100EF000AC5D01F4803555B10F4D6D68C5F34045CB
:100F00001DF805200D4D6543B5FBF2F302E00C4DD5
:100F100004FB05F3184602E000BF084800BF00BF0D
:100F200005B0F0BD02030405060708090A0B0C0D05
:100F30000E0F1010010200000010024000127A0093
:100F400000093D00F8B504460CB90120F8BD207831
:100F500000F00100002878D0F848406800F00C004C
:100F600004280CD0F548406800F00C00082811D186
:100F7000F248406800F48030B0F5803F0AD1EF4875
:100F8000006800F4003000285FD0606800285CD161
:100F90000120DBE700BF6068B0F5803F06D1E7487D
:100FA000006840F48030E549086028E0606858B97E
:100FB000E248006820F48030E04908600846006894
:100FC00020F4802008601AE06068B0F5A02F0BD1F3
:100FD000DA48006840F48020D84908600846006874
:100FE00040F4803008600AE0D448006820F4803083
:100FF000D24908600846006820F48020086000BFDD
:10100000606888B1FFF7DCFD054606E0FFF7D8FD14
:10101000401B642801D9032098E7C848006800F401
:1010200000300028F2D010E0FFF7CAFD054606E0C8
:10103000FFF7C6FD401B642801D9032086E7BF489F
:10104000006800F400300028F2D1207800F002009F
:10105000022857D1B948406800F00C0050B1B74899
:10106000406800F00C00082818D1B448406800F42B
:10107000803098B9B148006800F0020020B12069C2
:10108000012801D0012061E7AC48006820F0F80099
:10109000616940EAC100A949086033E02069E8B10C
:1010A0000120A7490860FFF78BFD054606E0FFF722
:1010B00087FD401B022801D9032047E79F480068AD
:1010C00000F002000028F2D09C48006820F0F800F0
:1010D000616940EAC1009949086013E0002098491D
:1010E0000860FFF76DFD054606E0FFF769FD401B50
:1010F000022801D9032029E79048006800F0020087
:101100000028F2D1207800F0080008282DD1A0692D
:10111000B8B101208B490860FFF752FD054606E093
:10112000FFF74EFD401B022801D903200EE783483C
:10113000406A00F002000028F2D0012000F04CFECE
:1011400013E000207F490860FFF73AFD054606E0FE
:10115000FFF736FD401B022801D90320F6E6774849
:10116000406A00F002000028F2D1207800F004006C
:10117000042873D100277148C06900F0805070B90D
:1011800000BF6E48C06940F080506C49C861084695
:10119000C06900F08050009000BF00BF01276A487E
:1011A000006800F48070B0B96748006840F480704F
:1011B00065490860FFF704FD054606E0FFF700FDFE
:1011C000401B642801D90320C0E65F48006800F492
:1011D00080700028F2D000BFE068012806D157488F
:1011E000006A40F001005549086227E0E06858B9FC
:1011F0005248006A20F00100504908620846006A1F
:1012000020F00400086219E0E06805280BD14B4883
:10121000006A40F00400494908620846006A40F04C
:10122000010008620AE04548006A20F001004349D5
:1012300008620846006A20F00400086200BFE06807
:10124000A0B1FFF7BDFC054609E0FFF7B9FC401B64
:1012500041F28831884202D9032077E622E03748FC
:10126000006A00F002000028EFD012E0FFF7A8FCAF
:10127000054608E0FFF7A4FC401B41F28831884294
:1012800001D9032062E62D48006A00F00200002820
:10129000F0D1012F05D12948C06920F0805027499D
:1012A000C86100BFE069C8B32448406800F00C0082
:1012B000082860D0E069022848D10020204908664B
:1012C000FFF77EFC054606E0FFF77AFC401B02288C
:1012D00001D903203AE61948006800F000700028A0
:1012E000F2D1206AB0F5803F07D11448406820F45D
:1012F0000030A168084311494860D4E90801084357
:101300000E49496821F4741108430C4948600120D2
:101310000B490866FFF754FC054607E03DE0FFF780
:101320004FFC401B022801D903200FE60348006848
:1013300000F000700028F2D02FE000000010024002
:1013400000004242800442420070004000201449E4
:101350000866FFF735FC054606E0FFF731FC401B49
:10136000022801D90320F1E50E48006800F0007062
:101370000028F2D111E0E069012800D1E6E5094832
:10138000466806F48031206A814204D106F4701167
:10139000606A814201D00120D8E50020D6E5000036
:1013A00000004242001002407047704710B50446EA
:1013B0000CB9012010BD94F83D0028B9002084F834
:1013C0003C00204600F00CF8022084F83D00211D6E
:1013D000206800F0E5FD012084F83D000020E9E7E9
:1013E000704701460868C06840F001000B68D8608B
:1013F0000868806800F00702062A05D008680068BF
:1014000040F001000B68186000207047704710B56D
:10141000044620680069C0F34000D8B12068C06865
:10142000C0F34000B0B16FF00200216808610120F4
:1014300020772068806900F0030018B12046FFF78C
:10144000E5FF05E0204600F0ADF8204600F0ABF8DF
:101450000020207720680069C0F38000D8B12068A0
:10146000C068C0F38000B0B16FF00400216808616B
:10147000022020772068806900F4407018B120466F
:10148000FFF7C4FF05E0204600F08CF8204600F08E
:101490008AF80020207720680069C0F3C000D8B126
:1014A0002068C068C0F3C000B0B16FF008002168C8
:1014B0000861042020772068C06900F0030018B19B
:1014C0002046FFF7A3FF05E0204600F06BF820461A
:1014D00000F069F80020207720680069C0F3001050
:1014E000D8B12068C068C0F30010B0B16FF0100030
:1014F00021680861082020772068C06900F44070E6
:1015000018B12046FFF782FF05E0204600F04AF8B8
:10151000204600F048F8002020772068006900F09D
:10152000010058B12068C06800F0010030B16FF0D0
:10153000010021680861204600F036F82068006943
:10154000C0F3C01058B12068C068C0F3C01030B1FB
:101550006FF08000216808612046FFF725FF2068B2
:101560000069C0F3801058B12068C068C0F38010D3
:1015700030B16FF0400021680861204600F01EF88D
:1015800020680069C0F3401058B12068C068C0F3FB
:10159000401030B16FF02000216808612046FFF74D
:1015A00004FF10BD7047704710B5044602488442DE
:1015B00001D1FFF70BFB10BD6C4600207047704750
:1015C0002DE9F0470446206805682068C668206851
:1015D00047694FF00008C14605F00F08B8F1000F49
:1015E0000AD105F0200038B106F0200020B12046D5
:1015F00000F03AFDBDE8F087B8F1000F6DD007F0BC
:10160000010018B906F49070002866D005F00100BA
:1016100030B106F4807018B1E06B40F00100E06377
:1016200005F0040030B107F0010018B1E06B40F0A4
:101630000200E06305F0020030B107F0010018B1CC
:10164000E06B40F00400E06305F0080030B107F003
:10165000010018B1E06B40F00800E063E06B68B394
:1016600005F0200028B106F0200010B1204600F05F
:10167000FBFC20684069C0F38019E06B00F00800B3
:1016800010B9B9F1000F22D0204600F0CDFC20683F
:10169000406900F04000B0B12068406920F040008F
:1016A00021684861606B50B11748616B4863606B9B
:1016B000FFF788F810B1606B416B88470CE020465B
:1016C000FFF77DFF08E02046FFF779FF04E02046A2
:1016D000FFF775FF0020E0638CE705F0800030B174
:1016E00006F0800018B1204600F0E2FD82E705F028
:1016F000400030B106F0400018B1204600F0A4FCD4
:1017000078E700BF76E700001520000810B5044612
:101710000CB9012010BDA06900B100E000BF94F831
:10172000390028B9002084F83800204600F028F855
:10173000242084F839002068C06820F40050216813
:10174000C860204600F0E4FC2068006920F4904066
:10175000216808612068406920F02A0021684861FA
:101760002068C06840F400502168C8600020E06331
:10177000202084F8390084F83A000020CAE70000ED
:1017800010B586B004462849206888424AD100BF77
:1017900000BF2648806940F004002449886108465B
:1017A000806900F00400019000BF00BF00BF00BFCF
:1017B00000BF0846806940F00400886108468069DF
:1017C00000F00400019000BF00BF00BF00BF00BFD9
:1017D0000846806940F4804088610846806900F4CA
:1017E0008040019000BF00BF00BF4815029002205A
:1017F0000390012004900320059002A90C48FFF7F4
:1018000039F84FF4806002900020039002A9084844
:10181000FFF730F82520FFF7FDF9032211462520B8
:10182000FFF708FA06B010BD003801400010024072
:101830000008014010B5034693F83A0020282FD144
:1018400001B10AB9012010BD00BF93F8380001288A
:1018500001D10220F7E7012083F8380000BF996228
:101860009A85DA850020D863222083F83A0000BFE9
:10187000002083F8380000BF1868C06840F480700A
:101880001C68E0601868406940F001001C686061F5
:101890001868C06840F020001C68E0600020D2E7B3
:1018A0000220D0E710B504462049206888423BD189
:1018B0001F48008800F4004088BB1D48008800F4E1
:1018C000804070B11B4800780A2803D000201849D6
:1018D000088024E01648008840F40040144908803D
:1018E0001DE0144800780D2806D11148008840F406
:1018F00080400F49088012E00E4800780C490988A2
:10190000C1F30D010C4A505409480088401C084995
:10191000088008460088C72801DD002008800122D1
:1019200004490648FFF786FF10BD0000003801405B
:10193000280000202A0000209C00002064010020D4
:10194000704700BFFEE7000000B585B000BF1D482E
:10195000806940F008001B4988610846806900F0F2
:101960000800009000BF00BF00BF0846806940F03B
:10197000040088610846806900F00400009000BF00
:1019800000BF0020019002900390049040F60200F6
:101990000190002002900120039001A90A48FEF75F
:1019A00069FF01A90848FEF765FFA020019001A981
:1019B0000648FEF75FFF01A90448FEF75BFF05B08C
:1019C00000BD000000100240000C01400008014072
:1019D0002DE9F0414FF000084FF400611C48FFF77B
:1019E000D9F8044602211A48FFF7D4F805468021A9
:1019F0001848FFF7CFF8064620211648FFF7CAF827
:101A0000074615480078012801D104B980461248DC
:101A1000047012480078012802D10DB94FF0020875
:101A20000E4805700E480078012802D10EB94FF01B
:101A300003080B4806700B480078012802D10FB943
:101A40004FF00408074807704046BDE8F0810000E9
:101A5000000C01400008014098000020990000207F
:101A60009A0000209B00002000B585B000BF1548FB
:101A7000806940F00400134988610846806900F0DD
:101A80000400009000BF00BF00200190029003906E
:101A90000490032001900120029000200390022076
:101AA000049001A90848FEF7E5FE01221146064808
:101AB000FFF77FF8012202210348FFF77AF805B00B
:101AC00000BD0000001002400008014010B50446AF
:101AD00021460248FFF766F810BD000000080140EB
:101AE00000BFFEE7704770B500240EE000212046DD
:101AF00000F0F3F8002504E0002000F05DF9681C18
:101B0000C5B2802DF8DB601CC4B2082CEEDB70BDC2
:101B100000B585B000BF1548806940F00800134942
:101B200088610846806900F00800009000BF00BF8F
:101B3000002001900290039004904FF440700190B7
:101B400011200290012003900320049001A908486D
:101B5000FEF790FE012211020548FFF72AF8012244
:101B600051020348FFF725F805B000BD0010024000
:101B7000000C014070B50546002419E0802020418A
:101B8000284008B1012000E0002002464FF4007117
:101B90000E48FFF70EF8012211020C48FFF709F872
:101BA00000224FF480710948FFF703F8601CC4B2AB
:101BB000082CE3DB012211020448FEF7FAFF0022A1
:101BC0004FF480710148FEF7F4FF70BD000C014036
:101BD00010B5012251020A48FEF7EBFF0122110263
:101BE0000748FEF7E6FF00224FF400710448FEF7B5
:101BF000E0FF00224FF480710148FEF7DAFF10BDCC
:101C0000000C014010B500224FF400710648FEF7A9
:101C1000D0FF012211020448FEF7CBFF012251023E
:101C20000148FEF7C6FF10BD000C014070B500244E
:101C300006E0002500E06D1CB5F57A7FFBD3641C3F
:101C4000B4F57A7FF5D3FFF763FFAE2000F0A4F878
:101C5000D52000F0A1F8802000F09EF8A82000F028
:101C60009BF83F2000F098F8D32000F095F8002072
:101C700000F092F8402000F08FF8A12000F08CF8DE
:101C8000C82000F089F8DA2000F086F8122000F071
:101C900083F8812000F080F8CF2000F07DF8D92073
:101CA00000F07AF8F12000F077F8DB2000F074F80B
:101CB000302000F071F8A42000F06EF8A62000F0AB
:101CC0006BF88D2000F068F8142000F065F8AF2064
:101CD00000F062F8FFF707FF70BD70B505460C46CF
:101CE00045F0B00000F058F8102141EA141000F05F
:101CF00053F804F00F0000F04FF870BD2DE9F041EB
:101D000005460E461746721ED206110E6A1E520670
:101D1000100EFFF7E2FF002409E0A7F12001134AAB
:101D200002EB0111085D00F047F8601CC4B2082CFA
:101D3000F3DB721ED206110E6A1E012303EB420270
:101D4000D0B2FFF7CAFF00240BE0A7F12001074A39
:101D500002EB011204F10801505C00F02DF8601C48
:101D6000C4B2082CF1DBBDE8F0810000BC390008EA
:101D70002DE9F04107460E461546002407E02A5D8E
:101D80003019C1B23846FFF7B9FF601CC4B2285DF4
:101D90000028F4D1BDE8F08110B50446FFF718FF24
:101DA0007820FFF7E7FE0020FFF7E4FE2046FFF76C
:101DB000E1FEFFF727FF10BD10B50446FFF708FF4F
:101DC0007820FFF7D7FE4020FFF7D4FE2046FFF72C
:101DD000D1FEFFF717FF10BD08B508490968C9080B
:101DE0004FF47A72B1FBF2F14143009100BF00BFA2
:101DF00000994A1E00920029F9D108BD0000002078
:101E00001CB5044600F048FF17480121002380223A
:101E1000CDE9001015A1174801F004FC1648022175
:101E200000238022CDE9001014A1164801F0FAFB2E
:101E30001548032100238022CDE9001013A1154885
:101E400001F0F0FB1448042100238022CDE90010AA
:101E500012A1144801F0E6FB1348006801F066F98E
:101E600000F02CFF1CBD0000080000205461736BC3
:101E700031000000412D00080C0000205461736BFC
:101E800032000000892D0008100000205461736B9F
:101E900033000000D12D0008140000205461736B42
:101EA000340000004D2E00080400002010B501F0A1
:101EB000EDFB012801D001F09BFB10BD114800682B
:101EC00040F001000F490860084640680E4908408C
:101ED0000C494860084600680C49084009490860F8
:101EE0000846006820F4802008600846406820F416
:101EF000FE0048604FF41F008860C8030449086072
:101F000070470000001002400000FFF8FFFFF6FEDF
:101F100008ED00E010B50248FFF779FA10BD0000A7
:101F20006C46002008B500BF1948C06940F00100A8
:101F30001749C8610846C06900F00100009000BF61
:101F400000BF880413490860134800681349B0FBB8
:101F5000F1F0401E0F49486000210E48816040F2B8
:101F6000E731C16000218161FFF720FA08B1FEF777
:101F7000D7FB0848FFF735FA08B1FEF7D1FB00227E
:101F80000F211C20FEF756FE1C20FEF743FE08BD65
:101F9000001002406C4600200000002040420F006C
:101FA00010B50268184B984208D0B0F1804F05D0A8
:101FB000164B984202D0164B984203D122F0700281
:101FC0004B681A43104B984208D0B0F1804F05D0AF
:101FD0000E4B984202D00E4B984203D122F440722D
:101FE000CB681A4322F080034C6943EA0402026082
:101FF0008B68C3620B688362034B984201D10B6903
:1020000003630123436110BD002C01400004004024
:102010000008004070B505466C6A0020E085E08449
:102020002046FFF7CCFA70BD0168C96821F49071B1
:102030000268D1600168496921F0010102685161BB
:10204000202180F83A10704710B504462068C06817
:1020500020F040002168C860202084F83900204624
:10206000FFF76EFC002010BD70B5044694F83A00EE
:1020700022284AD1A068B0F5805F13D1A56A2069F3
:1020800040B920684068C0F308002880A06A801C1E
:10209000A06219E020684068C0B22880A06A401C95
:1020A000A06211E0206938B920684068C1B2A26A14
:1020B000501CA062117007E02068406800F07F01AA
:1020C000A26A501CA0621170E08D401E80B2E085B3
:1020D000C8B92068C06820F020002168C860206866
:1020E000C06820F480702168C8602068406920F0D2
:1020F000010021684861202084F83A002046FFF75B
:10210000D1FB002070BD0020FCE70220FAE70000B0
:1021100070B504462168096921F44051E268114311
:10212000226811612269A1681143626941EA0205CE
:102130002168C96841F20C62914329432268D16049
:102140002168496921F44071A269114322685161F3
:10215000564A2168914254D1FEF79AFE00EBC00125
:1021600001EB001162689200B1FBF2F100EBC002DA
:1021700002EB001263689B00B2FBF3F26423B2FB34
:10218000F3F202EBC20303EB0212A1EB8201322253
:1021900002EB01116422B1FBF2F101F0F00100EB5E
:1021A000C00202EB001263689B00B2FBF3F26423EF
:1021B000B2FBF3F201EB021200EBC00101EB0011E4
:1021C00063689B00B1FBF3F100EBC00303EB00136A
:1021D0006668B600B3FBF6F36426B3FBF6F303EBD5
:1021E000C30606EB0313A1EB8301322303EB0111BA
:1021F0006423B1FBF3F101F00F01114422689160F7
:1022000053E0FEF735FE00EBC00101EB0011626800
:102210009200B1FBF2F100EBC00202EB0012636826
:102220009B00B2FBF3F26423B2FBF3F202EBC203B6
:1022300003EB0212A1EB8201322202EB01116422B4
:10224000B1FBF2F101F0F00100EBC00202EB001271
:1022500063689B00B2FBF3F26423B2FBF3F201EB81
:10226000021200EBC00101EB001163689B00B1FB9F
:10227000F3F100EBC00303EB00136668B600B3FB99
:10228000F6F36426B3FBF6F303EBC30606EB031386
:10229000A1EB8301322303EB01116423B1FBF3F1C2
:1022A00001F00F0111442268916070BD00380140B7
:1022B000014691F8390021282CD18868B0F5805F5B
:1022C0000FD10A6A1088C0F308000B6858600869CB
:1022D00018B9086A801C086209E0086A401C086294
:1022E00005E00B6A581C086218780B685860C88CA7
:1022F000401E80B2C88458B90868C06820F08000C9
:102300000B68D8600868C06840F040000B68D8606F
:10231000002070470220FCE710B50248FFF750F993
:1023200010BD00006401002000BFFEE70248006805
:10233000C0F30220704700000CED00E010B500284B
:1023400004DB0A07130E054A135406E00A07140EAD
:10235000034A00F00F031B1FD45410BD00E400E03B
:1023600018ED00E000BF70470C4A10604FF47A721D
:1023700000FB02F101220A4B1A804FF0E0221269A1
:1023800042F002024FF0E0231A614A1E5A611A46D7
:10239000126942F001021A61704700001C0000201F
:1023A000200000202DE9F04707463E461B48006804
:1023B000864201D100242DE000F06EFC75691848BA
:1023C000D0F800801748D0F8009000F077FC454521
:1023D00001D04D4501D102241CE01348854212D1A1
:1023E000B06A70B90324002007E006F15001095CCF
:1023F000012901D1022402E0401C0128F5DB00BFC5
:1024000008E0022406E00948854200D00DB9042402
:1024100000E001242046BDE8F087000038000020DD
:102420003C00002040000020580200204402002010
:1024300000BF054A126802F04002002AF9D0C2B279
:10244000014B1B1D1A60704700380140FEF7CAFBA4
:102450004FF4E01000F02EFB4FF4E13000F05EFB93
:102460004820FFF781FFFFF75DFDFFF76DFAFFF7EB
:10247000FBFAFFF7DBFBFEF75FF900BFFEE70000AA
:102480002DE9F04105460E462648076826480068B3
:10249000001D00F05FFB50B92348006890F82C1035
:1024A0000120884021490968814320480160681C57
:1024B000D8B9D6B11E4948681B49096888601A49CD
:1024C00082680968CA6018490968091D82685160F4
:1024D00015490968091D8160154A134909684A614F
:1024E00011460968491C11601AE07C190E48006801
:1024F0004460BC4207D20C480168091D0D480068C1
:1025000000F0A4FB0CE008480168091D0A480068B7
:1025100000F09CFB09480068844201D2074804602F
:10252000BDE8F0814C000020380000205000002061
:1025300058020020400000203C00002068000020DD
:1025400010B5044600F0A8FB31480068401C304933
:1025500008603048006840B92E48046008460068AA
:1025600001280DD100F020F90AE02B48006838B9A5
:1025700028480068C06AE16A884201D8254804609A
:1025800026480068401C25490860084600686064C9
:1025900094F82C10012088402149096808432049FB
:1025A0000860E16A01EB81011E4A02EB8101486883
:1025B000A0608268E260211D826851608160E16AEA
:1025C00001EB8101174A02EB81026261E16A01EBD2
:1025D0008101144A52F82110491CE26A02EB82027E
:1025E000104B43F8221000F069FB0B48006868B1FB
:1025F00008480068C06AE16A884207D24FF08050FC
:1026000009490860BFF34F8FBFF36F8F10BD000003
:102610004800002038000020540000206400002002
:1026200050000020A401002004ED00E010B516E0E9
:1026300000F032FB0C48C068C468201D00F08AFA24
:102640000A480068401E0949086009480068401EA1
:102650000749086000F032FB204600F00BF8044800
:1026600000680028E4D110BD44020020480000208A
:102670004400002010B50446206B00F02FFB2046DC
:1026800000F02CFB10BD000030B54FF48843154816
:1026900000F007042CB1C01D20F00700114C041BF2
:1026A0001B1B0246104C226000240F4D6C60D0189A
:1026B000083820F007000D4C206000240B4D2D68D9
:1026C0006C600A4D2D682C601146441A4C60074C12
:1026D00024680C60064D4C682C60064D4C682C60DC
:1026E00030BD00006C0200207C000020840000202F
:1026F0008C0000208800002000BFFFF797FF0648ED
:1027000000680128F9D94FF0805004490860BFF3F0
:102710004F8FBFF36F8FF0E7A401002004ED00E0BE
:102720002DE9F05F81460E4617469A46DDF828806F
:102730000C9CB900A522206BFDF7C3FE781E216B0F
:1027400001EB800B2BF0070B7EB1002507E0715DDC
:1027500004F134004155705D00B902E06D1C102D8C
:10276000F5D300BF002143200155B8F1050F01D377
:102770004FF00408C4F82C80201D00F064FA04F126
:10278000180000F060FA2461C8F10500A0616462DD
:1027900052464946584600F07BF920600B9808B134
:1027A0000B980460BDE8F09F10B5002407E004EB2F
:1027B00084010F4A02EB810000F038FA641C052CFA
:1027C000F5D30C4800F032FA0B4800F02FFA0B4812
:1027D00000F02CFA0A4800F029FA0A4800F026FA1C
:1027E00004480949086004480849086010BD000011
:1027F000A4010020080200201C020020300200205A
:1028000044020020580200203C000020400000202C
:1028100010B50146164800E0006803688B42FBD300
:102820000246436813448B4204D143684C682344F6
:10283000436001460A464B6813440468A34211D121
:102840000C4C03682468A34208D04B680468646891
:1028500023444B6003681B680B6005E0054B1B6855
:102860000B6001E003680B60884200D0016010BD7E
:102870007C000020840000202DE9F04707460C462C
:1028800090460026206848B3204641684968416068
:1028900000F1080142688A4202D1416849684160FA
:1028A0004168D1F80C9000BF2046416849684160FA
:1028B00000F1080142688A4202D1416849684160DA
:1028C0004168CD6806EBC60007EB80014346012254
:1028D000284600F095FC761C4D45E5D13046BDE814
:1028E000F087000009480068006808B9012000E08E
:1028F000002020B14FF0FF300549086005E0034893
:102900000068C06800680249086070473C00002009
:10291000680000200246002101E0521C491C10788A
:10292000A528FAD0890888B2704700BFBF2080F37D
:102930001188BFF34F8FBFF36F8F00BF00BFFEE75B
:1029400010B5014600200A460B4C5369A34201D141
:10295000012300E0002373B1084C936AA34201D124
:10296000012300E0002333B9936A0BB9012300E08F
:10297000002303B1012010BD5802002030020020C6
:1029800070B505460E4631462846FDF757FD2846E8
:10299000FDF778FD044602E020202855641C0F2C2A
:1029A000FAD300202855281970BD00002DE9F04702
:1029B00005464FF0000900F0C9FD3048006808B92D
:1029C000FFF762FE75B105F00700C0F11008C8F10D
:1029D000FF30A84201D2012000E0002008B94544A0
:1029E00000E00025012000EBE570002841D0002D1B
:1029F0003FD02348006885423BD8224E30460468C9
:102A000001E0264624686068A84202D220680028B7
:102A1000F7D11A48006884422BD0306800F10809C9
:102A2000206830606068401B102807D9671960680B
:102A3000401B786065603846FFF7EAFE1049606821
:102A40000968081A0E490860084600680E490968B6
:102A5000884203D20A4800680B490860606840F069
:102A6000004060600020206008480068401C074962
:102A7000086000F0E9FE4846BDE8F08784000020C9
:102A8000880000207C0000208C00002090000020A6
:102A9000001F4FF080730360001F21F001030360EB
:102AA000001F034B03601438026020387047000099
:102AB0002B29000830B58FB005460124282105A830
:102AC000FDF729FD14216846FDF725FD012005903D
:102AD000000406900020079002200C90C1030D9185
:102AE0000E9505A8FEF72EFA04460CB100BFFEE7CE
:102AF0000F20009002200190002002904FF480608F
:102B000003900020049002216846FEF7E5F8044691
:102B10000CB100BFFEE70FB030BD000010B5044699
:102B200009480A4908600846446000218160C16084
:102B3000016181610C214161FEF7E8FD0122044938
:102B40000248FEF777FE10BD003801406401002006
:102B50002A00002001460A69D1E901309860D1E9D4
:102B6000010358605068884201D188685060002095
:102B700008611068401E1060106870472DE9F04130
:102B80000546884616460024052700F0DFFC21484C
:102B90000068804539D300BF7F1E07EB87021E4BBC
:102BA00003EB820104EBC40205EB82000122FFF774
:102BB00063FE0444002FEFD104EBC40105EB810058
:102BC000022216490968FFF757FE044404EBC401CA
:102BD00005EB8100022212490968FFF74DFE04440B
:102BE00004EBC40105EB810004220E49FFF744FE0B
:102BF000044404EBC40105EB810003220A49FFF7FA
:102C00003BFE04440EB10020306000F01DFE204663
:102C1000BDE8F08148000020A40100203C00002015
:102C200040000020440200205802002000F108016A
:102C300041604FF0FF31816000F10801C160016126
:102C400000210160704700210161704710B5024604
:102C50000B685C1C0CB9106907E002F1080000E089
:102C60004068446824689C42FAD944684C604C68C7
:102C7000A160886041600A611468641C146010BD22
:102C800042684A6093688B609368596091600861FC
:102C900003685B1C0360704700BFBF2080F311888E
:102CA000BFF34F8FBFF36F8F00BF03480068401C16
:102CB000014908607047000078000020064800685D
:102CC000401E054908600846006820B9002080F3CE
:102CD000118800BF00BF70477800002070B506461D
:102CE0003546E6B1083D2C466068C00FB8B1206893
:102CF000A8B9606820F00040606000F027FC084937
:102D0000606809680844064908602046FFF780FDAE
:102D100004480068401C0349086000F095FD70BD40
:102D2000880000209400002000204FF0E02108617E
:102D30008861024848610720086170473F19010017
:102D40000DE000F0B3FC0446214605A0FDF794FA1F
:102D50000120FEF7BBFE4FF4FA7000F0CDF9F0E76A
:102D60005461736B312069732072756E6E696E6782
:102D7000202052544F53207469636B3A20256C75A0
:102D800020200D0A000000000DE000F08FFC04463A
:102D9000214605A0FDF770FA0220FEF797FE4FF4DA
:102DA000FA7000F0A9F9F0E75461736B322069738F
:102DB0002072756E6E696E67202052544F532074D6
:102DC00069636B3A20256C7520200D0A0000000015
:102DD000B2B016E0FDF7F4FE044600F067FC0546CD
:102DE0002246294607A0FDF747FA684600F048FA50
:102DF000694611A0FDF740FA4FF47A7000F07CF9B3
:102E000000BFE7E75461736B332069732072756EFE
:102E10006E696E67202052544F53207469636B3A79
:102E200020256C75202048414C207469636B3A2042
:102E3000256C750D0A0000005461736B204C69739A
:102E4000743A0D0A25730D0A000000000024A9E061
:102E500000F02CFC0546294653A0FDF70DFAFEF7BD
:102E6000B7FD0446012C1FD159A201210220FEF713
:102E70007FFF5BA0FDF700FA5D48006800F0FAFAFA
:102E80005CA201210846FEF773FF4FF4FA7000F0D0
:102E900033F95DA201210220FEF76AFF5EA2012143
:102EA0000846FEF765FF7AE0022C1FD15FA20121E0
:102EB0000220FEF75DFF61A0FDF7DEF94C480068D7
:102EC00000F04CFA61A201210846FEF751FF4FF4D1
:102ED000FA7000F011F94CA201210220FEF748FF20
:102EE0004DA201210846FEF743FF58E0032C23D1F1
:102EF0005AA201210220FEF73BFF5CA0FDF7BCF9BE
:102F00005E48007848B900F021FB01205B49087059
:102F10005BA201210846FEF72BFF4FF4FA7000F088
:102F2000EBF83DA201210220FEF722FF3AA2012187
:102F30000846FEF71DFF32E0042C30D156A20121D5
:102F40000220FEF715FF58A0FDF796F94B480078D0
:102F5000012813D100F078FC012806D1000756495A
:102F60000860BFF34F8FBFF36F8F00204349087095
:102F700052A201210846FEF7FBFE02E054A0FDF735
:102F80007BF94FF4FA7000F0B7F823A20121022078
:102F9000FEF7EEFE20A201210846FEF7E9FE6420BE
:102FA00000F0AAF854E700005461736B3420697391
:102FB0002072756E6E696E67202052544F532074D4
:102FC00069636B3A20256C7520200D0A0000000013
:102FD0004B455931205072657373656421000000C0
:102FE0004B4559312050726573736564210D0A0099
:102FF000080000205461736B312073757370656E27
:103000006465642100000000202020202020202072
:103010002020202020000000202020202020202010
:103020002020202020202020000000004B45593285
:103030002050726573736564210000004B4559325E
:103040002050726573736564210D0A005461736BBF
:103050003120726573756D65642100004B455933ED
:103060002050726573736564210000004B4559332D
:103070002050726573736564210D0A0018000020EA
:10308000416C6C207461736B732073757370656E23
:1030900064656421000000004B455934205072657E
:1030A00073736564210000004B45593420507265EC
:1030B00073736564210D0A0004ED00E0416C6C201F
:1030C0007461736B7320726573756D6564210000A4
:1030D0004572726F723A205363686564756C6572ED
:1030E00020776173206E6F742073757370656E64E2
:1030F0006564210D0A00000070B50446002544B146
:1031000000F024FA00212046FFF7BAF900F09CFBFA
:1031100005463DB94FF0805003490860BFF34F8F1B
:10312000BFF36F8F70BD000004ED00E070B5054681
:10313000FFF7B2FD15B92948006800E028460446AB
:10314000201DFFF707FD78B9E06A00EB80002449F5
:1031500051F8200040B994F82C10012088402149F2
:10316000096881431F480160A06A18B104F1180082
:10317000FFF7F0FC1C480068401C1B49086017481A
:103180000068844209D1211D1848FFF779FD1848CD
:103190000068401C1649086006E016480068401E9A
:1031A00014490860FFF79EFBFFF788FD0B48006895
:1031B000844202D02046FFF75DFA0F48006858B1FC
:1031C00006480068844207D14FF080500B490860E0
:1031D000BFF34F8FBFF36F8F70BD0000380000202A
:1031E000A4010020500000206400002044020020C0
:1031F00044000020480000205400002004ED00E0BE
:103200002DE9F04107460C4690461E4617B91B486B
:10321000006800E038460546256005F1340060602E
:10322000E86A2061286BE061686CA0600020606142
:10323000A061052E12D011480068854202D10020FD
:1032400020730FE02673032E0CD100F07FF9A86ADB
:1032500008B10220207300F0F7FA03E02846FFF7D8
:10326000A1F82073B8F1000F04D0286BFFF752FBD0
:10327000208401E000202084BDE8F0813800002097
:103280002DE9FC410646002030702F4807680146B2
:10329000096801EBC1018800FFF788FB0546002D96
:1032A00050D0002239462846FFF768FC0746002424
:1032B00043E004EBC40005EB8000007B062813D23A
:1032C000DFE800F00306090C0F134FF058080FE079
:1032D0004FF052080CE04FF0420809E04FF053085D
:1032E00006E04FF0440803E000BF4FF0000800BFC5
:1032F00000BF04EBC40005EB800041683046FFF7D7
:103300003FFB064604EBC40005EB8000806804EB3D
:10331000C40105EB8101098CCDE9001004EBC40068
:1033200005EB8000424609A103693046FCF7B0FF77
:103330003046FDF7A7F80644641CBC42B9D32846C2
:10334000FFF7CCFCBDE8FC8148000020092563099B
:1033500025750925750925750D0A000070B5054606
:103360002C4625480068844245D0002C43D0FFF706
:1033700093FC2046FFF7E4FAD8B3201DFFF7EAFBE1
:1033800094F82C10012088401C49096808431B4907
:103390000860E16A01EB8101194A02EB810148688A
:1033A000A0608268E260211D826851608160E16AEC
:1033B00001EB8101124A02EB81026261E16A01EBD9
:1033C00081010F4A52F82110491CE26A02EB820285
:1033D0000B4B43F822100849E06A0968C96A884221
:1033E00007D34FF0805007490860BFF34F8FBFF3FA
:1033F0006F8FFFF763FC70BD380000205000002085
:10340000A401002004ED00E01CB5124800210B4689
:103410008022CDE9001010A1114800F003F9044604
:10342000012C14D100BFBF2080F31188BFF34F8F50
:10343000BFF36F8F00BF4FF0FF300A4908600120D3
:103440000949086000200949086000F0B7F80848F9
:1034500000681CBD6C00002049444C450000000081
:10346000F926000868000020540000204C000020CD
:103470007000002070B50546FFF70EFC15B92C480A
:10348000006800E028460446201DFFF763FB78B97A
:10349000E06A00EB8000274951F8200040B994F819
:1034A0002C1001208840244909688143224801608A
:1034B000A06A18B104F11800FFF74CFB211D1F484A
:1034C000FFF7DEFB002009E004F15001095C01294F
:1034D00003D1002204F150010A54401C0128F3DBFF
:1034E000FFF7ECFB1648006828B1FFF7D5FBFFF7A4
:1034F000F9F9FFF7E3FB0E480068844217D1104842
:10350000006840B14FF080500E490860BFF34F8F04
:10351000BFF36F8F0BE0094800680B4909688842C8
:1035200003D100200249086001E000F017F870BDE7
:1035300038000020A4010020500000205802002084
:103540005400002004ED00E048000020024800681C
:10355000401C014908607047740000201248006850
:1035600018B10120114908601DE000200F490860D2
:103570000F480068B0FA80F0C0F11F0101EB810232
:103580000C4B03EB820042685268426000F1080273
:103590004368934202D14268526842604268D268EE
:1035A000054B1A6000BF7047740000205C000020CB
:1035B00050000020A40100203800002010B50A4867
:1035C000006840F47F00084908600846006840F041
:1035D0007F400860FFF7A8FB002004490860FCF763
:1035E000EFFD002010BD000020ED00E0780000207D
:1035F00010B500BFBF2080F31188BFF34F8FBFF31A
:103600006F8F00BF00F058F818B14FF08050044998
:10361000086000BF002080F3118800BF10BD0000CB
:1036200004ED00E02DE9FF4F85B08046894617463E
:10363000DDE912ABB800FFF7B9F9064676B15420C0
:10364000FFF7B4F904462CB154212046FCF763FF80
:10365000266304E03046FFF741FB00E000247CB124
:103660000020CDE900ABCDE902403A46494640464C
:10367000089BFFF755F82046FEF762FF012501E0A1
:103680004FF0FF35284609B0BDE8F08F05490968BD
:1036900009B9012005E00449096809B9022000E0E0
:1036A0000020704754000020740000200149086881
:1036B000704700004C0000202DE9F04100275748DA
:1036C000006800287ED156480068451C54480560B3
:1036D0008DB95448D0F800805348006851490860BB
:1036E0005148C0F8008051480068401C4F490860AC
:1036F000FFF7F8F800BF4E480068854276D300BF58
:1037000048480068006808B9012000E0002020B1A6
:103710004FF0FF304649086067E042480068C068E3
:10372000C4686668B54202D2414806605DE06069DF
:10373000D4E902128A60D4E902214A60211D42685C
:103740008A4201D1E1684160002262610168491E3C
:103750000160A06A98B1A06AD4E907128A60D4E92E
:1037600007214A6004F1180142688A4201D1216AA6
:1037700041600022A2620168491E016000BF94F806
:103780002C10012088402B4909680843294908600A
:10379000E16A01EB8101284A02EB81014868A060DF
:1037A0008268E260211D826851608160E16A01EBFC
:1037B0008101214A02EB81026261E16A01EB810130
:1037C0001D4A00E022E052F82110491CE26A02EB97
:1037D0008202194B43F822101849E06A0968C96A45
:1037E00088428DD901278BE700E000BF13480068AD
:1037F000C06A00EB8000104951F82000012800D970
:1038000001270F48006800B1012704E00D48006857
:10381000401C0C4908603846BDE8F0817400002067
:103820004C0000203C0000204000002060000020F0
:103830006800002050000020A40100203800002073
:103840005C0000205800002070B500240026FFF71F
:1038500023FA4B480068401E494908600846006842
:1038600000287DD147480068002879D05BE04648B1
:10387000C068C468A06AD4E907128A60D4E9072145
:103880004A6004F1180142688A4201D1216A41600C
:103890000022A2620168491E01606069D4E9021237
:1038A0008A60D4E902214A60211D42688A4201D11E
:1038B000E1684160002262610168491E016094F87C
:1038C0002C10012088403149096808432F490860BD
:1038D000E16A01EB81012E4A02EB81014868A06098
:1038E0008268E260211D826851608160E16A01EBBB
:1038F0008101274A02EB81026261E16A01EB8101E9
:10390000234A52F82110491CE26A02EB8202204B42
:1039100043F822101F49E06A0968C96A884202D345
:1039200001201D4908601848006808B9012000E01E
:10393000002000289BD00CB1FEF7D4FF1748056883
:1039400065B100BFFFF7B8FE10B101201249086051
:103950006D1E002DF6D10020104908600E4800E0D1
:1039600009E0006838B1012630070D490860BFF34F
:103970004F8FBFF36F8FFFF7A1F9304670BD000086
:103980007400002048000020300200205000002079
:10399000A4010020380000205C0000205800002016
:1039A00004ED00E00000000000000000010203043C
:1039B00006070809000000000102030400000000DF
:1039C000000000000000000000000000000000F8FF
:1039D00000000000000000333000000000100C0662
:1039E000100C0600000000000000000040C07840FD
:1039F000C0784000043F04043F040400007088FCC9
:103A000008300000001820FF211E0000F008F00020
:103A1000E018000000211C031E211E0000F0088891
:103A2000700000001E2123241927211010160E00FB
:103A3000000000000000000000000000000000E0A6
:103A400018040200000000071820400000020418BB
:103A5000E00000000040201807000000404080F017
:103A6000804040000202010F01020200000000F04D
:103A7000000000000101011F010101000000000021
:103A80000000000080B07000000000000000000096
:103A9000000000000001010101010101000000001F
:103AA00000000000003030000000000000000000B6
:103AB00080601804006018060100000000E0100893
:103AC0000810E000000F102020100F00001010F868
:103AD000000000000020203F2020000000700808A7
:103AE0000888700000302824222130000030088827
:103AF000884830000018202020110E000000C0204F
:103B000010F8000000070424243F240000F808886F
:103B1000880808000019212020110E0000E01088FC
:103B200088180000000F112020110E00003808082E
:103B3000C83808000000003F00000000007088083E
:103B400008887000001C222121221C0000E01008BF
:103B50000810E0000000312222110F00000000C018
:103B6000C0000000000000303000000000000080B5
:103B700000000000000080600000000000008040A5
:103B800020100800000102040810200040404040BE
:103B90004040400004040404040404000008102011
:103BA0004080000000201008040201000070480856
:103BB0000808F0000000003036010000C030C828BE
:103BC000E810E0000718272423140B000000C03879
:103BD000E0000000203C23020227382008F88888F3
:103BE00088700000203F202020110E00C0300808FF
:103BF00008083800071820202010080008F80808D6
:103C00000810E000203F202020100F0008F88888CE
:103C1000E8081000203F20202320180008F888889A
:103C2000E8081000203F200003000000C030080812
:103C30000838000007182020221E020008F808009B
:103C40000008F808203F210101213F20000808F862
:103C5000080800000020203F202000000000080885
:103C6000F8080800C08080807F00000008F888C045
:103C700028180800203F20012638200008F80800F6
:103C800000000000203F20202020300008F8F8002D
:103C9000F8F80800203F003F003F200008F830C03F
:103CA0000008F808203F200007183F00E01008082F
:103CB0000810E0000F10202020100F0008F808085E
:103CC0000808F000203F210101010000E010080871
:103CD0000810E0000F18242438504F0008F8888896
:103CE00088887000203F2000030C30200070880876
:103CF000080838000038202121221C00180808F884
:103D0000080818000000203F2000000008F8080004
:103D10000008F808001F202020201F0008788800D5
:103D200000C83808000007380E010000F80800F845
:103D30000008F800033C0700073C030008186880EF
:103D40008068180820302C03032C30200838C80065
:103D5000C83808000000203F2000000010080808B4
:103D6000C83808002038262120201800000000FE56
:103D7000020202000000007F40404000000C30C002
:103D800000000000000000010638C000000202022E
:103D9000FE000000004040407F00000000000402E0
:103DA000020204000000000000000000000000000B
:103DB00000000000808080808080808000020204FB
:103DC00000000000000000000000000000008080F3
:103DD000808000000019242222223F2008F8008061
:103DE00080000000003F112020110E000000008024
:103DF00080800000000E11202020110000000080B3
:103E00008088F800000E112020103F2000008080E4
:103E100080800000001F222222221300008080F0F8
:103E2000888888180020203F202000000000808023
:103E300080808000006B94949493600008F8008068
:103E400080800000203F210000203F2000809898C3
:103E5000000000000020203F202000000000008023
:103E60009898000000C08080807F000008F8000063
:103E700080808000203F24022D302000000808F8B8
:103E8000000000000020203F202000008080808073
:103E900080808000203F20003F20003F8080008005
:103EA00080800000203F210000203F200000808013
:103EB00080800000001F202020201F0080800080C4
:103EC0008000000080FFA12020110E000000008073
:103ED00080808000000E112020A0FF808080800064
:103EE0008080800020203F21200001000000808091
:103EF000808080000033242424241900008080E086
:103F0000808000000000001F202000008080000052
:103F100000808000001F202020103F208080800033
:103F20000080808000010E30080601008080008043
:103F3000008080800F300C030C300F000080800068
:103F4000808080000020312E0E3120008080800093
:103F50000080808080818E70180601000080808043
:103F6000808080000021302C2221300000000000E1
:103F7000807C020200000000003F40400000000082
:103F8000FF00000000000000FF0000000002027CB3
:103F9000800000000040403F0000000000060101DA
:103FA000020204040000000000000000CC3F0008F2
:103FB000000000209C000000280100086840000864
:103FC0009C000020744C0000440100080024F40010
:103FD00000000000000000000000000000000000E1
:103FE00000000000000000000000000000000000D1
:103FF00000000000000000000000000010000000B1
:1040000001000000000000000000000000000000AF
:1040100000000000000000000000000000000000A0
:104020000000000000000000000000000000000090
:10403000000000000000000000000000040000007C
:1040400000000000AAAAAAAA0000000000000000C8
:104050000000000000000000000000000000000060
:08406000000000000101010154
:04000005080000ED02
:00000001FF
