:020000040800F2
:10000000004D00202902000895180008DB170008A1
:1000100091180008D1050008F51F00080000000035
:100020000000000000000000000000009101000836
:10003000D505000800000000D5010008791B000864
:10004000430200084302000843020008430200087C
:10005000430200084302000843020008430200086C
:10006000430200084302000843020008430200085C
:10007000430200084302000843020008430200084C
:10008000430200084302000843020008430200083C
:10009000430200084302000843020008430200082C
:1000A000430200084302000843020008430200081C
:1000B000E11B000843020008430200084302000855
:1000C00043020008430200084302000843020008FC
:1000D00043020008E51F000843020008430200082D
:1000E00043020008430200084302000800F002F83F
:1000F00000F03FF80AA090E8000C82448344AAF183
:100100000107DA4501D100F034F8AFF2090EBAE880
:100110000F0013F0010F18BFFB1A43F0010318473B
:10012000602C0000802C0000103A24BF78C878C1F1
:10013000FAD8520724BF30C830C144BF04680C60ED
:10014000704700000023002400250026103A28BF35
:1001500078C1FBD8520728BF30C148BF0B60704739
:10016000752900F08F80002070471FB51FBD10B5A6
:1001700010BD00F0FBF91146FFF7F7FF01F0B2FFE9
:1001800000F019FA03B4FFF7F2FF03BC01F050FFCF
:10019000224B19680868B0E8F00F80F30988BFF3B4
:1001A0006F8F4FF0000080F311884EF00D0E7047F6
:1001B0000000000006480068006880F3088862B606
:1001C00061B6BFF34F8FBFF36F8F00DF00BF00BF7B
:1001D00008ED00E0EFF30980BFF36F8F0F4B1A6853
:1001E00020E9F00F106008B54FF0500080F311883F
:1001F000BFF34F8FBFF36F8F02F092FB4FF0000001
:1002000080F31188BDE8084019680868B0E8F00F6D
:1002100080F30988BFF36F8F704700BF2C00002068
:10022000EFF3058070470000094880470948004700
:10023000FEE7FEE7FEE7FEE7FEE7FEE7FEE7FEE796
:10024000FEE7FEE704480549054A064B70470000F3
:10025000891B0008ED00000800470020004D002029
:100260000049002000490020704700000FB40449F5
:1002700010B503AA029800F063F910BC5DF814FBF6
:10028000180000202DE9F041064600241068752969
:10029000314616A510D0AFF30080002802DA4042A4
:1002A00013A507E031688A0701D512A502E04907C6
:1002B00004D511A5012401E0AFF3008000210A223A
:1002C00006F1240709E0B0FBF2FCB0FBF2F302FBFD
:1002D0001C00303078541846491C0028F3D12346BE
:1002E0002A463046BDE8F04100F0B9B800000000F1
:1002F0002D0000002B000000200000002DE9F0413F
:100300000F460546002028622846E968884770B3F2
:10031000252805D0D5E901219047286A401CF2E73D
:10032000E9682846002688476C2804460AD0682CCD
:1003300008D04C2C35D06A2C31D0742C31D07A2C8A
:100340002FD016E0E968064628468847B0420446A2
:1003500008D16C2E23D04FF480662846E968884780
:10036000044606E06C2E03D04FF4807601E01EE0D8
:100370004026E4B1A4F14100192802D8203446F403
:1003800000663A46214628462E60FFF7E9FE60B136
:10039000012808D0FF1D27F007070837B4E780269B
:1003A000DBE70026D9E73F1DAEE72046B2E7286A23
:1003B000BDE8F08102F0FF0343EA032242EA024271
:1003C00000F002B84FF000020429C0F0128010F0D3
:1003D000030C00F01B80CCF1040CBCF1020F18BF21
:1003E00000F8012BA8BF20F8022BA1EB0C0100F0B4
:1003F0000DB85FEAC17C24BF00F8012B00F8012B87
:1004000048BF00F8012B70474FF0000200B51346BB
:1004100094469646203922BFA0E80C50A0E80C5024
:10042000B1F12001BFF4F7AF090728BFA0E80C50D5
:1004300048BF0CC05DF804EB890028BF40F8042BCE
:1004400008BF704748BF20F8022B11F0804F18BF3B
:1004500000F8012B704770477047704770472DE9CF
:10046000F0470D4699469246044600F1240801687B
:10047000880604D5E06921F01001216000E0012028
:10048000A84201DD471B00E00027A1697A1902EBB1
:100490000900081AA0612078C00602D42046AFF3F4
:1004A0000080002608E0D4E901211AF806009047F0
:1004B000206A401C761C20624E45F4DB2078C00682
:1004C0000AD52046AFF3008006E0D4E901213020B0
:1004D0009047206A401C2062381EA7F10107F4DC17
:1004E00007E0D4E9012118F805009047206A401C74
:1004F0002062281EA5F10105F3DC2046AFF3008041
:100500002078000602D50220BDE8F0870120FBE735
:1005100001694A1C02610878704700B58FB0CDE9C7
:1005200001310021059105497944CDE903101146B7
:100530006846FFF7E3FE0FB000BD0000E5FFFFFFD8
:10054000074B70B50D467B44FFF7E7FF044628468E
:1005500000F008F810B14FF0FF3070BD204670BDBC
:100560007F1B0000007B00F080007047754600F0A4
:100570002BF8AE4605006946534620F00700854635
:1005800018B020B5FFF75EFEBDE820404FF0000632
:100590004FF000074FF000084FF0000B21F007016B
:1005A000AC46ACE8C009ACE8C009ACE8C009ACE8AE
:1005B000C0098D46704710B50446AFF30080204651
:1005C000BDE81040FFF7DEBD004870479C460020A4
:1005D00000BFFEE77047000072B605E000224FF44E
:1005E0000051024800F032FAF8E700000010014024
:1005F0001CB5094800210B468022CDE9001007A157
:10060000094802F0F1F909A0FFF730FE02F04AF9BB
:100610000DA0FFF72BFE1CBD040000205374617277
:10062000745F5461736B0000151B00084265666FB0
:100630007265207363686564756C6572207374619C
:1006400072740D0A000000004166746572207363C5
:10065000686564756C6572207374617274202D20F6
:1006600073686F756C64204E455645522072656103
:1006700063682068657265210D0A000070B5044644
:10068000002594F82100022803D00420A06301254E
:1006900048E02068006820F00E00216808602068AB
:1006A000006820F00100216808601F492068884226
:1006B00001D1012026E01C4914312068884201D173
:1006C00010201FE0184928312068884201D1801588
:1006D00018E015493C312068884201D1801411E0AE
:1006E000114950312068884202D14FF4803009E02E
:1006F0000D4964312068884202D14FF4801001E036
:100700004FF08070084908394860012084F82100C2
:1007100000BF002084F8200000BF606B10B12046AD
:10072000616B8847284670BD080002402DE9F847F4
:100730000346002294466EE14FF0010808FA02F4E5
:10074000D1F8008008EA0400A0427DD1DFF8DCA2E5
:10075000D1F80480A8EB0A09D0453AD014DCB8F1EE
:10076000030F50D009DCB8F1000F31D0B8F1010F00
:100770001CD0B8F1020F49D120E0B8F1110F18D008
:10078000B8F1120F42D11EE0B9F5881F25D006DC62
:10079000B9F5803F20D0B9F5801F37D11AE0B9F5FF
:1007A000001F18D0B9F5041F30D117E0D1F80CC0E4
:1007B0002DE0D1F80C8008F1040C28E0D1F80C8071
:1007C00008F1080C23E0D1F80C8008F10C0C1EE0B5
:1007D00000BF00BF00BF00BF00BF00BFD1F808804E
:1007E000B8F1000F02D14FF0040C0BE0D1F80880F3
:1007F000B8F1010F03D14FF0080C1C6102E04FF07B
:10080000080C5C6103E04FF0000C00E000BF00BF8B
:10081000FF2801D8984601E003F104084646FF2866
:1008200002D84FEA820803E0A2F108084FEA8808DC
:100830004746D6F800804FF00F0909FA07F928EA71
:1008400009080CFA07F900E088E048EA0908C6F848
:100850000080D1F8048008F08058B8F1805F7DD125
:1008600000BFDFF8CC81D8F8188048F00108DFF825
:10087000C091C9F81880C846D8F8188008F0010857
:10088000CDF8008000BF00BF4FEAB9384FEA9209A7
:1008900058F829504FEA82784FEA18794FF00F083C
:1008A00008FA09F825EA0805DFF88881434502D1EE
:1008B0004FF0000816E0DFF88081434502D14FF089
:1008C00001080FE0DFF87481434502D14FF00208C0
:1008D00008E0DFF86C81434502D14FF0030801E0E6
:1008E0004FF004084FEA82794FEA197908FA09F8BB
:1008F00048EA0505DFF84C814FEA920948F829508B
:10090000D1F8048008F48038B8F5803F0AD1DFF8C8
:100910003881D8F8008048EA0008DFF82C91C9F83F
:10092000008009E0DFF82081D8F8008028EA00087C
:10093000DFF81491C9F80080D1F8048008F4003879
:10094000B8F5003F10D1DFF8008108F10408D8F8AD
:10095000008048EA0008DFF8F09000E05AE009F172
:100960000409C9F800800DE0DFF8DC8008F1040814
:10097000D8F8008028EA0008DFF8CC9009F10409D3
:10098000C9F80080D1F8048008F48018B8F5801FF9
:100990000ED1DFF8B48008F10808D8F8008048EAE2
:1009A0000008DFF8A49009F10809C9F800800DE0FB
:1009B000DFF8948008F10808D8F8008028EA0008D9
:1009C000DFF8849009F10809C9F80080D1F80480A3
:1009D00008F40018B8F5001F0ED1DFF86C8008F19C
:1009E0000C08D8F8008048EA0008DFF85C9009F1AC
:1009F0000C09C9F800800DE0DFF84C8008F10C0804
:100A0000D8F8008028EA0008DFF83C9009F10C09CA
:100A1000C9F80080521CD1F8008028FA02F8B8F119
:100A2000000F7FF489AEBDE8F887000000001110C8
:100A30000010024000080140000C0140001001407D
:100A40000014014008000140000401400AB10161A6
:100A500001E00B0403617047014800687047000023
:100A60002000002003480068034909780844014930
:100A700008607047200000202800002010B50848BA
:100A8000006840F0100006490860032000F05CF8A0
:100A90000F2000F007F800F008F8002010BD00005B
:100AA000002002400146002070477047014608467A
:100AB000002809DB00F01F0301229A4043099B0034
:100AC00003F1E023C3F8002100BF70472DE9F05F78
:100AD00080460D461646002701F08EFA0746394635
:100AE0002A46334601F00700C0F1070ABAF1040FA5
:100AF00002D94FF0040A01E0C0F1070AD14600F123
:100B0000040ABAF1070F02D24FF0000A01E0A0F187
:100B1000030AD4464FF0010A0AFA09FAAAF1010AB7
:100B20000AEA020A0AFA0CFA4FF0010B0BFA0CFB64
:100B3000ABF1010B0BEA030B4AEA0B0421464046DA
:100B400001F062FABDE8F09F00BF00F00702064B1B
:100B500019684FF6FF031940044B0B4343EA022187
:100B6000014B196000BF70470CED00E00000FA0572
:100B700070B504460D460CB9012070BD5A48006896
:100B800000F00700A8420ED25748006820F0070086
:100B90002843554908600846006800F00700A8424D
:100BA00001D00120E9E7207800F0020002281DD1E1
:100BB000207800F00400042805D14C48406840F437
:100BC000E0604A494860207800F00800082805D114
:100BD0004648406840F46050444948604348406893
:100BE00020F0F000A168084340494860207800F0F8
:100BF000010078B36068012806D13C48006800F421
:100C0000003090B90120B8E76068022806D1374863
:100C1000006800F0007040B90120AEE7334800687A
:100C200000F0020008B90120A7E73048406820F032
:100C30000300616808432D494860FFF70DFF064631
:100C400009E0FFF709FF801B41F28831884202D991
:100C5000032092E707E02548406800F00C00616837
:100C6000B0EB810FEDD12048006800F00700A842EA
:100C70000ED91D48006820F0070028431A49086073
:100C80000846006800F00700A84201D0012074E780
:100C9000207800F00400042807D11448406820F4AC
:100CA000E060E168084311494860207800F00800DE
:100CB000082808D10D48406820F46050216940EAB6
:100CC000C1000A49486000F03FF808494968C1F38B
:100CD0000311074A515CC84006490860064800688D
:100CE000FFF7E0FE002048E700200240001002402D
:100CF000682D000800000020240000200148006842
:100D0000704700000000002000B5FFF7F7FF04491E
:100D10004968C1F30221034A515CC84000BD00008C
:100D200000100240782D000800B5FFF7E7FF0449E6
:100D30004968C1F3C221034A515CC84000BD0000AC
:100D400000100240782D0008F0B585B00FF26C0C51
:100D50009CE8E01001A8A0E8E0101CA52D68009513
:100D600000210022002300240020194D696801F0B1
:100D70000C05F5B1042D02D0082D19D101E015485C
:100D800019E001ADC1F38346AC5D01F4803555B186
:100D90000F4D6D68C5F340451DF805200D4D6543A9
:100DA000B5FBF2F302E00C4D04FB05F3184602E03C
:100DB00000BF084800BF00BF05B0F0BD0203040536
:100DC000060708090A0B0C0D0E0F10100102000097
:100DD0000010024000127A0000093D00F8B50446F8
:100DE0000CB90120F8BD207800F00100002878D06F
:100DF000F848406800F00C0004280CD0F548406822
:100E000000F00C00082811D1F248406800F480304E
:100E1000B0F5803F0AD1EF48006800F400300028A8
:100E20005FD0606800285CD10120DBE700BF60680C
:100E3000B0F5803F06D1E748006840F48030E549CE
:100E4000086028E0606858B9E248006820F4803003
:100E5000E04908600846006820F4802008601AE035
:100E60006068B0F5A02F0BD1DA48006840F480200C
:100E7000D84908600846006840F4803008600AE0FD
:100E8000D448006820F48030D249086008460068E1
:100E900020F48020086000BF606888B1FFF7DCFDA7
:100EA000054606E0FFF7D8FD401B642801D9032062
:100EB00098E7C848006800F400300028F2D010E03D
:100EC000FFF7CAFD054606E0FFF7C6FD401B642894
:100ED00001D9032086E7BF48006800F400300028ED
:100EE000F2D1207800F00200022857D1B9484068BA
:100EF00000F00C0050B1B748406800F00C00082822
:100F000018D1B448406800F4803098B9B1480068FE
:100F100000F0020020B12069012801D0012061E722
:100F2000AC48006820F0F800616940EAC100A949B6
:100F3000086033E02069E8B10120A7490860FFF7A5
:100F40008BFD054606E0FFF787FD401B022801D90F
:100F5000032047E79F48006800F002000028F2D015
:100F60009C48006820F0F800616940EAC100994996
:100F7000086013E0002098490860FFF76DFD054602
:100F800006E0FFF769FD401B022801D9032029E78D
:100F90009048006800F002000028F2D1207800F0AC
:100FA000080008282DD1A069B8B101208B4908603C
:100FB000FFF752FD054606E0FFF74EFD401B0228F5
:100FC00001D903200EE78348406A00F002000028A0
:100FD000F2D0012000F08AFD13E000207F49086074
:100FE000FFF73AFD054606E0FFF736FD401B0228F5
:100FF00001D90320F6E67748406A00F00200002895
:10100000F2D1207800F00400042873D10027714841
:10101000C06900F0805070B900BF6E48C06940F0F0
:1010200080506C49C8610846C06900F0805000904B
:1010300000BF00BF01276A48006800F48070B0B9A3
:101040006748006840F4807065490860FFF704FD58
:10105000054606E0FFF700FD401B642801D9032088
:10106000C0E65F48006800F480700028F2D000BF3E
:10107000E068012806D15748006A40F00100554950
:10108000086227E0E06858B95248006A20F0010081
:10109000504908620846006A20F00400086219E01E
:1010A000E06805280BD14B48006A40F0040049492C
:1010B00008620846006A40F0010008620AE04548FC
:1010C000006A20F00100434908620846006A20F0E7
:1010D0000400086200BFE068A0B1FFF7BDFC054650
:1010E00009E0FFF7B9FC401B41F28831884202D980
:1010F000032077E622E03748006A00F0020000286B
:10110000EFD012E0FFF7A8FC054608E0FFF7A4FCCB
:10111000401B41F28831884201D9032062E62D4804
:10112000006A00F002000028F0D1012F05D1294803
:10113000C06920F080502749C86100BFE069C8B38A
:101140002448406800F00C00082860D0E0690228BC
:1011500048D1002020490866FFF77EFC054606E0DE
:10116000FFF77AFC401B022801D903203AE6194810
:10117000006800F000700028F2D1206AB0F5803FCE
:1011800007D11448406820F40030A1680843114991
:101190004860D4E9080108430E49496821F47411F4
:1011A00008430C49486001200B490866FFF754FCCE
:1011B000054607E03DE0FFF74FFC401B022801D940
:1011C00003200FE60348006800F000700028F2D00A
:1011D0002FE0000000100240000042428004424222
:1011E00000700040002014490866FFF735FC0546F2
:1011F00006E0FFF731FC401B022801D90320F1E58E
:101200000E48006800F000700028F2D111E0E0699B
:10121000012800D1E6E50948466806F48031206AD5
:10122000814204D106F47011606A814201D001202C
:10123000D8E50020D6E50000000042420010024040
:101240007047704710B504460CB9012010BD94F8E2
:101250003D0028B9002084F83C00204600F00CF83E
:10126000022084F83D00211D206800F0FFFC0120D1
:1012700084F83D000020E9E7704701460868C0682F
:1012800040F001000B68D8600868806800F0070231
:10129000062A05D00868006840F001000B68186055
:1012A00000207047704710B5044620680069C0F3FD
:1012B0004000D8B12068C068C0F34000B0B16FF002
:1012C000020021680861012020772068806900F011
:1012D000030018B12046FFF7E5FF05E0204600F0C7
:1012E000ADF8204600F0ABF80020207720680069B8
:1012F000C0F38000D8B12068C068C0F38000B0B1EE
:101300006FF004002168086102202077206880695E
:1013100000F4407018B12046FFF7C4FF05E02046F6
:1013200000F08CF8204600F08AF800202077206832
:101330000069C0F3C000D8B12068C068C0F3C00025
:10134000B0B16FF0080021680861042020772068A0
:10135000C06900F0030018B12046FFF7A3FF05E0C5
:10136000204600F06BF8204600F069F80020207756
:1013700020680069C0F30010D8B12068C068C0F3CD
:101380000010B0B16FF010002168086108202077CC
:101390002068C06900F4407018B12046FFF782FF52
:1013A00005E0204600F04AF8204600F048F800200A
:1013B00020772068006900F0010058B12068C068FB
:1013C00000F0010030B16FF0010021680861204693
:1013D00000F036F820680069C0F3C01058B12068EA
:1013E000C068C0F3C01030B16FF0800021680861A0
:1013F0002046FFF725FF20680069C0F3801058B130
:101400002068C068C0F3801030B16FF040002168E0
:101410000861204600F01EF820680069C0F3401003
:1014200058B12068C068C0F3401030B16FF02000A0
:10143000216808612046FFF704FF10BD7047704720
:1014400010B504460248844201D1FFF70BFB10BDE2
:101450005C460020704770472DE9F047044620683D
:1014600005682068C668206847694FF00008C146D3
:1014700005F00F08B8F1000F0AD105F0200038B1CF
:1014800006F0200020B1204600F054FCBDE8F087B3
:10149000B8F1000F6DD007F0010018B906F4907094
:1014A000002866D005F0010030B106F4807018B154
:1014B000E06B40F00100E06305F0040030B107F09C
:1014C000010018B1E06B40F00200E06305F002009B
:1014D00030B107F0010018B1E06B40F00400E063A8
:1014E00005F0080030B107F0010018B1E06B40F0E2
:1014F0000800E063E06B68B305F0200028B106F057
:10150000200010B1204600F015FC20684069C0F3AF
:101510008019E06B00F0080010B9B9F1000F22D07B
:10152000204600F0E7FB2068406900F04000B0B1C1
:101530002068406920F0400021684861606B50B12C
:101540001748616B4863606BFFF798F810B1606BE8
:10155000416B88470CE02046FFF77DFF08E02046FE
:10156000FFF779FF04E02046FFF775FF0020E063F6
:101570008CE705F0800030B106F0800018B12046FD
:1015800000F0FCFC82E705F0400030B106F04000BE
:1015900018B1204600F0BEFB78E700BF76E70000F8
:1015A000E11C000810B504460CB9012010BDA0696B
:1015B00000B100E000BF94F8390028B9002084F899
:1015C0003800204600F028F8242084F839002068EC
:1015D000C06820F400502168C860204600F0FEFB7F
:1015E0002068006920F49040216808612068406903
:1015F00020F02A00216848612068C06840F400504B
:101600002168C8600020E063202084F8390084F855
:101610003A000020CAE7000010B586B00446284909
:10162000206888424AD100BF00BF2648806940F048
:101630000400244988610846806900F00400019094
:1016400000BF00BF00BF00BF00BF0846806940F078
:10165000040088610846806900F00400019000BF22
:1016600000BF00BF00BF00BF0846806940F4804053
:1016700088610846806900F48040019000BF00BF87
:1016800000BF48150290022003900120049003201F
:10169000059002A90C48FFF749F84FF480600290CA
:1016A0000020039002A90848FFF740F82520FFF723
:1016B000FDF9032211462520FFF708FA06B010BDF8
:1016C00000380140001002400008014010B50346F8
:1016D00093F83A0020282FD101B10AB9012010BD9A
:1016E00000BF93F83800012801D10220F7E701205C
:1016F00083F8380000BF99629A85DA850020D863A4
:10170000222083F83A0000BF002083F8380000BF91
:101710001868C06840F480701C68E0601868406910
:1017200040F001001C6860611868C06840F020004B
:101730001C68E0600020D2E70220D0E710B5044624
:101740002049206888423BD11F48008800F40040AF
:1017500088BB1D48008800F4804070B11B480078A9
:101760000A2803D000201849088024E01648008881
:1017700040F40040144908801DE0144800780D280A
:1017800006D11148008840F480400F49088012E0DB
:101790000E4800780C490988C1F30D010C4A5054D9
:1017A00009480088401C0849088008460088C72866
:1017B00001DD00200880012204490648FFF786FF6A
:1017C00010BD0000003801401C0000201E00002059
:1017D0008C00002054010020704700BFFEE700008D
:1017E00000B585B000BF0F48806940F008000D4982
:1017F00088610846806900F00800009000BF00BFC3
:101800000020019002900390049040F602000190A5
:10181000002002900120039001A90348FEF786FFF3
:1018200005B000BD00100240000C014000B585B0BD
:1018300000BF1548806940F00400134988610846DC
:10184000806900F00400009000BF00BF00200190FC
:101850000290039004900320019001200290002048
:1018600003900220049001A90848FEF75FFF0122BF
:1018700011460648FFF7EAF8012202210348FFF764
:10188000E5F805B000BD000000100240000801406E
:1018900000BFFEE7704770B500240EE0002120462F
:1018A00000F0F3F8002504E0002000F00FF9681CB8
:1018B000C5B2802DF8DB601CC4B2082CEEDB70BD15
:1018C00000B585B000BF1548806940F00800134995
:1018D00088610846806900F00800009000BF00BFE2
:1018E000002001900290039004904FF4407001900A
:1018F00011200290012003900320049001A90848C0
:10190000FEF714FF012211020548FFF79FF801229C
:1019100051020348FFF79AF805B000BD00100240DD
:10192000000C014070B50546002419E080202041DC
:10193000284008B1012000E0002002464FF4007169
:101940000E48FFF783F8012211020C48FFF77EF8DA
:1019500000224FF480710948FFF778F8601CC4B288
:10196000082CE3DB012211020448FFF76FF8002284
:101970004FF480710148FFF769F870BD000C014019
:1019800010B5012251020A48FFF760F80122110246
:101990000748FFF75BF800224FF400710448FFF797
:1019A00055F800224FF480710148FFF74FF810BD41
:1019B000000C014010B500224FF400710648FFF7FB
:1019C00045F8012211020448FFF740F801225102B4
:1019D0000148FFF73BF810BD000C014070B5002432
:1019E00006E0002500E06D1CB5F57A7FFBD3641C92
:1019F000B4F57A7FF5D3FFF763FFAE2000F056F819
:101A0000D52000F053F8802000F050F8A82000F016
:101A10004DF83F2000F04AF8D32000F047F80020AE
:101A200000F044F8402000F041F8A12000F03EF81A
:101A3000C82000F03BF8DA2000F038F8122000F05F
:101A400035F8812000F032F8CF2000F02FF8D920AF
:101A500000F02CF8F12000F029F8DB2000F026F847
:101A6000302000F023F8A42000F020F8A62000F099
:101A70001DF88D2000F01AF8142000F017F8AF20A0
:101A800000F014F8FFF707FF70BD70B505460C466F
:101A900045F0B00000F00AF8102141EA141000F0FF
:101AA00005F804F00F0000F001F870BD10B5044611
:101AB000FFF766FF7820FFF735FF0020FFF732FFC2
:101AC0002046FFF72FFFFFF775FF10BD10B5044646
:101AD000FFF756FF7820FFF725FF4020FFF722FF92
:101AE0002046FFF71FFFFFF765FF10BD08B5084947
:101AF0000968C9084FF47A72B1FBF2F141430091D1
:101B000000BF00BF00994A1E00920029F9D108BD0C
:101B1000000000201CB5044600F0C2FD0D48012164
:101B200000238022CDE900100BA10D4800F05CFFDE
:101B30000C48012100238022CDE900100AA10C48A5
:101B400000F052FF0B48006800F042FE00F0BAFDC2
:101B50001CBD000008000020765461736B3100004A
:101B6000492700080C0000205461736B320000000C
:101B70008D2700080400002010B500F069FF01283F
:101B800001D000F017FF10BD1148006840F00100BF
:101B90000F490860084640680E4908400C494860F3
:101BA000084600680C490840094908600846006872
:101BB00020F4802008600846406820F4FE00486059
:101BC0004FF41F008860C803044908607047000094
:101BD000001002400000FFF8FFFFF6FE08ED00E0F5
:101BE00010B50248FFF75FFB10BD00005C46002007
:101BF00008B500BF1948C06940F001001749C86125
:101C00000846C06900F00100009000BF00BF8804D2
:101C100013490860134800681349B0FBF1F0401EF7
:101C20000F49486000210E48816040F2E731C160F1
:101C300000218161FFF706FB08B1FEF7CDFC0848E3
:101C4000FFF71BFB08B1FEF7C7FC002208211C2090
:101C5000FEF73CFF1C20FEF729FF08BD00100240E4
:101C60005C4600200000002040420F0010B50268D2
:101C7000184B984208D0B0F1804F05D0164B9842CF
:101C800002D0164B984203D122F070024B681A43DF
:101C9000104B984208D0B0F1804F05D00E4B9842BF
:101CA00002D00E4B984203D122F44072CB681A4303
:101CB00022F080034C6943EA040202608B68C3622D
:101CC0000B688362034B984201D10B6903630123C4
:101CD000436110BD002C014000040040000800409A
:101CE00070B505466C6A0020E085E0842046FFF769
:101CF000B2FB70BD0168C96821F490710268D160BF
:101D00000168496921F0010102685161202180F8D0
:101D10003A10704710B504462068C06820F04000B3
:101D20002168C860202084F839002046FFF754FD60
:101D3000002010BD70B5044694F83A0022284AD11C
:101D4000A068B0F5805F13D1A56A206940B920680A
:101D50004068C0F308002880A06A801CA06219E0D7
:101D600020684068C0B22880A06A401CA06211E0D0
:101D7000206938B920684068C1B2A26A501CA062CC
:101D8000117007E02068406800F07F01A26A501CD3
:101D9000A0621170E08D401E80B2E085C8B9206855
:101DA000C06820F020002168C8602068C06820F466
:101DB00080702168C8602068406920F001002168B7
:101DC0004861202084F83A002046FFF7B7FC002045
:101DD00070BD0020FCE70220FAE7000070B5044661
:101DE0002168096921F44051E268114322681161B8
:101DF0002269A1681143626941EA02052168C96844
:101E000041F20C62914329432268D16021684969FB
:101E100021F44071A269114322685161564A216838
:101E2000914254D1FEF780FF00EBC00101EB00119D
:101E300062689200B1FBF2F100EBC00202EB00120B
:101E400063689B00B2FBF3F26423B2FBF3F202EB94
:101E5000C20303EB0212A1EB8201322202EB011159
:101E60006422B1FBF2F101F0F00100EBC00202EBE1
:101E7000001263689B00B2FBF3F26423B2FBF3F23F
:101E800001EB021200EBC00101EB001163689B0043
:101E9000B1FBF3F100EBC00303EB00136668B6007F
:101EA000B3FBF6F36426B3FBF6F303EBC30606EBD2
:101EB0000313A1EB8301322303EB01116423B1FB74
:101EC000F3F101F00F0111442268916053E0FEF735
:101ED0001BFF00EBC00101EB001162689200B1FB37
:101EE000F2F100EBC00202EB001263689B00B2FB50
:101EF000F3F26423B2FBF3F202EBC20303EB021230
:101F0000A1EB8201322202EB01116422B1FBF2F15A
:101F100001F0F00100EBC00202EB001263689B00CD
:101F2000B2FBF3F26423B2FBF3F201EB021200EB1B
:101F3000C00101EB001163689B00B1FBF3F100EB02
:101F4000C00303EB00136668B600B3FBF6F3642628
:101F5000B3FBF6F303EBC30606EB0313A1EB83011C
:101F6000322303EB01116423B1FBF3F101F00F0104
:101F700011442268916070BD00380140014691F81B
:101F8000390021282CD18868B0F5805F0FD10A6A0A
:101F90001088C0F308000B685860086918B9086A0F
:101FA000801C086209E0086A401C086205E00B6AB0
:101FB000581C086218780B685860C88C401E80B2A4
:101FC000C88458B90868C06820F080000B68D860E1
:101FD0000868C06840F040000B68D8600020704777
:101FE0000220FCE710B50248FFF736FA10BD0000EA
:101FF0005401002000BFFEE702480068C0F3022041
:10200000704700000CED00E010B5002804DB0A0763
:10201000130E054A135406E00A07140E034A00F093
:102020000F031B1FD45410BD00E400E018ED00E0C6
:1020300000BF70470B4A10600B4A00FB02F164229C
:102040000A4B1A804FF0E022126942F002024FF070
:10205000E0231A614A1E5A611A46126942F00102CF
:102060001A61704710000020A086010014000020B3
:102070002DE9F047074600264FF0E020D0F81490F5
:102080001048006807FB00F800F00AFB4FF0E02062
:10209000856911E04FF0E0208469AC420CD0AC427D
:1020A00002D2281B064403E0A9EB0400284406449E
:1020B0002546464500D300E0ECE700BF00F002FBF8
:1020C000BDE8F0871000002000BF054A126802F04A
:1020D0004002002AF9D0C2B2014B1B1D1A607047A2
:1020E00000380140FEF7CAFC4FF4E01000F058FA47
:1020F0004FF4E13000F088FA4820FFF79BFFFFF72C
:1021000077FDFFF76DFBFFF791FBFFF767FCFEF72D
:102110006FFA00BFFEE7000010B5044600F0C0FAF9
:1021200031480068401C304908603048006840B9B8
:102130002E4804600846006801280DD100F020F9FF
:102140000AE02B48006838B928480068C06AE16A8C
:10215000884201D82548046026480068401C25496B
:10216000086008460068606494F82C1001208840DC
:1021700021490968084320490860E16A01EB8101AF
:102180001E4A02EB81014868A0608268E260211D5E
:10219000826851608160E16A01EB8101174A02EBBC
:1021A00081026261E16A01EB8101144A52F8211057
:1021B000491CE26A02EB8202104B43F8221000F045
:1021C00081FA0B48006868B108480068C06AE16A93
:1021D000884207D24FF0805009490860BFF34F8F03
:1021E000BFF36F8F10BD00003C0000202C000020CA
:1021F00048000020580000204400002094010020E6
:1022000004ED00E010B516E000F04AFA0C48C06892
:10221000C468201D00F014FA0A480068401E0949ED
:10222000086009480068401E0749086000F04AFA43
:10223000204600F00BF8044800680028E4D110BDE7
:10224000340200203C0000203800002010B5044675
:10225000206B00F047FA204600F044FA10BD000061
:1022600030B54FF48843154800F007042CB1C01D69
:1022700020F00700114C041B1B1B0246104C22606F
:1022800000240F4D6C60D018083820F007000D4C6A
:10229000206000240B4D2D686C600A4D2D682C6069
:1022A0001146441A4C60074C24680C60064D4C687B
:1022B0002C60064D4C682C6030BD00005C02002094
:1022C0007000002078000020800000207C000020AA
:1022D00000BFFFF797FF064800680128F9D94FF0C3
:1022E000805004490860BFF34F8FBFF36F8FF0E752
:1022F0009401002004ED00E02DE9F05F81460E46D8
:1023000017469A46DDF828800C9CB900A522206B60
:10231000FEF750F8781E216B01EB800B2BF0070BBA
:102320007EB1002507E0715D04F134004155705D18
:1023300000B902E06D1C102DF5D300BF0021432031
:102340000155B8F1050F01D34FF00408C4F82C80F3
:10235000201D00F096F904F1180000F092F92461B4
:10236000C8F10500A061646252464946584600F033
:1023700005F920600B9808B10B980460BDE8F09F48
:1023800010B5002407E004EB84010F4A02EB810042
:1023900000F06AF9641C052CF5D30C4800F064F9D0
:1023A0000B4800F061F90B4800F05EF90A4800F0B4
:1023B0005BF90A4800F058F90448094908600448E4
:1023C0000849086010BD000094010020F8010020B9
:1023D0000C020020200200203402002048020020CD
:1023E000300000203400002010B50146164800E0FF
:1023F000006803688B42FBD30246436813448B4258
:1024000004D143684C682344436001460A464B6844
:1024100013440468A34211D10C4C03682468A342FE
:1024200008D04B680468646823444B6003681B68E9
:102430000B6005E0054B1B680B6001E003680B6057
:10244000884200D0016010BD70000020780000209C
:1024500009480068006808B9012000E0002020B1A8
:102460004FF0FF300549086005E003480068C06888
:102470000068024908607047300000205C000020BE
:1024800000BF502080F31188BFF34F8FBFF36F8FD1
:1024900000BF00BFFEE700002DE9F04705464FF002
:1024A000000900F035FA3048006808B9FFF7D8FE97
:1024B00075B105F00700C0F11008C8F1FF30A8425F
:1024C00001D2012000E0002008B9454400E00025C9
:1024D000012000EBE570002841D0002D3FD02348BB
:1024E000006885423BD8224E3046046801E026460B
:1024F00024686068A84202D220680028F7D11A48F0
:10250000006884422BD0306800F1080920683060F0
:102510006068401B102807D967196068401B786005
:1025200065603846FFF760FF104960680968081A5F
:102530000E490860084600680E490968884203D2BF
:102540000A4800680B490860606840F0004060601D
:102550000020206008480068401C0749086000F01F
:1025600055FB4846BDE8F087780000207C0000203D
:10257000700000208000002084000020001F4FF029
:1025800080730360001F21F001030360001F034BF1
:10259000036014380260203870470000812400086E
:1025A00030B58FB005460124282105A8FDF72CFF82
:1025B00014216846FDF728FF0120059000040690CD
:1025C0000020079002200C90C1030D910E9505A8E4
:1025D000FEF704FC04460CB100BFFEE70F2000909C
:1025E00002200190002002904FF4806003900020B0
:1025F000049002216846FEF7BBFA04460CB100BF06
:10260000FEE70FB030BD000010B5044609480A4986
:1026100008600846446000218160C16001618161F9
:102620000C214161FEF7BEFF012204490248FFF779
:102630004DF810BD00380140540100201E0000205C
:1026400001460A69D1E901309860D1E90103586077
:102650005068884201D18868506000200861106885
:10266000401E10601068704700F1080141604FF093
:10267000FF31816000F10801C1600161002101604A
:10268000704700210161704742684A6093688B601F
:10269000936859609160086103685B1C0360704730
:1026A00000BF502080F31188BFF34F8FBFF36F8FAF
:1026B00000BF03480068401C0149086070470000E3
:1026C0006C00002006480068401E05490860084666
:1026D000006820B9002080F3118800BF00BF704758
:1026E0006C00002070B506463546E6B1083D2C4624
:1026F0006068C00FB8B12068A8B9606820F00040D9
:10270000606000F005F908496068096808440649F6
:1027100008602046FFF768FE04480068401C034933
:10272000086000F073FA70BD7C0000208800002073
:1027300000204FF0E02108618861024848610720CD
:1027400008617047FFDC6D000AE000F091F9044673
:10275000214604A0FDF78AFD4CF25030FFF788FCBB
:10276000F3E700005461736B312069732072756E5A
:102770006E696E67202052544F53207469636B3A20
:1027800020256C7520200D0A000000000AE000F0F2
:102790006FF90446214604A0FDF768FD4CF2503065
:1027A000FFF766FCF3E700005461736B3220697336
:1027B0002072756E6E696E67202052544F532074DC
:1027C00069636B3A20256C7520200D0A000000001B
:1027D00070B50546FFF764FF15B92948006800E0A9
:1027E00028460446201DFFF72BFF78B9E06A00EB6E
:1027F0008000244951F8200040B994F82C100120A1
:1028000088402149096881431F480160A06A18B1C6
:1028100004F11800FFF714FF1C480068401C1B4916
:10282000086017480068844209D1211D1848FFF745
:102830002BFF18480068401C1649086006E016483F
:102840000068401E14490860FFF702FEFFF73AFFD8
:102850000B480068844202D02046FFF7F7FC0F487F
:10286000006858B106480068844207D14FF0805094
:102870000B490860BFF34F8FBFF36F8F70BD00002F
:102880002C0000209401002044000020580000206B
:1028900034020020380000203C00002048000020C6
:1028A00004ED00E01CB5124800210B468022CDE962
:1028B000001010A1114800F097F80446012C14D123
:1028C00000BF502080F31188BFF34F8FBFF36F8F8D
:1028D00000BF4FF0FF300A49086001200949086035
:1028E00000200949086000F04BF8084800681CBD4A
:1028F0006000002049444C4500000000D12200083F
:102900005C000020480000204000002064000020FF
:1029100002480068401C01490860704768000020B8
:102920001248006818B10120114908601DE000201C
:102930000F4908600F480068B0FA80F0C0F11F012D
:1029400001EB81020C4B03EB82004268526842604B
:1029500000F108024368934202D142685268426023
:102960004268D268054B1A6000BF704768000020BB
:102970005000002044000020940100202C00002082
:1029800010B50A48006840F470000849086008461D
:10299000006840F070400860FFF7CAFE002004495C
:1029A0000860FDF707FC002010BD000020ED00E0EE
:1029B0006C00002010B500BF502080F31188BFF3D9
:1029C0004F8FBFF36F8F00BF00F058F818B14FF072
:1029D00080500449086000BF002080F3118800BFC8
:1029E00010BD000004ED00E02DE9FF4F85B08046EA
:1029F00089461746DDE912ABB800FFF74DFD0646E4
:102A000076B15420FFF748FD04462CB154212046EE
:102A1000FDF7FAFC266304E03046FFF763FE00E0B2
:102A200000247CB10020CDE900ABCDE902403A465C
:102A300049464046089BFFF75FFC2046FFF76CFBCA
:102A4000012501E04FF0FF35284609B0BDE8F08FC1
:102A50000549096809B9012005E00449096809B96F
:102A6000022000E00020704748000020680000209D
:102A70000149086870470000400000202DE9F0413E
:102A800000275748006800287ED156480068451C3A
:102A9000544805608DB95448D0F800805348006808
:102AA000514908605148C0F8008051480068401CF6
:102AB0004F490860FFF7CCFC00BF4E4800688542D4
:102AC00076D300BF48480068006808B9012000E0DC
:102AD000002020B14FF0FF304649086067E04248CF
:102AE0000068C068C4686668B54202D241480660A2
:102AF0005DE06069D4E902128A60D4E902214A608B
:102B0000211D42688A4201D1E16841600022626170
:102B10000168491E0160A06A98B1A06AD4E9071251
:102B20008A60D4E907214A6004F1180142688A42A8
:102B300001D1216A41600022A2620168491E016040
:102B400000BF94F82C10012088402B4909680843E5
:102B500029490860E16A01EB8101284A02EB810101
:102B60004868A0608268E260211D826851608160CF
:102B7000E16A01EB8101214A02EB81026261E16AB3
:102B800001EB81011D4A00E022E052F82110491CAE
:102B9000E26A02EB8202194B43F822101849E06AFC
:102BA0000968C96A88428DD901278BE700E000BF18
:102BB00013480068C06A00EB8000104951F82000FB
:102BC000012800D901270F48006800B1012704E05F
:102BD0000D480068401C0C4908603846BDE8F0818B
:102BE0006800002040000020300000203400002059
:102BF000540000205C0000204400002094010020CC
:102C00002C000020500000204C00002070B5002453
:102C10000026FFF745FD4B480068401E4949086003
:102C20000846006800287DD147480068002879D010
:102C30005BE04648C068C468A06AD4E907128A60AD
:102C4000D4E907214A6004F1180142688A4201D19F
:102C5000216A41600022A2620168491E0160606928
:102C6000D4E902128A60D4E902214A60211D426837
:102C70008A4201D1E1684160002262610168491E17
:102C8000016094F82C1001208840314909680843FC
:102C90002F490860E16A01EB81012E4A02EB8101B4
:102CA0004868A0608268E260211D8268516081608E
:102CB000E16A01EB8101274A02EB81026261E16A6C
:102CC00001EB8101234A52F82110491CE26A02EB10
:102CD0008202204B43F822101F49E06A0968C96A42
:102CE000884202D301201D4908601848006808B9CD
:102CF000012000E0002000289BD00CB1FFF7A8FBCA
:102D00001748056865B100BFFFF7B8FE10B1012094
:102D1000124908606D1E002DF6D100201049086090
:102D20000E4800E009E0006838B1012630070D497F
:102D30000860BFF34F8FBFF36F8FFFF7C3FC3046C0
:102D400070BD0000680000203C0000202002002030
:102D500044000020940100202C000020500000209E
:102D60004C00002004ED00E0000000000000000026
:102D70000102030406070809000000000102030421
:102D8000A02D0008000000208C0000002801000891
:102D90002C2E00088C000020744C00004401000818
:102DA0000024F4000000000000000000000000000B
:102DB0000000000000000000000000000000000013
:102DC00000000000100000000100000000000000F2
:102DD00000000000000000000000000000000000F3
:102DE00000000000000000000000000000000000E3
:102DF00000000000000000000000000000000000D3
:102E0000000000000400000000000000AAAAAAAA16
:102E100000000000000000000000000000000000B2
:0C2E2000000000000000000000000000A6
:04000005080000ED02
:00000001FF
