:020000040800F2
:10000000804D002029020008E1180008C7170008E9
:10001000DD1800087D050008192200080000000016
:100020000000000000000000000000009101000836
:100030008105000800000000D5010008C51B00086C
:10004000430200084302000843020008430200087C
:10005000430200084302000843020008430200086C
:10006000430200084302000843020008430200085C
:10007000430200084302000843020008430200084C
:10008000430200084302000843020008430200083C
:10009000430200084302000843020008430200082C
:1000A000430200084302000843020008430200081C
:1000B0002D1C0008B91C0008A51D000843020008FB
:1000C00043020008430200084302000843020008FC
:1000D0004302000809220008430200084302000806
:1000E00043020008430200084302000800F002F83F
:1000F00000F03FF80AA090E8000C82448344AAF183
:100100000107DA4501D100F034F8AFF2090EBAE880
:100110000F0013F0010F18BFFB1A43F0010318473B
:10012000802F0000A02F0000103A24BF78C878C1AB
:10013000FAD8520724BF30C830C144BF04680C60ED
:10014000704700000023002400250026103A28BF35
:1001500078C1FBD8520728BF30C148BF0B60704739
:10016000752900F08F80002070471FB51FBD10B5A6
:1001700010BD00F0D1F91146FFF7F7FF02F098F833
:1001800000F0EFF903B4FFF7F2FF03BC02F062F8EE
:10019000224B19680868B0E8F00F80F30988BFF3B4
:1001A0006F8F4FF0000080F311884EF00D0E7047F6
:1001B0000000000006480068006880F3088862B606
:1001C00061B6BFF34F8FBFF36F8F00DF00BF00BF7B
:1001D00008ED00E0EFF30980BFF36F8F0F4B1A6853
:1001E00020E9F00F106008B54FF0500080F311883F
:1001F000BFF34F8FBFF36F8F02F022FD4FF000006F
:1002000080F31188BDE8084019680868B0E8F00F6D
:1002100080F30988BFF36F8F704700BF2C00002068
:10022000EFF3058070470000094880470948004700
:10023000FEE7FEE7FEE7FEE7FEE7FEE7FEE7FEE796
:10024000FEE7FEE704480549054A064B70470000F3
:10025000D51B0008ED00000880470020804D0020DD
:100260008049002080490020704700000FB40449F5
:1002700010B503AA029800F021F910BC5DF814FB38
:10028000180000202DE9F041064600241068752969
:10029000314616A510D0AFF30080002802DA4042A4
:1002A00013A507E031688A0701D512A502E04907C6
:1002B00004D511A5012401E0AFF3008000210A223A
:1002C00006F1240709E0B0FBF2FCB0FBF2F302FBFD
:1002D0001C00303078541846491C0028F3D12346BE
:1002E0002A463046BDE8F04100F08FB8000000001B
:1002F0002D0000002B000000200000002DE9F0413F
:100300000F460546002028622846E968884770B3F2
:10031000252805D0D5E901219047286A401CF2E73D
:10032000E9682846002688476C2804460AD0682CCD
:1003300008D04C2C35D06A2C31D0742C31D07A2C8A
:100340002FD016E0E968064628468847B0420446A2
:1003500008D16C2E23D04FF480662846E968884780
:10036000044606E06C2E03D04FF4807601E01EE0D8
:100370004026E4B1A4F14100192802D8203446F403
:1003800000663A46214628462E60FFF7E9FE60B136
:10039000012808D0FF1D27F007070837B4E780269B
:1003A000DBE70026D9E73F1DAEE72046B2E7286A23
:1003B000BDE8F0814FF0000200B513469446964622
:1003C000203922BFA0E80C50A0E80C50B1F1200168
:1003D000BFF4F7AF090728BFA0E80C5048BF0CC016
:1003E0005DF804EB890028BF40F8042B08BF704774
:1003F00048BF20F8022B11F0804F18BF00F8012BE6
:10040000704770477047704770472DE9F0470D46B9
:1004100099469246044600F124080168880604D5EE
:10042000E06921F01001216000E00120A84201DD17
:10043000471B00E00027A1697A1902EB0900081A9E
:10044000A0612078C00602D42046AFF300800026C9
:1004500008E0D4E901211AF806009047206A401C00
:10046000761C20624E45F4DB2078C0060AD5204673
:10047000AFF3008006E0D4E9012130209047206AE4
:10048000401C2062381EA7F10107F4DC07E0D4E924
:10049000012118F805009047206A401C2062281EA0
:1004A000A5F10105F3DC2046AFF3008020780006BB
:1004B00002D50220BDE8F0870120FBE7074B70B5AD
:1004C0000D467B4400F011F80446284600F020F861
:1004D00010B14FF0FF3070BD204670BDCF1D000041
:1004E00001694A1C02610878704700B58FB0CDE9F8
:1004F00001310021059105497944CDE903101146E8
:100500006846FFF7FBFE0FB000BD0000E5FFFFFFF0
:10051000007B00F080007047754600F02BF8AE4677
:1005200005006946534620F00700854618B020B5FF
:10053000FFF788FEBDE820404FF000064FF00007AF
:100540004FF000084FF0000B21F00701AC46ACE87B
:10055000C009ACE8C009ACE8C009ACE8C0098D46E8
:10056000704710B50446AFF300802046BDE8104048
:10057000FFF708BE004870472047002000BFFEE795
:100580007047000072B605E000224FF400510248A7
:1005900000F041FAF8E70000001001401CB50948DE
:1005A00000210B468022CDE9001007A1094802F086
:1005B000ABFB09A0FFF75AFE02F004FB0DA0FFF70A
:1005C00055FE1CBD0400002053746172745F5461B9
:1005D000736B0000611B00084265666F72652073D3
:1005E00063686564756C65722073746172740D0A5A
:1005F000000000004166746572207363686564756D
:100600006C6572207374617274202D2073686F752D
:100610006C64204E455645522072656163682068BF
:10062000657265210D0A000070B50446002594F836
:100630002100022803D00420A063012548E020689F
:10064000006820F00E00216808602068006820F033
:100650000100216808601F492068884201D10120FB
:1006600026E01C4914312068884201D110201FE087
:10067000184928312068884201D1801518E01549B1
:100680003C312068884201D1801411E01149503179
:100690002068884202D14FF4803009E00D4964316E
:1006A0002068884202D14FF4801001E04FF0807042
:1006B000084908394860012084F8210000BF002063
:1006C00084F8200000BF606B10B12046616B884742
:1006D000284670BD080002402DE9F8470346002275
:1006E00094466EE14FF0010808FA02F4D1F8008058
:1006F00008EA0400A0427DD1DFF8DCA2D1F8048032
:10070000A8EB0A09D0453AD014DCB8F1030F50D059
:1007100009DCB8F1000F31D0B8F1010F1CD0B8F1ED
:10072000020F49D120E0B8F1110F18D0B8F1120F23
:1007300042D11EE0B9F5881F25D006DCB9F5803F0F
:1007400020D0B9F5801F37D11AE0B9F5001F18D0B5
:10075000B9F5041F30D117E0D1F80CC02DE0D1F865
:100760000C8008F1040C28E0D1F80C8008F1080C8A
:1007700023E0D1F80C8008F10C0C1EE000BF00BF94
:1007800000BF00BF00BF00BFD1F80880B8F1000F64
:1007900002D14FF0040C0BE0D1F80880B8F1010F42
:1007A00003D14FF0080C1C6102E04FF0080C5C61B3
:1007B00003E04FF0000C00E000BF00BFFF2801D8AD
:1007C000984601E003F104084646FF2802D84FEAA4
:1007D000820803E0A2F108084FEA88084746D6F8E5
:1007E00000804FF00F0909FA07F928EA09080CFA06
:1007F00007F900E088E048EA0908C6F80080D1F867
:10080000048008F08058B8F1805F7DD100BFDFF828
:10081000CC81D8F8188048F00108DFF8C091C9F8F9
:100820001880C846D8F8188008F00108CDF8008074
:1008300000BF00BF4FEAB9384FEA920958F8295073
:100840004FEA82784FEA18794FF00F0808FA09F852
:1008500025EA0805DFF88881434502D14FF00008FA
:1008600016E0DFF88081434502D14FF001080FE028
:10087000DFF87481434502D14FF0020808E0DFF849
:100880006C81434502D14FF0030801E04FF00408AA
:100890004FEA82794FEA197908FA09F848EA05051A
:1008A000DFF84C814FEA920948F82950D1F80480CA
:1008B00008F48038B8F5803F0AD1DFF83881D8F8DD
:1008C000008048EA0008DFF82C91C9F8008009E0B0
:1008D000DFF82081D8F8008028EA0008DFF81491BA
:1008E000C9F80080D1F8048008F40038B8F5003F5A
:1008F00010D1DFF8008108F10408D8F8008048EA38
:100900000008DFF8F09000E05AE009F10409C9F8A6
:1009100000800DE0DFF8DC8008F10408D8F80080E2
:1009200028EA0008DFF8CC9009F10409C9F8008032
:10093000D1F8048008F48018B8F5801F0ED1DFF8D4
:10094000B48008F10808D8F8008048EA0008DFF809
:10095000A49009F10809C9F800800DE0DFF894803F
:1009600008F10808D8F8008028EA0008DFF8849029
:1009700009F10809C9F80080D1F8048008F40018CA
:10098000B8F5001F0ED1DFF86C8008F10C08D8F81C
:10099000008048EA0008DFF85C9009F10C09C9F80A
:1009A00000800DE0DFF84C8008F10C08D8F80080DA
:1009B00028EA0008DFF83C9009F10C09C9F800802A
:1009C000521CD1F8008028FA02F8B8F1000F7FF429
:1009D00089AEBDE8F8870000000011100010024049
:1009E00000080140000C01400010014000140140CB
:1009F0000800014000040140024693680B400BB11F
:100A0000012000E000207047C2680A400AB141613D
:100A100000E0016170470AB1016101E00B0403616C
:100A20007047000001480068704700002000002067
:100A30000348006803490978084401490860704781
:100A4000200000202800002010B50848006840F071
:100A5000100006490860032000F05CF80F2000F049
:100A600007F800F008F8002010BD00000020024048
:100A7000014600207047704701460846002809DB00
:100A800000F01F0301229A4043099B0003F1E02379
:100A9000C3F8002100BF70472DE9F05F80460D4686
:100AA0001646002701F0BAFB074639462A46334668
:100AB00001F00700C0F1070ABAF1040F02D94FF0A4
:100AC000040A01E0C0F1070AD14600F1040ABAF1B4
:100AD000070F02D24FF0000A01E0A0F1030AD4464A
:100AE0004FF0010A0AFA09FAAAF1010A0AEA020A0F
:100AF0000AFA0CFA4FF0010B0BFA0CFBABF1010BED
:100B00000BEA030B4AEA0B042146404601F08EFB38
:100B1000BDE8F09F00BF00F00702064B19684FF6D2
:100B2000FF031940044B0B4343EA0221014B1960B8
:100B300000BF70470CED00E00000FA0570B50446F8
:100B40000D460CB9012070BD5A48006800F007003E
:100B5000A8420ED25748006820F0070028435549A4
:100B600008600846006800F00700A84201D0012094
:100B7000E9E7207800F0020002281DD1207800F07B
:100B80000400042805D14C48406840F4E0604A491C
:100B90004860207800F00800082805D146484068E1
:100BA00040F46050444948604348406820F0F000F9
:100BB000A168084340494860207800F0010078B3FC
:100BC0006068012806D13C48006800F4003090B904
:100BD0000120B8E76068022806D13748006800F0B5
:100BE000007040B90120AEE73348006800F0020011
:100BF00008B90120A7E73048406820F00300616889
:100C000008432D494860FFF70DFF064609E0FFF74E
:100C100009FF801B41F28831884202D9032092E704
:100C200007E02548406800F00C006168B0EB810FD8
:100C3000EDD12048006800F00700A8420ED91D48F9
:100C4000006820F0070028431A4908600846006839
:100C500000F00700A84201D0012074E7207800F0DE
:100C60000400042807D11448406820F4E060E168DB
:100C7000084311494860207800F00800082808D18E
:100C80000D48406820F46050216940EAC1000A49DB
:100C9000486000F03FF808494968C1F30311074A6A
:100CA000515CC8400649086006480068FFF7E0FE4E
:100CB000002048E700200240001002408830000871
:100CC0000000002024000020014800687047000058
:100CD0000000002000B5FFF7F7FF04494968C1F3A1
:100CE0000221034A515CC84000BD000000100240D0
:100CF0009830000800B5FFF7E7FF04494968C1F3E1
:100D0000C221034A515CC84000BD000000100240EF
:100D100098300008F0B585B00FF26C0C9CE8E0103C
:100D200001A8A0E8E0101CA52D6800950021002274
:100D3000002300240020194D696801F00C05F5B16D
:100D4000042D02D0082D19D101E0154819E001AD9C
:100D5000C1F38346AC5D01F4803555B10F4D6D682C
:100D6000C5F340451DF805200D4D6543B5FBF2F375
:100D700002E00C4D04FB05F3184602E000BF0848F2
:100D800000BF00BF05B0F0BD020304050607080957
:100D90000A0B0C0D0E0F1010010200000010024093
:100DA00000127A0000093D00F8B504460CB9012094
:100DB000F8BD207800F00100002878D0F84840689D
:100DC00000F00C0004280CD0F548406800F00C003E
:100DD000082811D1F248406800F48030B0F5803F17
:100DE0000AD1EF48006800F4003000285FD0606846
:100DF00000285CD10120DBE700BF6068B0F5803FD0
:100E000006D1E748006840F48030E549086028E0F2
:100E1000606858B9E248006820F48030E049086012
:100E20000846006820F4802008601AE06068B0F589
:100E3000A02F0BD1DA48006840F48020D849086020
:100E40000846006840F4803008600AE0D448006832
:100E500020F48030D24908600846006820F48020E1
:100E6000086000BF606888B1FFF7DCFD054606E05A
:100E7000FFF7D8FD401B642801D9032098E7C84834
:100E8000006800F400300028F2D010E0FFF7CAFD3F
:100E9000054606E0FFF7C6FD401B642801D9032084
:100EA00086E7BF48006800F400300028F2D12078BF
:100EB00000F00200022857D1B948406800F00C0049
:100EC00050B1B748406800F00C00082818D1B44869
:100ED000406800F4803098B9B148006800F0020022
:100EE00020B12069012801D0012061E7AC480068E9
:100EF00020F0F800616940EAC100A949086033E0C8
:100F00002069E8B10120A7490860FFF78BFD05467D
:100F100006E0FFF787FD401B022801D9032047E7C1
:100F20009F48006800F002000028F2D09C4800684A
:100F300020F0F800616940EAC1009949086013E0B7
:100F4000002098490860FFF76DFD054606E0FFF7B1
:100F500069FD401B022801D9032029E79048006859
:100F600000F002000028F2D1207800F008000828E4
:100F70002DD1A069B8B101208B490860FFF752FD5F
:100F8000054606E0FFF74EFD401B022801D903206D
:100F90000EE78348406A00F002000028F2D00120EA
:100FA00000F0CAFD13E000207F490860FFF73AFD1A
:100FB000054606E0FFF736FD401B022801D9032055
:100FC000F6E67748406A00F002000028F2D1207867
:100FD00000F00400042873D100277148C06900F0B4
:100FE000805070B900BF6E48C06940F080506C49B5
:100FF000C8610846C06900F08050009000BF00BF83
:1010000001276A48006800F48070B0B9674800683A
:1010100040F4807065490860FFF704FD054606E06E
:10102000FFF700FD401B642801D90320C0E65F489C
:10103000006800F480700028F2D000BFE06801284A
:1010400006D15748006A40F001005549086227E080
:10105000E06858B95248006A20F00100504908621F
:101060000846006A20F00400086219E0E0680528DC
:101070000BD14B48006A40F0040049490862084619
:10108000006A40F0010008620AE04548006A20F06A
:101090000100434908620846006A20F00400086223
:1010A00000BFE068A0B1FFF7BDFC054609E0FFF70F
:1010B000B9FC401B41F28831884202D9032077E60F
:1010C00022E03748006A00F002000028EFD012E06A
:1010D000FFF7A8FC054608E0FFF7A4FC401B41F21F
:1010E0008831884201D9032062E62D48006A00F069
:1010F00002000028F0D1012F05D12948C06920F055
:1011000080502749C86100BFE069C8B324484068DF
:1011100000F00C00082860D0E069022848D10020C7
:1011200020490866FFF77EFC054606E0FFF77AFCDB
:10113000401B022801D903203AE61948006800F054
:1011400000700028F2D1206AB0F5803F07D1144822
:10115000406820F40030A168084311494860D4E990
:10116000080108430E49496821F4741108430C49E9
:10117000486001200B490866FFF754FC054607E06C
:101180003DE0FFF74FFC401B022801D903200FE68A
:101190000348006800F000700028F2D02FE0000043
:1011A00000100240000042428004424200700040B1
:1011B000002014490866FFF735FC054606E0FFF7F6
:1011C00031FC401B022801D90320F1E50E480068DC
:1011D00000F000700028F2D111E0E069012800D190
:1011E000E6E50948466806F48031206A814204D168
:1011F00006F47011606A814201D00120D8E5002018
:10120000D6E50000000042420010024070477047DF
:1012100010B504460CB9012010BD94F83D0028B962
:10122000002084F83C00204600F00CF8022084F8EE
:101230003D00211D206800F02BFE012084F83D00B8
:101240000020E9E7704701460868C06840F00100E7
:101250000B68D8600868806800F00702062A05D08D
:101260000868006840F001000B68186000207047B3
:10127000704710B5044620680069C0F34000D8B13B
:101280002068C068C0F34000B0B16FF00200216870
:101290000861012020772068806900F0030018B100
:1012A0002046FFF7E5FF05E0204600F0ADF82046B8
:1012B00000F0ABF80020207720680069C0F38000C0
:1012C000D8B12068C068C0F38000B0B16FF00400EE
:1012D00021680861022020772068806900F440704E
:1012E00018B12046FFF7C4FF05E0204600F08CF857
:1012F000204600F08AF80020207720680069C0F3BB
:10130000C000D8B12068C068C0F3C000B0B16FF0B1
:10131000080021680861042020772068C06900F077
:10132000030018B12046FFF7A3FF05E0204600F0B8
:101330006BF8204600F069F80020207720680069EB
:10134000C0F30010D8B12068C068C0F30010B0B17D
:101350006FF0100021680861082020772068C069BC
:1013600000F4407018B12046FFF782FF05E02046E8
:1013700000F04AF8204600F048F800202077206866
:10138000006900F0010058B12068C06800F0010059
:1013900030B16FF0010021680861204600F036F896
:1013A00020680069C0F3C01058B12068C068C0F35D
:1013B000C01030B16FF08000216808612046FFF74F
:1013C00025FF20680069C0F3801058B12068C0680C
:1013D000C0F3801030B16FF04000216808612046F2
:1013E00000F02EF820680069C0F3401058B1206862
:1013F000C068C0F3401030B16FF020002168086170
:101400002046FFF704FF10BD7047704710B5044633
:101410000848844201D1FFF70BFB0748844202D100
:10142000012000F051FA0548844202D1022000F068
:101430004BFA10BD60460020A0460020E046002088
:10144000704770472DE9F04704462068056820681A
:10145000C668206847694FF00008C14605F00F08CC
:10146000B8F1000F0AD105F0200038B106F02000D5
:1014700020B1204600F070FDBDE8F087B8F1000F04
:101480006DD007F0010018B906F49070002866D0FE
:1014900005F0010030B106F4807018B1E06B40F047
:1014A0000100E06305F0040030B107F0010018B15D
:1014B000E06B40F00200E06305F0020030B107F09D
:1014C000010018B1E06B40F00400E06305F0080093
:1014D00030B107F0010018B1E06B40F00800E063A4
:1014E000E06B68B305F0200028B106F0200010B1D1
:1014F000204600F031FD20684069C0F38019E06BA0
:1015000000F0080010B9B9F1000F22D0204600F019
:1015100003FD2068406900F04000B0B120684069D8
:1015200020F0400021684861606B50B11748616B42
:101530004863606BFFF778F810B1606B416B8847C8
:101540000CE02046FFF77DFF08E02046FFF779FF1B
:1015500004E02046FFF775FF0020E0638CE705F00C
:10156000800030B106F0800018B1204600F018FE6F
:1015700082E705F0400030B106F0400018B1204687
:1015800000F0DAFC78E700BF76E70000051F0008EE
:1015900010B504460CB9012010BDA06900B100E0EF
:1015A00000BF94F8390028B9002084F8380020469C
:1015B00000F028F8242084F839002068C06820F45E
:1015C00000502168C860204600F01AFD20680069BC
:1015D00020F49040216808612068406920F02A00CA
:1015E000216848612068C06840F400502168C860E4
:1015F0000020E063202084F8390084F83A000020BD
:10160000CAE7000010B586B0044628492068884221
:101610004AD100BF00BF2648806940F00400244939
:1016200088610846806900F00400019000BF00BF97
:1016300000BF00BF00BF0846806940F00400886119
:101640000846806900F00400019000BF00BF00BFA1
:1016500000BF00BF0846806940F4804088610846AA
:10166000806900F48040019000BF00BF00BF4815B2
:10167000029002200390012004900320059002A90B
:101680000C48FFF729F84FF4806002900020039087
:1016900002A90848FFF720F82520FFF7EDF90322FB
:1016A00011462520FFF7F8F906B010BD00380140BB
:1016B000001002400008014010B5034693F83A00BC
:1016C00020282FD101B10AB9012010BD00BF93F825
:1016D0003800012801D10220F7E7012083F8380003
:1016E00000BF99629A85DA850020D863222083F8AA
:1016F0003A0000BF002083F8380000BF1868C068B7
:1017000040F480701C68E0601868406940F0010097
:101710001C6860611868C06840F020001C68E060C8
:101720000020D2E70220D0E710B504462049206807
:1017300088423BD11F48008800F4004088BB1D4808
:10174000008800F4804070B11B4800780A2803D05C
:1017500000201849088024E01648008840F4004022
:10176000144908801DE0144800780D2806D111485E
:10177000008840F480400F49088012E00E4800784D
:101780000C490988C1F30D010C4A505409480088DE
:10179000401C0849088008460088C72801DD002051
:1017A0000880012204490648FFF786FF10BD0000AB
:1017B000003801401C0000201E0000209000002086
:1017C00058010020704700BFFEE7000000B585B05B
:1017D00000BF0F48806940F008000D498861084645
:1017E000806900F00800009000BF00BF0020019059
:1017F00002900390049040F60200019000200290B5
:101800000120039001A90348FEF766FF05B000BD63
:1018100000100240000C014070B500264FF400613A
:101820000D48FFF7E9F8044602210B48FFF7E4F8FA
:1018300005460A480078012801D104B90126074865
:10184000047007480078012801D105B90226044830
:101850000570304670BD0000000C01408C00002077
:101860008D00002000B585B000BF1548806940F0AC
:101870000400134988610846806900F00400009064
:1018800000BF00BF0020019002900390049003204D
:10189000019001200290002003900220049001A9F1
:1018A0000848FEF719FF012211460648FFF7B3F872
:1018B000012202210348FFF7AEF805B000BD000089
:1018C000001002400008014010B5044621460248BD
:1018D000FFF79AF810BD00000008014000BFFEE7C6
:1018E000704770B500240EE00021204600F0F3F8A8
:1018F000002504E0002000F00FF9681CC5B2802D1F
:10190000F8DB601CC4B2082CEEDB70BD00B585B0FE
:1019100000BF1548806940F00800134988610846F7
:10192000806900F00800009000BF00BF0020019017
:101930000290039004904FF44070019011200290A7
:10194000012003900320049001A90848FEF7C4FE7B
:10195000012211020548FFF75EF8012251020348F7
:10196000FFF759F805B000BD00100240000C01401F
:1019700070B50546002419E080202041284008B1B8
:10198000012000E0002002464FF400710E48FFF7EE
:1019900042F8012211020C48FFF73DF800224FF4F3
:1019A00080710948FFF737F8601CC4B2082CE3DBEC
:1019B000012211020448FFF72EF800224FF4807133
:1019C0000148FFF728F870BD000C014010B5012256
:1019D00051020A48FFF71FF8012211020748FFF7DA
:1019E0001AF800224FF400710448FFF714F800229F
:1019F0004FF480710148FFF70EF810BD000C014054
:101A000010B500224FF400710648FFF704F80122D8
:101A100011020448FEF7FFFF012251020148FEF7C0
:101A2000FAFF10BD000C014070B5002406E000254F
:101A300000E06D1CB5F57A7FFBD3641CB4F57A7FAA
:101A4000F5D3FFF763FFAE2000F056F8D52000F085
:101A500053F8802000F050F8A82000F04DF83F2007
:101A600000F04AF8D32000F047F8002000F044F8D6
:101A7000402000F041F8A12000F03EF8C82000F01E
:101A80003BF8DA2000F038F8122000F035F8812019
:101A900000F032F8CF2000F02FF8D92000F02CF819
:101AA000F12000F029F8DB2000F026F8302000F0CB
:101AB00023F8A42000F020F8A62000F01DF88D20C7
:101AC00000F01AF8142000F017F8AF2000F014F816
:101AD000FFF707FF70BD70B505460C4645F0B00036
:101AE00000F00AF8102141EA141000F005F804F0A3
:101AF0000F0000F001F870BD10B50446FFF766FF57
:101B00007820FFF735FF0020FFF732FF2046FFF770
:101B10002FFFFFF775FF10BD10B50446FFF756FF06
:101B20007820FFF725FF4020FFF722FF2046FFF730
:101B30001FFFFFF765FF10BD08B508490968C90810
:101B40004FF47A72B1FBF2F14143009100BF00BF44
:101B500000994A1E00920029F9D108BD000000201A
:101B60001CB5044600F0F6FE0D4802210023802239
:101B7000CDE900100BA10D4801F0C6F80C48012179
:101B800000238022CDE900100AA10C4801F0BCF826
:101B90000B48006800F0ACFF00F0EEFE1CBD00003A
:101BA000080000205461736B31000000FD2900081B
:101BB0000C0000205461736B32000000552A0008AD
:101BC0000400002010B501F0D3F8012801D001F085
:101BD00081F810BD1148006840F001000F4908600D
:101BE000084640680E4908400C49486008460068AD
:101BF0000C490840094908600846006820F4802024
:101C000008600846406820F4FE0048604FF41F005A
:101C10008860C80304490860704700000010024053
:101C20000000FFF8FFFFF6FE08ED00E010B50248E7
:101C3000FFF71FFB10BD00006046002008B500BF85
:101C40001948C06940F001001749C8610846C069D9
:101C500000F00100009000BF00BF88041349086035
:101C6000134800681349B0FBF1F0401E0F4948606B
:101C700000210E48816040F2E731C160002181619E
:101C8000FFF7C6FA08B1FEF77DFC0848FFF7DBFA5C
:101C900008B1FEF777FC00220F211C20FEF7FCFEA6
:101CA0001C20FEF7E9FE08BD00100240604600203F
:101CB0000000002040420F0010B50248FFF7D9FA9B
:101CC00010BD0000A046002038B500BF2148C06903
:101CD00040F002001F49C8610846C06900F00200D8
:101CE000009000BF00BF1C481C4908601C480068E9
:101CF00042F21071B0FBF1F0401E1849486000211B
:101D00001648816041F28731C16000218161FFF78F
:101D10007FFA08B1FEF736FC10484068401C1049B5
:101D20000968B1FBF0F40D48C268234641680DA074
:101D3000FEF79CFA0948FFF786FA08B1FEF722FC85
:101D4000002205211D20FEF7A7FE1D20FEF794FEB0
:101D500038BD00000010024000040040A0460020F2
:101D60000000002054494D3320436F6E66696720A0
:101D70002D205072657363616C65723A20256C7515
:101D80002C20506572696F643A20256C752C2054A4
:101D9000696D657220436C6F636B3A20256C7548E2
:101DA0007A0D0A0010B50248FFF763FA10BD000073
:101DB000E046002038B500BF2148C06940F004006B
:101DC0001F49C8610846C06900F00400009000BFC8
:101DD00000BF1C481C4908601C48006842F2107192
:101DE000B0FBF1F0401E18494860002116488160A0
:101DF00041F28731C16000218161FFF709FA08B122
:101E0000FEF7C0FB10484068401C10490968B1FB50
:101E1000F0F40D48C268234641680DA0FEF726FA8B
:101E20000948FFF710FA08B1FEF7ACFB00220421C5
:101E30001E20FEF731FE1E20FEF71EFE38BD0000FC
:101E40000010024000080040E04600200000002092
:101E500054494D3420436F6E666967202D205072BF
:101E6000657363616C65723A20256C752C20506532
:101E700072696F643A20256C752C2054696D657207
:101E800020436C6F636B3A20256C75487A0D0A000D
:101E900010B50268184B984208D0B0F1804F05D0B9
:101EA000164B984202D0164B984203D122F0700292
:101EB0004B681A43104B984208D0B0F1804F05D0C0
:101EC0000E4B984202D00E4B984203D122F440723E
:101ED000CB681A4322F080034C6943EA0402026093
:101EE0008B68C3620B688362034B984201D10B6914
:101EF00003630123436110BD002C01400004004036
:101F00000008004070B505466C6A0020E085E0845A
:101F10002046FFF796FA70BD0168C96821F49071F8
:101F20000268D1600168496921F0010102685161CC
:101F3000202180F83A10704710B504462068C06828
:101F400020F040002168C860202084F83900204635
:101F5000FFF738FC002010BD70B5044694F83A0035
:101F600022284AD1A068B0F5805F13D1A56A206904
:101F700040B920684068C0F308002880A06A801C2F
:101F8000A06219E020684068C0B22880A06A401CA6
:101F9000A06211E0206938B920684068C1B2A26A25
:101FA000501CA062117007E02068406800F07F01BB
:101FB000A26A501CA0621170E08D401E80B2E085C4
:101FC000C8B92068C06820F020002168C860206877
:101FD000C06820F480702168C8602068406920F0E3
:101FE000010021684861202084F83A002046FFF76C
:101FF0009BFB002070BD0020FCE70220FAE70000F8
:1020000070B504462168096921F44051E268114322
:10201000226811612269A1681143626941EA0205DF
:102020002168C96841F20C62914329432268D1605A
:102030002168496921F44071A26911432268516104
:10204000564A2168914254D1FEF754FE00EBC0017C
:1020500001EB001162689200B1FBF2F100EBC002EB
:1020600002EB001263689B00B2FBF3F26423B2FB45
:10207000F3F202EBC20303EB0212A1EB8201322264
:1020800002EB01116422B1FBF2F101F0F00100EB6F
:10209000C00202EB001263689B00B2FBF3F2642300
:1020A000B2FBF3F201EB021200EBC00101EB0011F5
:1020B00063689B00B1FBF3F100EBC00303EB00137B
:1020C0006668B600B3FBF6F36426B3FBF6F303EBE6
:1020D000C30606EB0313A1EB8301322303EB0111CB
:1020E0006423B1FBF3F101F00F0111442268916008
:1020F00053E0FEF7EFFD00EBC00101EB0011626859
:102100009200B1FBF2F100EBC00202EB0012636837
:102110009B00B2FBF3F26423B2FBF3F202EBC203C7
:1021200003EB0212A1EB8201322202EB01116422C5
:10213000B1FBF2F101F0F00100EBC00202EB001282
:1021400063689B00B2FBF3F26423B2FBF3F201EB92
:10215000021200EBC00101EB001163689B00B1FBB0
:10216000F3F100EBC00303EB00136668B600B3FBAA
:10217000F6F36426B3FBF6F303EBC30606EB031397
:10218000A1EB8301322303EB01116423B1FBF3F1D3
:1021900001F00F0111442268916070BD00380140C8
:1021A000014691F8390021282CD18868B0F5805F6C
:1021B0000FD10A6A1088C0F308000B6858600869DC
:1021C00018B9086A801C086209E0086A401C0862A5
:1021D00005E00B6A581C086218780B685860C88CB8
:1021E000401E80B2C88458B90868C06820F08000DA
:1021F0000B68D8600868C06840F040000B68D86081
:10220000002070470220FCE710B50248FFF71AF9DA
:1022100010BD00005801002000BFFEE70248006822
:10222000C0F30220704700000CED00E010B500285C
:1022300004DB0A07130E054A135406E00A07140EBE
:10224000034A00F00F031B1FD45410BD00E400E04C
:1022500018ED00E000BF70470C4A10604FF47A722E
:1022600000FB02F101220A4B1A804FF0E0221269B2
:1022700042F002024FF0E0231A614A1E5A611A46E8
:10228000126942F001021A6170470000100000203C
:102290001400002000BF054A126802F04002002A24
:1022A000F9D0C2B2014B1B1D1A60704700380140C3
:1022B000FEF7CAFB4FF4E01000F0B2FA4FF4E13041
:1022C00000F0E2FA4820FFF7C7FFFFF7B7FCFFF77F
:1022D000FBFCFFF76FFDFFF779FAFFF7C3FAFFF793
:1022E000A3FBFEF75BF900BFFEE700002DE9F0411C
:1022F00005460E462648076826480068001D00F07F
:10230000DFFA50B92348006890F82C10012088406B
:1023100021490968814320480160681CD8B9D6B1B9
:102320001E4948681B49096888601A49826809681B
:10233000CA6018490968091D826851601549096811
:10234000091D8160154A134909684A6111460968E7
:10235000491C11601AE07C190E4800684460BC42B8
:1023600007D20C480168091D0D48006800F0CCFA3E
:102370000CE008480168091D0A48006800F0C4FA2A
:1023800009480068844201D207480460BDE8F08132
:10239000400000202C000020440000204C020020BF
:1023A00034000020300000205C00002010B50446FE
:1023B00000F0D0FA2F480068401C2E4908602E48D3
:1023C000006840B92C4804600846006801280DD117
:1023D00000F016F90AE02948006838B92648006874
:1023E000C06AE16A884201D8234804602448006832
:1023F000401C2349086094F82C1001208840214992
:10240000096808431F490860E16A01EB81011E4A1F
:1024100002EB81014868A0608268E260211D826849
:1024200051608160E16A01EB8101174A02EB810290
:102430006261E16A01EB8101134A52F82110491CE3
:10244000E26A02EB8202104B43F8221000F094FA89
:102450000A48006868B108480068C06AE16A8842B2
:1024600007D24FF0805009490860BFF34F8FBFF388
:102470006F8F10BD3C0000202C0000204800002081
:1024800058000020440000209801002004ED00E0E6
:1024900010B516E000F05EFA0C48C068C468201D54
:1024A00000F00EFA0A480068401E09490860094811
:1024B0000068401E0749086000F05EFA204600F000
:1024C0000BF8044800680028E4D110BD3802002051
:1024D0003C0000203800002010B50446206B00F0BE
:1024E0005BFA204600F058FA10BD000030B54FF4FA
:1024F0008843154800F007042CB1C01D20F00700E8
:10250000114C041B1B1B0246104C226000240F4D73
:102510006C60D018083820F007000D4C20600024B3
:102520000B4D2D686C600A4D2D682C601146441AC5
:102530004C60074C24680C60064D4C682C60064DBE
:102540004C682C6030BD000060020020700000204C
:1025500078000020800000207C00002000BFFFF7F2
:1025600097FF064800680128F9D94FF080500449C8
:102570000860BFF34F8FBFF36F8FF0E79801002023
:1025800004ED00E02DE9FF5F80460E469146DDE94F
:102590000E7A109CA9F10100216B01EB800B2BF04E
:1025A000070B7EB1002507E0715D04F13400415551
:1025B000705D00B902E06D1C102DF5D300BF002145
:1025C00043200155052F00D30427E762201D00F0AA
:1025D00098F904F1180000F094F92461C7F105009E
:1025E000A061646241465846039A00F007F92060F2
:1025F000BAF1000F01D0CAF80040BDE8FF9F00000B
:1026000010B5002407E004EB84010F4A02EB8100BF
:1026100000F06AF9641C052CF5D30C4800F064F94D
:102620000B4800F061F90B4800F05EF90A4800F031
:102630005BF90A4800F058F9044809490860044861
:102640000849086010BD000098010020FC0100202E
:102650001002002024020020380200204C0200203A
:10266000300000203400002010B50146164800E07C
:10267000006803688B42FBD30246436813448B42D5
:1026800004D143684C682344436001460A464B68C2
:1026900013440468A34211D10C4C03682468A3427C
:1026A00008D04B680468646823444B6003681B6867
:1026B0000B6005E0054B1B680B6001E003680B60D5
:1026C000884200D0016010BD70000020780000201A
:1026D00009480068006808B9012000E0002020B126
:1026E0004FF0FF300549086005E003480068C06806
:1026F0000068024908607047300000205C0000203C
:1027000000BF502080F31188BFF34F8FBFF36F8F4E
:1027100000BF00BFFEE700002DE9F04705464FF07F
:10272000000900F085FA3048006808B9FFF7DEFEBE
:1027300075B105F00700C0F11008C8F1FF30A842DC
:1027400001D2012000E0002008B9454400E0002546
:10275000012000EBE570002841D0002D3FD0234838
:10276000006885423BD8224E3046046801E0264688
:1027700024686068A84202D220680028F7D11A486D
:10278000006884422BD0306800F10809206830606E
:102790006068401B102807D967196068401B786083
:1027A00065603846FFF760FF104960680968081ADD
:1027B0000E490860084600680E490968884203D23D
:1027C0000A4800680B490860606840F0004060609B
:1027D0000020206008480068401C0749086000F09D
:1027E000A5FB4846BDE8F087780000207C0000206B
:1027F000700000208000002084000020001F4FF0A7
:1028000080730360001F21F001030360001F034B6E
:102810000360143802602038704700000127000868
:1028200030B58FB005460124282105A8FDF7C2FD6B
:1028300014216846FDF7BEFD0120059000040690B6
:102840000020079002200C90C1030D910E9505A861
:10285000FEF7AAFA04460CB100BFFEE70F20009075
:1028600002200190002002904FF48060039000202D
:10287000049002216846FEF761F904460CB100BFDE
:10288000FEE70FB030BD000010B5044609480A4904
:1028900008600846446000218160C1600161816177
:1028A0000C214161FEF774FE012204490248FEF743
:1028B00003FF10BD00380140580100201E00002019
:1028C00001460A69D1E901309860D1E901035860F5
:1028D0005068884201D18868506000200861106803
:1028E000401E10601068704700F1080141604FF011
:1028F000FF31816000F10801C160016100210160C8
:10290000704700210161704710B502460B685C1CDE
:102910000CB9106907E002F1080000E04068446863
:1029200024689C42FAD944684C604C68A160886075
:1029300041600A611468641C146010BD42684A60FA
:1029400093688B60936859609160086103685B1CB1
:102950000360704700BF502080F31188BFF34F8F92
:10296000BFF36F8F00BF03480068401C0149086037
:10297000704700006C00002006480068401E0549B2
:1029800008600846006820B9002080F3118800BF65
:1029900000BF70476C00002070B506463546E6B1B2
:1029A000083D2C466068C00FB8B12068A8B96068BF
:1029B00020F00040606000F03BF908496068096859
:1029C0000844064908602046FFF74EFE04480068A8
:1029D000401C0349086000F0A9FA70BD7C0000208B
:1029E0008800002000204FF0E02108618861024843
:1029F00048610720086170473F1901000EE0FEF7AB
:102A000011F8044600F0C4F905462246294604A000
:102A1000FDF72CFC4FF4FA7000F050F8EFE70000DF
:102A20005461736B312069732072756E6E696E67C5
:102A3000202052544F53207469636B3A20256C75E3
:102A4000202048414C207469636B3A20256C750D39
:102A50000A00000000241BE0FEF7DEFE0446012C05
:102A60000CD10CA0FDF702FC00BF502080F31188B0
:102A7000BFF34F8FBFF36F8F00BF09E0022C07D168
:102A800009A0FDF7F3FB002080F3118800BF00BF11
:102A9000E2E700004B657920312050726573736561
:102AA00064210D0A000000004B657920322050722D
:102AB0006573736564210D0A0000000070B504465B
:102AC000002544B100F0B4F800212046FFF70EFCC9
:102AD00000F02CFA05463DB94FF0805003490860DC
:102AE000BFF34F8FBFF36F8F70BD000004ED00E0A8
:102AF00070B50546FFF72EFF15B92948006800E0BC
:102B000028460446201DFFF7DBFE78B9E06A00EB9B
:102B10008000244951F8200040B994F82C1001207D
:102B200088402149096881431F480160A06A18B1A3
:102B300004F11800FFF7C4FE1C480068401C1B4944
:102B4000086017480068844209D1211D1848FFF722
:102B5000F5FE18480068401C1649086006E0164853
:102B60000068401E14490860FFF7B2FDFFF704FF3C
:102B70000B480068844202D02046FFF7ADFC0F48A6
:102B8000006858B106480068844207D14FF0805071
:102B90000B490860BFF34F8FBFF36F8F70BD00000C
:102BA0002C00002098010020440000205800002044
:102BB00038020020380000203C000020480000209F
:102BC00004ED00E01CB5124800210B468022CDE93F
:102BD000001010A1114800F097F80446012C14D100
:102BE00000BF502080F31188BFF34F8FBFF36F8F6A
:102BF00000BF4FF0FF300A49086001200949086012
:102C000000200949086000F04BF8084800681CBD26
:102C10006000002049444C45000000005D2500088C
:102C20005C000020480000204000002064000020DC
:102C300002480068401C0149086070476800002095
:102C40001248006818B10120114908601DE00020F9
:102C50000F4908600F480068B0FA80F0C0F11F010A
:102C600001EB81020C4B03EB820042685268426028
:102C700000F108024368934202D142685268426000
:102C80004268D268054B1A6000BF70476800002098
:102C90005000002044000020980100202C0000205B
:102CA00010B50A48006840F47000084908600846FA
:102CB000006840F070400860FFF794FE002004496F
:102CC0000860FDF777FA002010BD000020ED00E05D
:102CD0006C00002010B500BF502080F31188BFF3B6
:102CE0004F8FBFF36F8F00BF00F058F818B14FF04F
:102CF00080500449086000BF002080F3118800BFA5
:102D000010BD000004ED00E02DE9FF4F85B08046C6
:102D100089461746DDE912ABB800FFF7FDFC064611
:102D200076B14C20FFF7F8FC04462CB14C2120462C
:102D3000FDF740FB266304E03046FFF72DFE00E080
:102D400000247CB10020CDE900ABCDE902403A4639
:102D500049464046089BFFF715FC2046FFF726FB37
:102D6000012501E04FF0FF35284609B0BDE8F08F9E
:102D70000549096809B9012005E00449096809B94C
:102D8000022000E00020704748000020680000207A
:102D90000149086870470000400000202DE9F0411B
:102DA00000275748006800287ED156480068451C17
:102DB000544805608DB95448D0F8008053480068E5
:102DC000514908605148C0F8008051480068401CD3
:102DD0004F490860FFF77CFC00BF4E480068854201
:102DE00076D300BF48480068006808B9012000E0B9
:102DF000002020B14FF0FF304649086067E04248AC
:102E00000068C068C4686668B54202D2414806607E
:102E10005DE06069D4E902128A60D4E902214A6067
:102E2000211D42688A4201D1E1684160002262614D
:102E30000168491E0160A06A98B1A06AD4E907122E
:102E40008A60D4E907214A6004F1180142688A4285
:102E500001D1216A41600022A2620168491E01601D
:102E600000BF94F82C10012088402B4909680843C2
:102E700029490860E16A01EB8101284A02EB8101DE
:102E80004868A0608268E260211D826851608160AC
:102E9000E16A01EB8101214A02EB81026261E16A90
:102EA00001EB81011D4A00E022E052F82110491C8B
:102EB000E26A02EB8202194B43F822101849E06AD9
:102EC0000968C96A88428DD901278BE700E000BFF5
:102ED00013480068C06A00EB8000104951F82000D8
:102EE000012800D901270F48006800B1012704E03C
:102EF0000D480068401C0C4908603846BDE8F08168
:102F00006800002040000020300000203400002035
:102F1000540000205C0000204400002098010020A4
:102F20002C000020500000204C00002070B5002430
:102F30000026FFF70FFD4B480068401E4949086016
:102F40000846006800287DD147480068002879D0ED
:102F50005BE04648C068C468A06AD4E907128A608A
:102F6000D4E907214A6004F1180142688A4201D17C
:102F7000216A41600022A2620168491E0160606905
:102F8000D4E902128A60D4E902214A60211D426814
:102F90008A4201D1E1684160002262610168491EF4
:102FA000016094F82C1001208840314909680843D9
:102FB0002F490860E16A01EB81012E4A02EB810191
:102FC0004868A0608268E260211D8268516081606B
:102FD000E16A01EB8101274A02EB81026261E16A49
:102FE00001EB8101234A52F82110491CE26A02EBED
:102FF0008202204B43F822101F49E06A0968C96A1F
:10300000884202D301201D4908601848006808B9A9
:10301000012000E0002000289BD00CB1FFF758FBF6
:103020001748056865B100BFFFF7B8FE10B1012071
:10303000124908606D1E002DF6D10020104908606D
:103040000E4800E009E0006838B1012630070D495C
:103050000860BFF34F8FBFF36F8FFFF78DFC3046D3
:1030600070BD0000680000203C0000202402002009
:1030700044000020980100202C0000205000002077
:103080004C00002004ED00E0000000000000000003
:1030900001020304060708090000000001020304FE
:1030A000C030000800000020900000002801000847
:1030B0005031000890000020F04C0000440100084E
:1030C0000024F400000000000000000000000000E8
:1030D00000000000000000000000000000000000F0
:1030E00000000000100000000100000000000000CF
:1030F00000000000000000000000000000000000D0
:1031000000000000000000000000000000000000BF
:1031100000000000000000000000000000000000AF
:10312000000000000400000000000000AAAAAAAAF3
:10313000000000000000000000000000000000008F
:10314000000000000000000000000000010100007D
:04000005080000ED02
:00000001FF
