:020000040800F2
:1000000070550120F1020008452B0008BB290008AB
:10001000412B00084509000899360008000000003F
:100020000000000000000000000000003102000895
:10003000830A0008000000008D0200085D2D000802
:100040000B0300080B0300080B0300080B03000858
:100050000B0300080B0300080B0300080B03000848
:100060000B0300080B0300080B0300080B03000838
:100070000B0300080B0300080B0300080B03000828
:100080000B0300080B0300080B0300080B03000818
:100090000B0300080B0300080B0300080B03000808
:1000A0000B0300080B0300080B0300080B030008F8
:1000B0000B0300080B0300080B0300080B030008E8
:1000C0000B0300080B0300080B0300080B030008D8
:1000D0000B030008893600080B0300080B03000817
:1000E0000B0300080B0300080B0300080B030008B8
:1000F0000B0300080B0300080B0300080B030008A8
:100100000B0300080B0300080B0300080B03000897
:100110000B0300080B0300080B030008592E00080E
:100120000B0300080B0300084909000859090008DF
:100130000B0300080B0300080B0300080B03000867
:100140000B0300080B0300080B0300080B03000857
:100150000B0300080B030008690900080B030008E3
:100160000B0300080B0300080B0300080B03000837
:100170000B0300080B0300080B030008000000003D
:100180000B0300080B03000800F002F800F041F830
:100190000AA090E8000C82448344AAF10107DA45E2
:1001A00001D100F036F8AFF2090EBAE80F0013F0F3
:1001B000010F18BFFB1A43F00103184778650000D0
:1001C00098650000103A24BF78C878C1FAD8520761
:1001D00024BF30C830C144BF04680C6070470000C1
:1001E0000023002400250026103A28BF78C1FBD840
:1001F000520728BF30C148BF0B607047752900F017
:100200001B81002070471FB506F076FA1FBD10B5A0
:1002100010BD00F069FB1146FFF7F5FF03F008FC85
:1002200000F087FB03B4FFF7F2FF03BC03F059FAB9
:100230002C4B19680868B0E8F04F80F30988BFF3C9
:100240006F8F4FF0000080F31188704700000000AE
:1002500008480068006880F308884FF0000080F3C9
:10026000148862B661B6BFF34F8FBFF36F8F00DFA4
:1002700000BF00BF08ED00E0DFF80C00016841F4AA
:1002800070010160704700BF88ED00E0EFF3098066
:10029000BFF36F8F134B1A681EF0100F08BF20EDCD
:1002A000108A20E9F04F106009B44FF0500080F33D
:1002B0001188BFF34F8FBFF36F8F05F09BF84FF09E
:1002C000000080F3118809BC19680868B0E8F04F95
:1002D0001EF0100F08BFB0EC108A80F30988BFF33E
:1002E0006F8F70473C000020EFF3058070470000DF
:1002F0000948804709480047FEE7FEE7FEE7FEE7BA
:10030000FEE7FEE7FEE7FEE7FEE7FEE704480549F5
:10031000054A064B70470000452E00088901000879
:10032000704F012070550120705101207051012043
:10033000704753EA020C00F069802DE9F04B4FF052
:100340000006002B1FBFB3FA83F503FA05F424FA65
:1003500005F65E4012BF1643B2FA82F502FA05F4C2
:10036000C5F120051EBF22FA05FC44EA0C04203525
:1003700056EA044C4FEA144418BF641C4FF00008BE
:100380004FF00009904271EB030C39D3002919BFDB
:10039000B1FA81F701FA07F6B0FA80F700FA07F62A
:1003A000C7F120071EBF20FA07FC46EA0C062037DB
:1003B000B6FBF4FCA7EB0507103F07F01F0BCBF1D2
:1003C00020060CFA0BFB2CFA06F644BFB3460026B7
:1003D000202FA4BF5E464FF0000B5BEA060C08BF5F
:1003E0004FF0010B19EB0B09ABFB027C48EB060845
:1003F000C01B06FB02CC0BFB03CC71EB0C01C1E76D
:100400000B46024641464846BDE8F08B13B54FF017
:1004100000004FF00001AFF30080BDE81C407047C2
:100420000FB4044910B503AA029800F043FA10BCB7
:100430005DF814FB040000202DE9F041064600247D
:1004400010687529314616A510D0AFF3008000283A
:1004500002DA404213A507E031688A0701D512A5E8
:1004600002E0490704D511A5012401E0AFF30080A3
:1004700000210A2206F1240709E0B0FBF2FCB0FBE0
:10048000F2F302FB1C00303078541846491C002857
:10049000F3D123462A463046BDE8F04100F098B932
:1004A000000000002D0000002B00000020000000D4
:1004B0002DE9F05F894604464FF0000ADFF874B179
:1004C000FB44C0F820A02046E1688847002874D08B
:1004D000252806D0D4E901219047206A401C2062DB
:1004E000F1E700265F462046E16888472028054658
:1004F00007DB312D05D2781910F8200C08B106431E
:10050000F1E7B00701D526F00406C4F81CA00027C7
:10051000C4F818A02A2D09D0284603F0DBF838B318
:1005200004EB8708303DC8F8185019E059F8041B4F
:10053000204604EB87029161E1688847012F054658
:1005400018D1E069002820DA26F020061DE0D8F84E
:10055000180000EB800005EB40003038C8F81800A8
:100560002046E1688847054603F0B4F80028EED13C
:10057000012F0AD02E2D08D12046E16888477F1C24
:100580000546022F46F02006C4DBA069002803DAE6
:10059000404246F00106A061F00701D026F01006A7
:1005A0006C2D0BD0682D09D04C2D39D06A2D35D04B
:1005B000742D35D07A2D33D016E038E0E1682F461F
:1005C00020468847B842054609D16C2F26D04FF403
:1005D0008060E168064320468847054604E06C2FAA
:1005E0001AD04FF4807006430DB3A5F141001928CD
:1005F00002D8203546F400664A4629462046266041
:100600004E46FFF7FBFD80B101280BD0F61D26F00A
:10061000070000F1080956E74020E4E78020D8E70A
:100620000020D6E706F104094DE7284652E7206A84
:10063000BDE8F09F5E620000032A40F2308010F0B7
:10064000030C00F0158011F8013BBCF1020F62446D
:1006500098BF11F801CB00F8013B38BF11F8013BFE
:10066000A2F1040298BF00F801CB38BF00F8013BAB
:1006700011F0030300F02580083AC0F0088051F81B
:10068000043B083A51F804CBA0E80810F5E7121D26
:100690005CBF51F8043B40F8043BAFF30080D20745
:1006A00024BF11F8013B11F801CB48BF11F8012B11
:1006B00024BF00F8013B00F801CB48BF00F8012B34
:1006C000704710B5203AC0F00B80B1E81850203ABE
:1006D000A0E81850B1E81850A0E81850BFF4F5AFE2
:1006E0005FEA027C24BFB1E81850A0E8185044BF6C
:1006F00018C918C0BDE810405FEA827C24BF51F8D9
:10070000043B40F8043B08BF7047D20728BF31F8CC
:10071000023B48BF11F8012B28BF20F8023B48BF1D
:1007200000F8012B704702F0FF0343EA032242EA7C
:10073000024200F002B84FF000020429C0F012801B
:1007400010F0030C00F01B80CCF1040CBCF1020F84
:1007500018BF00F8012BA8BF20F8022BA1EB0C0159
:1007600000F00DB85FEAC17C24BF00F8012B00F84F
:10077000012B48BF00F8012B70474FF0000200B575
:10078000134694469646203922BFA0E80C50A0E8B4
:100790000C50B1F12001BFF4F7AF090728BFA0E862
:1007A0000C5048BF0CC05DF804EB890028BF40F82E
:1007B000042B08BF704748BF20F8022B11F0804F70
:1007C00018BF00F8012B704770477047704770479B
:1007D0002DE9F0470D4699469246044600F124085B
:1007E0000168880604D5E06921F01001216000E06D
:1007F0000120A84201DD471B00E00027A1697A190A
:1008000002EB0900081AA0612078C00602D4204635
:10081000AFF30080002608E0D4E901211AF80600B1
:100820009047206A401C761C20624E45F4DB2078FD
:10083000C0060AD52046AFF3008006E0D4E90121C6
:1008400030209047206A401C2062381EA7F1010723
:10085000F4DC07E0D4E9012118F805009047206A8C
:10086000401C2062281EA5F10105F3DC2046AFF3F1
:1008700000802078000602D50220BDE8F087012024
:10088000FBE7000001694A1C02610878704700B567
:100890008FB0CDE901310021059105497944CDE9B9
:1008A000031011466846FFF703FE0FB000BD0000BD
:1008B000E5FFFFFF074B70B50D467B44FFF7E7FFF1
:1008C0000446284600F008F810B14FF0FF3070BD24
:1008D000204670BDF32E0000007B00F080007047C2
:1008E000004870470C4F01207546FFF7F9FFAE46F0
:1008F00005006946534620F00700854618B020B52C
:10090000FFF704FDBDE820404FF000064FF0000760
:100910004FF000084FF0000B21F00701AC46ACE8A7
:10092000C009ACE8C009ACE8C009ACE8C0098D4614
:10093000704710B50446AFF300802046BDE8104074
:10094000FFF770BC00BFFEE710B5024800F004F9E5
:1009500010BD00001008002010B5024800F0FCF89F
:1009600010BD00005418002010B5024800F0F4F843
:1009700010BD0000700800200146087810381823C8
:10098000B0FBF3F20848805CC865032A05D9086803
:100990006FF30900001D886503E008686FF3090024
:1009A0008865886D704700001A67000801460020BE
:1009B0008A6A8B69CBB932B1012A0DD0022A03D0E1
:1009C000032A10D10EE000BFCB6A03F08073B3F1AD
:1009D000807F00D1012007E0CB6AB3F1C07F00D156
:1009E000012001E000E000BF34E08B69B3F5005F57
:1009F0001AD132B1012A07D0022A03D0032A11D119
:100A00000AE000BF01200EE0CB6A03F08073B3F16F
:100A1000807F00D1012006E0CB6AB3F1C07F00D116
:100A2000012000E000BF15E032B1012A05D0022A02
:100A300004D0032A0CD103E000BF00BF012008E06E
:100A4000CB6A03F08073B3F1807F00D1012000E016
:100A500000BF00BF704730B50468246824F48024C8
:100A600005682C60046863608468402C04D10468C5
:100A7000A2600468E16003E00468A1600468E260C9
:100A800030BD704770B50446A56D00F05FFB0646AB
:100A900094F83500022808D08020606500BF00204F
:100AA00084F8340000BF012070BD2068006820F089
:100AB0001600216808602068406920F080002168E5
:100AC0004861206C08B9A06C28B12068006820F04B
:100AD0000800216808602068006820F00100216893
:100AE000086010E000F032FB801B05280BD92020A5
:100AF0006065032084F8350000BF002084F83400CE
:100B000000BF0320D0E72068006800F00100002843
:100B1000E8D194F85C103F208840A860012084F858
:100B2000350000BF002084F8340000BF00BFBBE7E1
:100B3000014691F83500022803D080204865012045
:100B40007047052081F835000868006820F0010032
:100B50000A6810600020F3E7F8B504460020009012
:100B60008C4800684FF41651B0FBF1F7A56D2E6864
:100B700094F85C1008208840304098B120680068E4
:100B800000F0040070B12068006820F004002168C3
:100B9000086094F85C1008208840A860606D40F000
:100BA0000100606594F85C1001208840304068B115
:100BB0002068406900F0800040B194F85C1001208A
:100BC0008840A860606D40F00200606594F85C1099
:100BD00004208840304068B12068006800F00200BE
:100BE00040B194F85C1004208840A860606D40F02B
:100BF0000400606594F85C1010208840304078B3A1
:100C00002068006800F0080050B394F85C101020D1
:100C10008840A8602068006800F4802080B12068C7
:100C2000006800F4002028B9206CC8B12046216C6F
:100C3000884715E0A06C98B12046A16C88470FE06A
:100C40002068006800F4807028B92068006820F0EF
:100C5000080021680860206C10B12046216C88478C
:100C600094F85C10202088403040002865D020682F
:100C7000006800F0100000285FD094F85C1020207D
:100C80008840A86094F83500052828D120680068BD
:100C900020F01600216808602068406920F080007C
:100CA00021684861206C08B9A06C28B120680068F0
:100CB00020F008002168086094F85C103F2088400C
:100CC000A860012084F8350000BF002084F83400BB
:100CD00000BF206D10B12046216D8847F8BD206807
:100CE000006800F4802080B12068006800F40020D3
:100CF00028B9606C10B12046616C88471DE0E06B3C
:100D0000D8B12046E16B884717E02068006800F4FE
:100D1000807068B92068006820F0100021680860C1
:100D2000012084F8350000BF002084F8340000BFA3
:100D3000E06B10B12046E16B8847606D38B3606DA1
:100D400000F00100F0B1052084F83500206800684B
:100D500020F001002168086000BF0098401C00904E
:100D6000B84200D905E02068006800F001000028C2
:100D7000F3D100BF012084F8350000BF002084F8C3
:100D8000340000BFE06C10B12046E16C884700BF22
:100D9000A4E70000000000202DE9F04104460025F2
:100DA00000F0D4F9074614B90120BDE8F081606A6B
:100DB00000B100BF022084F8350000BF002084F895
:100DC000340000BF2068006820F00100216808603E
:100DD0000AE000F0BBF9C01B052805D9202060659A
:100DE000032084F83500E0E72068006800F0010087
:100DF0000028EED12068056821480540D4E90101AA
:100E00000843E16808432169084361690843A1690F
:100E10000843E1690843216A08430543606A0428DE
:100E200003D1D4E90B01084305432068056020681D
:100E3000456925F00705606A0543606A04280DD1FD
:100E4000A06A0543E06A48B12046FFF7AFFD28B12C
:100E500040206065012084F83500A6E720684561E0
:100E60002046FFF789FD064694F85C103F20884035
:100E7000B06000206065012084F83500002094E710
:100E80003F8010F02DE9F04704460D4616461F46F8
:100E90004FF00008D4F8589000BF94F834000128AF
:100EA00002D10220BDE8F087012084F8340000BFA1
:100EB00094F83500012825D1022084F8350000205F
:100EC00060653B46324629462046FFF7C4FD94F84C
:100ED0005C103F208840C9F808002068006840F096
:100EE000160021680860206C28B12068006840F076
:100EF0000800216808602068006840F0010021684F
:100F0000086006E000BF002084F8340000BF4FF006
:100F100002084046C6E7000070B5044600F016F926
:100F200006462546681C10B104480078054400BFF9
:100F300000F00CF9801BA842FAD370BD34000020E9
:100F4000F8B502460B460025002400200021D6E01B
:100F5000012606FA01F51E6806EA0504AC4274D1C2
:100F60001E7906F00306012E04D01E7906F0030652
:100F7000022E13D190684F000326BE40B0434F00AD
:100F8000DE68BE4030439060506801268E40B0431A
:100F90001E79C6F300168E40304350601E7906F06D
:100FA0000306032E09D0D0684F000326BE40B0438D
:100FB0004F009E68BE403043D0601E7906F00306A5
:100FC000022E13D1CF0802F1200656F827004E0753
:100FD000F70E0F26BE40B0434F07FF0E1E69BE40FE
:100FE0003043CF0802F1200646F8270010684F0072
:100FF0000326BE40B0431E7906F003064F00BE40F4
:10100000304310605E6806F44036002E76D000BF94
:10101000002600963C4E366846F480463A4F3E60C5
:101020003E46366806F48046009600BF00BF374E45
:101030008F0856F827008E07370F0F26BE40B043A3
:10104000334EB24202D1002624E057E0314EB24284
:1010500001D101261EE0304EB24201D1022619E034
:101060002E4EB24201D1032614E02D4EB24201D1E0
:1010700004260FE02B4EB24201D105260AE02A4E8B
:10108000B24201D1062605E0284EB24201D1072620
:1010900000E008268F073F0FBE4030431B4E8F08ED
:1010A00046F82700224E3068A0435E6806F480169A
:1010B00006B120431E4E3060361D3068A0435E6886
:1010C00006F4001606B12043194E361D3060184E46
:1010D000361F3068A0435E6806F4003606B1204330
:1010E000134E361F3060361F3068A0435E6806F42A
:1010F000803606B120430E4E083E3060491C102950
:10110000FFF426AFF8BD0000443802400838014023
:10111000000002400004024000080240000C0240AF
:10112000001002400014024000180240001C02405F
:10113000083C01400AB1816101E00B048361704702
:1011400001480068000C7047002004E00148006876
:10115000704700002C00002003480068034909780C
:1011600008440149086070472C000020340000202A
:1011700010B50A48006840F4007008490860084645
:10118000006840F480600860032000F0B5F80F208C
:1011900000F006F800F05CF8002010BD003C0240B2
:1011A0002DE9F04188B00446102C03D3012008B08B
:1011B000BDE8F08100BF002001902048006840F0A9
:1011C00020001E4908600846006800F020000190D9
:1011D00000BF00BF02A903A800F064F9069F1FB971
:1011E00000F088F9054602E000F084F94500144853
:1011F000B5FBF0F0A0F1010812481349086040F275
:10120000E7311148C160C0F80480002101618160AC
:10121000816100F039FE06466EB900222146372072
:1012200000F02BF8372000F014F808480460064856
:1012300000F05EFE06463046B9E700004038024046
:1012400040420F00001400408007002030000020C2
:1012500070470146084600280DDB00BF00BF00F0C4
:101260001F0301229A4043099B0003F1E023C3F8C6
:10127000002100BF00BF00BF70472DE9F05F80462E
:101280000D461646002702F009FA074639462A4657
:10129000334601F00700C0F1070ABAF1040F02D982
:1012A0004FF0040A01E0C0F1070AD14600F1040A38
:1012B000BAF1070F02D24FF0000A01E0A0F1030AD1
:1012C000D4464FF0010A0AFA09FAAAF1010A0AEA19
:1012D000020A0AFA0CFA4FF0010B0BFA0CFBABF105
:1012E000010B0BEA030B4AEA0B042146404602F0CD
:1012F000DDF9BDE8F09F000000BF00F00702064BDB
:1013000019684FF6FF031940044B0B4343EA0221CF
:10131000014B196000BF70470CED00E00000FA05BA
:1013200070B504460D460CB9012070BD58480068E0
:1013300000F00700A84209D255490D700846006820
:1013400000F00700A84201D00120EEE7207800F06D
:10135000020002281DD1207800F00400042805D1E5
:101360004C48006840F4E0504A490860207800F09A
:101370000800082805D14748006840F46040454906
:1013800008604448006820F0F000A1680843414923
:101390000860207800F00100A8B36068012807D138
:1013A0003C4808380068C0F34040B8B90120BCE7A9
:1013B0006068022802D06068032807D135480838E1
:1013C0000068C0F3406048B90120AEE731480838F2
:1013D0000068C0F3400008B90120A6E72D48006866
:1013E00020F00300616808432A490860FFF7AEFE59
:1013F000064609E0FFF7AAFE801B41F288318842C9
:1014000002D9032091E707E02248006800F00C00B1
:101410006168B0EB810FEDD11D48006800F0070056
:10142000A84209D91A490D700846006800F0070063
:10143000A84201D0012078E7207800F004000428B9
:1014400007D11448006820F4E050E16808431149CE
:101450000860207800F00800082808D10D480068CE
:1014600020F46040216940EAC1000A49086000F0A8
:1014700061F808490968C1F30311074A515CC84083
:101480000649086006480068FFF78AFE00204CE71E
:10149000003C0240083802400267000800000020BB
:1014A000300000200F2202600D4A126802F0030291
:1014B00042600B4A126802F0F0028260084A126829
:1014C00002F4E052C260064A126802F46042D20896
:1014D0000261044A126802F007020A6070470000C5
:1014E00008380240003C0240014800687047000094
:1014F0000000002000B5FFF7F7FF04490968C1F3B9
:101500008221034A515CC84000BD000008380240F7
:101510001267000800B5FFF7E7FF04490968C1F347
:101520004231034A515CC84000BD00000838024007
:10153000126700082DE9F047002400250026A14687
:101540002548006800F00C0020B1042805D00828C8
:101550003AD105E0DFF8849039E0DFF8849036E096
:101560001D48001F006800F03F041B48001F006872
:1015700000F4800078B11A481749091F0968C1F3BF
:101580008811A0FB01700146224600233846FEF771
:10159000D0FE05460EE011480F49091F0968C1F346
:1015A0008811A0FB01700146224600233846FEF751
:1015B000C0FE05460848001F0068C0F30140401CFB
:1015C0004600B5FBF6F902E0DFF8109000BF00BF5F
:1015D0004846BDE8F0870000083802400024F400C7
:1015E00000127A00F8B504460CB90120F8BD207845
:1015F00000F00100002874D0F948006800F00C00E9
:1016000004280DD0F648006800F00C00082813D11B
:10161000F348001F006800F48000B0F5800F0BD184
:10162000EF4808380068C0F34040002859D060688F
:10163000002856D10120D9E700BF6068B0F5803F8F
:1016400008D1E7480838006840F48030E449083998
:1016500008601EE06068B0F5A02F0DD1E0480838A2
:10166000006840F48020DE490839086008460068B8
:1016700040F4803008600CE0D9480838006820F455
:101680008030D749083908600846006820F4802077
:10169000086000BF606890B1FFF758FD054606E09E
:1016A000FFF754FD401B642801D903209EE7CC4876
:1016B00008380068C0F340400028F1D011E0FFF77F
:1016C00045FD054606E0FFF741FD401B642801D9B2
:1016D00003208BE7C24808380068C0F34040002868
:1016E000F1D1207800F0020002285FD1BC480068E8
:1016F00000F00C0058B1BA48006800F00C0008284F
:101700001CD1B748001F006800F48000B0B9B4488D
:1017100008380068C0F3400020B1E068012801D01B
:10172000012063E7AE480838006820F0F80021691E
:1017300040EAC100AA490839086037E0E06800B310
:101740000120A8490860FFF701FD054606E0FFF704
:10175000FDFC401B022801D9032047E7A0480838B8
:101760000068C0F340000028F1D09D4808380068A8
:1017700020F0F800216940EAC10099490839086061
:1017800014E0002097490860FFF7E0FC054606E0FA
:10179000FFF7DCFC401B022801D9032026E7904814
:1017A00008380068C0F340000028F1D1207800F02C
:1017B000080008282CD16069A8B101208A49086076
:1017C000FFF7C4FC054606E0FFF7C0FC401B0228FB
:1017D00001D903200AE782486C300068C0F340005A
:1017E0000028F1D014E000207F490860FFF7AEFC2C
:1017F000054606E0FFF7AAFC401B022801D903209A
:10180000F4E677486C300068C0F340000028F1D15E
:10181000207800F00400042870D100277048383088
:10182000006800F0805090B900BF002000906C4824
:101830003830006840F08050694938310860084607
:10184000006800F08050009000BF00BF012767488B
:10185000006800F48070B0B96448006840F480709B
:1018600062490860FFF772FC054606E0FFF76EFC70
:10187000401B022801D90320B8E65C48006800F448
:1018800080700028F2D000BFA068012808D1544819
:101890006830006840F001005149683108601DE07F
:1018A000A06805280DD14E486830006840F004005B
:1018B0004B49683108600846006840F00100086044
:1018C0000CE047486830006820F001004449683166
:1018D00008600846006820F00400086000BFA068A7
:1018E000A8B1FFF733FC054609E0FFF72FFC401BCA
:1018F00041F28831884202D9032077E626E0384851
:1019000068300068C0F340000028EED013E0FFF715
:101910001DFC054608E0FFF719FC401B41F2883129
:10192000884201D9032061E62D4868300068C0F381
:1019300040000028EFD1012F07D129483830006836
:1019400020F0805026493831086000BFA069002887
:1019500045D02348006800F00C0008285DD0A0693D
:10196000022845D100201F490866FFF7EFFB054616
:1019700006E0FFF7EBFB401B022801D9032035E608
:10198000174808380068C0F340600028F1D1D4E956
:1019900007010843616A40EA81110122A06AC2EB93
:1019A000500041EA00412C20005D41EA00600C49F2
:1019B000091F086001200B490866FFF7C7FB0546B1
:1019C00006E0FFF7C3FB401B022801D903200DE608
:1019D000034808380068C0F340600028F1D049E0AF
:1019E0000838024000004742800E47420070004025
:1019F000002021490866FFF7A9FB054606E0FFF72E
:101A0000A5FB401B022801D90320EFE51B48006815
:101A1000C0F340600028F2D12CE0A069012800D179
:101A2000E4E51648001D0668A069012820D006F4E8
:101A30008001E06981421BD106F03F01206A8142AA
:101A400016D147F6C0703040616AB0EB811F0FD1EC
:101A500006F440310122A06AC2EB5000B1EB004F06
:101A600006D106F070612C20005DB1EB006F01D053
:101A70000120BBE50020B9E50000474200380240E4
:101A80007047014691F85100704710B504460CB9F3
:101A9000012010BD606A38B96068B0F5827F00D15E
:101AA00005E00021E16102E0002121616161A06A9D
:101AB000B0F5005F00D100BF94F8510028B90020B4
:101AC00084F85000204600F04FF8022084F85100BE
:101AD0002068006820F0400021680860A08800F4B9
:101AE0008270218901F404410843A18901F4006155
:101AF0000843217C01F002010843217D01F001012E
:101B00000843218B01F400710843217F01F0380163
:101B100008432021095D01F080010843218D01F473
:101B200000510843216808600421A06901EA1040BF
:101B300094F8241001F01001084321684860A06A5D
:101B4000B0F5005F03D1A08D80B2216808612068E4
:101B5000C06920F400602168C86100206065012030
:101B600084F85100002094E770472DE9F8430446BB
:101B70000F4616461D46FFF7E9FA8046B14694F82F
:101B80005100012802D00220BDE8F88307B10EB948
:101B90000120F9E700BF94F85000012801D102208C
:101BA000F2E7012084F8500000BF032084F85100C0
:101BB000002060652763A686E686A063A087E0878D
:101BC00060642064A068B0F5004F0BD12068006805
:101BD00020F04000216808602068006840F48040E0
:101BE00021680860A06AB0F5005F0DD100BF2068D1
:101BF000006820F40050216808602068006840F404
:101C000000502168086000BF2068006800F04000B4
:101C1000402805D02068006840F040002168086036
:101C2000E068B0F5006F37D1606810B1B9F1010F0D
:101C300009D1206B00882168C860206B801C20635C
:101C4000E08E401EE08623E02068806800F00200FD
:101C500002280AD1206B00882168C860206B801C94
:101C60002063E08E401EE08612E0FFF76FFAA0EBE3
:101C70000800A84201D3681C00B94DB9012084F8BE
:101C8000510000BF002084F8500000BF03207BE714
:101C9000E08E0028D8D136E0606810B1B9F1010FAC
:101CA00009D1206B007821680873206B401C2063E9
:101CB000E08E401EE08623E02068806800F002008D
:101CC00002280AD1206B007821680873206B401C21
:101CD0002063E08E401EE08612E0FFF737FAA0EBAB
:101CE0000800A84201D3681C00B94DB9012084F84E
:101CF000510000BF002084F8500000BF032043E7DC
:101D0000E08E0028D8D1A06AB0F5005F05D1206828
:101D1000006840F480502168086042462946204609
:101D200000F06CFF08B120206065A06850B900BFCA
:101D3000002000902068C0680090206880680090B3
:101D400000BF00BF012084F8510000BF002084F8CC
:101D5000500000BF606D08B1012015E7002013E7B7
:101D60002DE9F04104460E46154694F8510001282D
:101D700002D00220BDE8F08106B10DB90120F9E7DB
:101D800000BF94F85000012801D10220F2E70120A1
:101D900084F8500000BF032084F8510000206065E3
:101DA0002663A586E586A06360642064A087E0873B
:101DB000A068B0F5004F0BD12068006820F040000B
:101DC000216808602068006840F48040216808604D
:101DD000A06AB0F5005F0DD100BF2068006820F454
:101DE0000050216808602068006840F400502168B5
:101DF000086000BF1F48A16C08641F48A16CC8633D
:101E00001E48A16CC8640020A16C0865E38E276899
:101E100007F10C02216BA06CFFF734F850B1606D34
:101E200040F01000606500BF002084F8500000BF43
:101E300001209FE72068006800F04000402805D09E
:101E40002068006840F040002168086000BF002062
:101E500084F8500000BF2068406840F020002168EE
:101E600048602068406840F0020021684860002017
:101E700080E700006F2B00087D2B0008472B00082F
:101E8000704770477047704710B504460CB9012081
:101E900010BD94F83D0028B9002084F83C0020468D
:101EA00000F025F8022084F83D00211D206800F094
:101EB000DBFF012084F8460000BF84F83E000121CA
:101EC0003F200155402001554120015500BF00BF72
:101ED000012084F84200432001554420015545204B
:101EE000015500BF012084F83D000020D0E7704775
:101EF000014691F83D00012801D0012070470220E1
:101F000081F83D000868C06840F001000B68D860A7
:101F10001A4B086898421BD00868B0F1804F17D060
:101F2000174B0868984213D0164B086898420FD098
:101F3000154B086898420BD0144B0868984207D09C
:101F4000134B0868984203D0124B086898420CD192
:101F50000868806800F00702062A0CD0086800684C
:101F600040F001000B68186005E00868006840F068
:101F700001000B6818600020C0E70000000001406D
:101F80000004004000080040000C00400004014034
:101F90000040014000180040704770B504462068BA
:101FA000C5682068066906F00200022819D105F00C
:101FB0000200022815D1401F216808610120207706
:101FC0002068806900F0030018B12046FFF7E4FFA5
:101FD00005E0204600F097F8204600F095F8002034
:101FE000207706F00400042819D105F00400042825
:101FF00015D1C043216808610220207720688069DC
:1020000000F4407018B12046FFF7C6FF05E02046F7
:1020100000F079F8204600F077F80020207706F0ED
:102020000800082819D105F00800082815D1C04378
:1020300021680861042020772068C06900F003004F
:1020400018B12046FFF7A8FF05E0204600F05BF836
:10205000204600F059F80020207706F010001028E4
:1020600019D105F01000102815D1C043216808616E
:10207000082020772068C06900F4407018B120461D
:10208000FFF78AFF05E0204600F03DF8204600F00B
:102090003BF80020207706F0010048B105F0010070
:1020A00030B16FF0010021680861204600F02EF881
:1020B00006F08000802809D105F08000802805D135
:1020C000C043216808612046FFF7DCFE06F04000AF
:1020D000402809D105F04000402805D1C0432168BF
:1020E0000861204600F01EF806F02000202809D1E3
:1020F00005F02000202805D1C04321680861204652
:10210000FFF7C1FE70BD70477047000010B5044670
:1021100003492068884201D1FFF71EF810BD000076
:102120000014004070470146486B7047F8B50446FC
:102130000D46164694F8420020282DD105B10EB95F
:102140000120F8BD0120206300206063324629464B
:10215000204601F0B7F90746206B012819D100BFCE
:10216000002000902068006800902068406800907F
:1021700000BF00BF00BF00BF21680C3151E8001F45
:1021800041F0100021680C3141E80002002AF3D12F
:1021900000E001273846D4E70220D2E72DE9F843D2
:1021A00006460F46002000901D493068884201D045
:1021B000BDE8F8833046FFF7B6FF0446012C00D196
:1021C000F6E734B9FF2F04D91648C068401C1549FA
:1021D000C860154890F80080144901EB08206A4651
:1021E000394602F06FFC1048007880F001000E497B
:1021F000087002F0E9FC054625B10A480069401C58
:102200000849086100BF009838B14FF08050084974
:102210000860BFF34F8FBFF36F8F00BF00BFC7E7EA
:1022200000100140D017002008000020D008002036
:1022300004ED00E070B50446002520684069C0F355
:10224000C01594F84100212817D1B5B100BF00BFD7
:102250002168143151E8001F21F0800021681431F9
:1022600041E80002002AF3D100BFA06B10B1A06BBF
:10227000FEF708FC204600F07DFF20684069C0F3AF
:10228000801594F84200222817D1B5B100BF00BFD5
:102290002168143151E8001F21F0400021681431F9
:1022A00041E80002002AF3D100BFE06B10B1E06BFF
:1022B000FEF7E8FB204600F017FF002070BD00008D
:1022C00010B504460B492068884200D010BD0A486A
:1022D0004069401C084948612046FFF7ABFF02F007
:1022E00073FC20B104480069401C0349086100BF29
:1022F000ECE7000000100140D01700202DE9F84F56
:102300000446206805682068C668206847694FF061
:102310000009CA4605F00F09B9F1000F0AD105F00E
:10232000200038B106F0200020B1204600F035FF33
:10233000BDE8F88FB9F1000F7CD007F0010018B9A3
:1023400006F49070002875D005F0010030B106F455
:10235000807018B1606C40F00100606405F004000A
:1023600030B107F0010018B1606C40F00200606409
:1023700005F0020030B107F0010018B1606C40F0C8
:102380000400606405F0080048B106F0200010B9B0
:1023900007F0010018B1606C40F008006064606CE8
:1023A000002846D005F0200028B106F0200010B12A
:1023B000204600F0F2FE20684069C0F3801A606C8D
:1023C00000F0080010B9BAF1000F2DD0204600F03F
:1023D0008BFE2068406900F04000402820D100BFFB
:1023E00000BF2168143151E8001F21F0400021682E
:1023F000143141E80002002AF3D100BFE06B50B174
:102400007F48E16B0865E06BFEF792FB88B1E06BFB
:10241000016D88470DE02046FFF752FF09E009E013
:102420002046FFF74DFF04E02046FFF749FF00205C
:1024300060647DE7206B012878D105F0100000284A
:1024400074D006F010000028FAD000BF00200090E1
:1024500020680068009020684068009000BF00BFBE
:102460002068406900F04000402870D1E06B0068AF
:1024700040681FFA80F8B8F1000F58D0A08D404591
:1024800055DDA4F82E80E06BC069B0F5807F43D0A5
:1024900000BF00BF21680C3151E8001F21F480709B
:1024A00021680C3141E80002002AF3D100BF00BFCF
:1024B00000BF2168143151E8001F21F0010021689C
:1024C000143141E80002002AF3D100BF00BF00BF71
:1024D0002168143151E8001F21F0400021681431B7
:1024E00041E80002002AF3D100BF202084F8420016
:1024F0000020206300BF00BF21680C3151E8001F9D
:1025000021F0100021680C3141E80002002AF3D1CB
:1025100000BFE06BFEF7B6FA02206063A08DE28D8B
:10252000801A81B22046FFF739FE0EE052E0A08DFE
:1025300040450AD1E06BC069B0F5807F05D102202B
:102540006063A18D2046FFF729FEF1E6FFE7A08D2D
:10255000E18D401A1FFA80F8E08DD0B3B8F1000F7A
:1025600037D000BF00BF21680C3151E8001F21F4B3
:10257000907021680C3141E80002002AF3D100BFBD
:1025800000BF00BF2168143151E8001F21F0010095
:102590002168143141E80002002AF3D100BF202055
:1025A00084F842000020206300BF00BF21680C3186
:1025B00051E8001F21F0100021680C3141E80002B1
:1025C000002AF3D100BF0220606341462046FFF796
:1025D000E5FDADE605F0800030B106F0800018B1F1
:1025E000204600F0DBFFA3E605F0400030B106F026
:1025F000400018B1204600F0ADFD99E600BF97E617
:10260000492F000810B504460CB9012010BDA0697F
:1026100000B100E000BF94F8410028B9002084F820
:102620004000204600F02AF8242084F84100206869
:10263000C06820F400502168C860204600F02CFEDD
:102640002068006920F49040216808612068406992
:1026500020F02A00216848612068C06840F40050DA
:102660002168C86000206064202084F8410084F85C
:1026700042000020606300BFC8E7000010B586B0CC
:1026800004464E492068884201D006B010BD00BF04
:10269000002000904A48006840F010004849086057
:1026A0000846006800F01000009000BF00BF00BFA7
:1026B0000020009042481438006840F00100404972
:1026C000143908600846006800F00100009000BF5F
:1026D00000BF00BF002000900846006840F4800062
:1026E00008600846006800F48000009000BF00BF4A
:1026F0004FF4C0600190022002900120039003205B
:1027000004900720059001A92E48FEF719FC2E48D9
:102710002E4908604FF00060486000212B4881601E
:10272000C1604FF480610161002141618161C1613B
:102730004FF40031016200214162FEF72DFB00BF22
:102740002248E063846300BF1F4878302049086056
:102750004FF00060486040211D4881600021C16049
:102760004FF480610161002141618161C1614FF4D9
:102770008031016200214162FEF70EFB00BF144868
:10278000A063846300BF002206212520FEF775FDAB
:102790002520FEF75EFD002206213A20FEF76DFDA2
:1027A0003A20FEF756FD002206214620FEF765FD81
:1027B0004620FEF74EFD00BF67E700000010014015
:1027C00044380240000002404064024010080020EB
:1027D00070080020704770472DE9F84F04460E46F8
:1027E000174699464FF0000A94F84100202850D12E
:1027F00006B117B90120BDE8F88F002060642120E0
:1028000084F84100FEF7A2FC8246A784E784A06812
:10281000B0F5805F04D1206910B90025B04602E010
:1028200035464FF000081EE0534600228021204626
:10283000CDF8009000F0E2FE20B1202084F84100A5
:102840000320D8E745B9B8F80000C0F308002168B4
:10285000486008F1020803E02878216848606D1C90
:10286000E08C401EE084E08C0028DDD1534600223D
:1028700040212046CDF8009000F0C0FE20B120207D
:1028800084F841000320B6E7202084F841000020AE
:10289000B1E70220AFE70000F7B50446154694F80B
:1028A000410020283ED1019800B10DB90120FEBDA4
:1028B00001982062A584E58400206064212084F8CA
:1028C00041001948A16BC8631848A16B08641848F7
:1028D000A16BC8640020A16B086501AE23681A1DB6
:1028E00031682B46A06BFEF7CDFA30B11020606442
:1028F000202084F841000120D9E76FF040002168D2
:10290000086000BF00BF2168143151E8001F41F08A
:1029100080002168143141E80002002AF3D100BF91
:102920000020C4E70220C2E783300008DB30000843
:102930005B2F000838B50446002000901749206836
:10294000884200D038BD16480088164909880844D6
:10295000C0F309001249088000201249088012497A
:1029600008701248C069401C1049C86110480068CE
:1029700020B169460E48006803F06EF802F058F97D
:1029800000BF009838B14FF080500A490860BFF38B
:102990004F8FBFF36F8F00BF00BFD3E70010014020
:1029A000120000201400002016000020D017002084
:1029B0001C00002004ED00E0704700BFFEE70000AF
:1029C00038B50446064800944088401E83B2044847
:1029D0000088401E82B20021084600F003F838BD8E
:1029E000360000202DE9F84F0746884614461D465C
:1029F000DDF828A0A74201DCA84501DDBDE8F88F7D
:102A000023480088A04203DC21480088401E84B28D
:102A10001F484088A84203DC1D484088401E85B2FC
:102A20002B4622464146384601F0E2FEE01B401CA0
:102A3000A5EB0801491C00FB01F64FF400794FEAB1
:102A40002A2040EA0A2080B20090002004E0114AC7
:102A5000009922F81010401C4845F8D301F01AFEE6
:102A600001F022FE0DE04E4501D9484600E0304617
:102A700083464FEA4B01074800F0AAFFA6EB0B067E
:102A800000BF002EEFD101F0FBFD00BFB6E7000054
:102A900036000020B418002010B500F097FE01F0B9
:102AA000DBFD01F091FE112001F0ECFEC820FEF7E5
:102AB00033FA002000F008F801F00AFE0020FFF7CA
:102AC0007FFF01F0D3FD10BD10B504461B48047113
:102AD000362001F0D7FE34B1012C0ED0022C16D0D6
:102AE000032C28D11DE0F020144908804FF4A07079
:102AF0004880002001F0D2FE1EE04FF4A0700F4984
:102B00000880F0204880C02001F0C8FE14E0F020CA
:102B10000A4908804FF4A0704880702001F0BEFE82
:102B20000AE04FF4A07005490880F0204880A020FA
:102B300001F0B4FE00E000BF00BF10BD3600002071
:102B400000BFFEE7704770B50546AC6B2068406873
:102B500020F0030021684860606D40F0100060655F
:102B6000012084F851002046FEF78AFF70BD70B541
:102B70000446A56B2846FFF784F970BDF8B50546F5
:102B8000AC6BFEF7E3FA06462868006800F4807034
:102B9000B0F5807F2DD02068406820F020002168AB
:102BA00048602068406820F0020021684860324692
:102BB0006421204600F022F818B1606D40F020003A
:102BC0006065A06850B900BF002000902068C06810
:102BD000009020688068009000BF00BF0020E08661
:102BE000012084F85100606D18B12046FEF748FFBF
:102BF000F8BD2046FFF744F900BFF9E77CB504466D
:102C00000E4615463346012202212046009500F06B
:102C100039F828B1606D40F02000606503207CBD6C
:102C2000164800681821B0FBF1F01549B0FBF1F02F
:102C30004FF47A71484301906068B0F5827F0DD1FE
:102C40003346002280212046009500F01BF898B101
:102C5000606D40F0200060650320E0E700BF019850
:102C600000B908E00198401E019020688068C0F318
:102C7000C0100028F3D100BF0020D0E700000020E2
:102C800040420F002DE9F84F04460D4690461E467F
:102C9000DDF82890FEF75AFAA0EB0900371AFEF784
:102CA00055FA82462C480068C0F3CB307843009038
:102CB00046E0701C002843D0FEF748FAA0EB0A005B
:102CC000B84200D2A7BB2068406820F0E00021682D
:102CD00048606068B0F5827F0DD1A068B0F5004F04
:102CE00003D0A068B0F5806F05D12068006820F09F
:102CF000400021680860A06AB0F5005F0DD100BFF8
:102D00002068006820F4005021680860206800688E
:102D100040F400502168086000BF012084F8510091
:102D200000BF002084F8500000BF0320BDE8F88FEA
:102D3000FFE7009808B9002702E00098401E0090C5
:102D4000206880682840A84201D1012000E00020CE
:102D50004045AED10020E9E70000002010B500BFDB
:102D6000502080F31188BFF34F8FBFF36F8F00BFE8
:102D700003F06EF918B14FF080500449086000BFAD
:102D8000002080F3118800BF10BD000004ED00E0BA
:102D900070B5274D2D6805F00C0222B1042A06D02B
:102DA000082A34D107E0234D234E356033E0234D0C
:102DB000214E35602FE01E4D2D1F2D68C5F3805428
:102DC0001B4D2D1F2D6805F03F0154B11B4DB5FB68
:102DD000F1F5174E361F3668C6F3881605FB06F068
:102DE00009E0144DB5FBF1F5114E361F3668C6F3F8
:102DF000881605FB06F00E4D2D1F2D68C5F3014505
:102E00006D1C6B00B0FBF3F50B4E356003E0094D14
:102E1000094E356000BF00BF054D2D68C5F3031591
:102E2000074E725D044D2D68D540034E356070BD70
:102E3000083802400024F4000000002000127A004C
:102E4000026700080348006840F470000149086008
:102E50007047000088ED00E010B50248FFF79DF8CC
:102E600010BD00008007002010B502682B4B98426F
:102E70000ED0B0F1804F0BD0294B984208D0294B8F
:102E8000984205D0284B984202D0284B984203D153
:102E900022F070024B681A43204B984220D0B0F1C8
:102EA000804F1DD01E4B98421AD01E4B984217D00F
:102EB0001D4B984214D01D4B984211D01C4B984288
:102EC0000ED01C4B98420BD01B4B984208D01B4B8A
:102ED000984205D01A4B984202D01A4B984203D11F
:102EE00022F44072CB681A4322F080034C6943EA13
:102EF00004028B68C3620B688362084B984202D05D
:102F00000A4B984201D10B690363036843F0040341
:102F1000036001234361026010BD00000000014016
:102F20000004004000080040000C00400004014084
:102F300000400140004401400048014000180040AA
:102F4000001C00400020004070B50446A56B002026
:102F5000E8852846FFF7B4F970BD70B50646002530
:102F6000B46B20684069C0F3C01594F84100212873
:102F700005D125B10020E084204600F0FBF8206850
:102F80004069C0F3801594F84200222805D125B18C
:102F90000020E085204600F0A7F8606C40F01000AB
:102FA00060642046FFF78CF970BD70B50546AC6BC8
:102FB0002868006800F48070002842D1E08500BFD6
:102FC00000BF21680C3151E8001F21F48070216896
:102FD0000C3141E80002002AF3D100BF00BF00BF5E
:102FE0002168143151E8001F21F0010021681431DB
:102FF00041E80002002AF3D100BF00BF00BF2168F2
:10300000143151E8001F21F040002168143141E8DB
:103010000002002AF3D100BF202084F84200206B78
:1030200001280ED100BF00BF21680C3151E8001FFC
:1030300021F0100021680C3141E80002002AF3D190
:1030400000BF00206063206B012804D1A18D2046C1
:10305000FFF7A4F802E02046FFF7BCFB70BD70B597
:103060000546AC6B01206063206B012805D1A08D63
:1030700041082046FFF792F802E02046FFF7ABFB3D
:1030800070BD70B50546AC6B2868006800F48070B0
:10309000F8B90020E08400BF00BF2168143151E876
:1030A000001F21F080002168143141E80002002A4D
:1030B000F3D100BF00BF00BF21680C3151E8001FF1
:1030C00041F0400021680C3141E80002002AF3D1B0
:1030D00002E02046FFF72EFC70BD70B50446A56BDC
:1030E0002846FFF769FC70BD00BF00BF02680C32C4
:1030F00052E8002F22F4907102680C3242E800136B
:10310000002BF3D100BF00BF00BF0268143252E8A9
:10311000002F22F001010268143242E80013002B54
:10312000F3D100BF016B01290ED100BF00BF0268BF
:103130000C3252E8002F22F0100102680C3242E8F3
:103140000013002BF3D100BF202180F84210002192
:103150000163704710B504462068C06820F0400045
:103160002168C860202084F841002046FFF7E2FB78
:10317000002010BD00BF00BF02680C3252E8002FD3
:1031800022F0C00102680C3242E80013002BF3D198
:1031900000BF202180F841107047F8B50446002593
:1031A000002694F84200222873D1A068B0F5805F11
:1031B0000BD1206948B9A66A20684068C0F30800AE
:1031C0003080A06A801CA06214E0A56AA068B0F5F7
:1031D000805F03D0A06828B9206918B920684068CA
:1031E000287004E02068406800F07F002870A06A22
:1031F000401CA062E08D401E80B2E085002846D1D0
:103200002068C06820F020002168C8602068C0687D
:1032100020F480702168C8602068406920F00100B7
:1032200021684861202084F8420000206063206B00
:10323000012826D10020206300BF00BF21680C3187
:1032400051E8001F21F0100021680C3141E8000214
:10325000002AF3D100BF2068006800F01000102899
:103260000AD100BF0020009020680068009020680C
:103270004068009000BF00BFA18D2046FEF78EFF82
:1032800002E02046FFF7A6FA0020F8BD01E000208A
:10329000FBE70220F9E700002DE9F84F044620681B
:1032A000006920F44050E168084321680861216901
:1032B000A068084361690843E169084300902068F9
:1032C000C06849F20C618843009908432168C860CE
:1032D0002068406920F44070A16908432168486172
:1032E00076492068884203D075492068884203D116
:1032F000FEF710F9814602E0FEF7FCF88146E0692E
:10330000B0F5004F6CD102206168A0FB015003466C
:103310001920A9FB007001462A463846FDF709F836
:103320006421B0FBF1F04FEA001A02206168A0FBB3
:1033300001510B461920A9FB00712A463846FCF7BB
:10334000F8FF834602206168A0FB01500346192064
:10335000A9FB00712A463846FCF7EBFF6421B0FB5D
:10336000F1F000EBC00101EB0010ABEB800032216B
:1033700001EBC0006421B0FBF1F000F0F8000AEBB3
:10338000400A02206168A0FB015003461920A9FBF6
:10339000007001462A463846FCF7CBFF83460220E0
:1033A0006168A0FB015003461920A9FB00712A4661
:1033B0003846FCF7BEFF6421B0FBF1F000EBC00122
:1033C00001EB0010ABEB8000322101EBC000642167
:1033D000B0FBF1F000F007005044216888606AE01B
:1033E00004206168A0FB015003461920A9FB00706E
:1033F00001462A463846FCF79CFF82460420616855
:10340000A0FB015003461920A9FB007001462A4683
:103410003846FCF78EFF6421B0FBF1F000EBC001F1
:1034200001EB0010AAEB8000322101EB00106421B7
:10343000B0FBF1F000F0F00A04206168A0FB01701D
:1034400003461920A9FB00513A462846FCF771FFB4
:103450006421B0FBF1F00AEB001A04206168A0FBC4
:1034600001510B461920A9FB00712A463846FCF78A
:1034700060FF834604206168A0FB015003461920C9
:10348000A9FB007001462A463846FCF752FF64212A
:10349000B0FBF1F000EBC00101EB0010ABEB8000E2
:1034A000322101EB00106421B0FBF1F000F00F00BD
:1034B000504421688860BDE8F88F0000001001408A
:1034C0000014014077B581B0044615460298A06209
:1034D000A58500206064222084F842002C48E16B1E
:1034E000C8632C48E16B08642B48E16BC86400207A
:1034F000E16B086502AE32682368191D2B46E06B4C
:10350000FDF7C0FC38B110206064202084F8420030
:10351000012004B070BD00BF00200090206800684A
:10352000009020684068009000BF00BF206970B123
:1035300000BF00BF21680C3151E8001F41F48070CA
:1035400021680C3141E80002002AF3D100BF00BF1E
:1035500000BF2168143151E8001F41F001002168CB
:10356000143141E80002002AF3D100BF00BF00BFC0
:103570002168143151E8001F41F0400021681431E6
:1035800041E80002002AF3D100BF0020C1E700009B
:10359000AB2F00085F3000085B2F0008014691F850
:1035A0004100212828D18868B0F5805F0BD10869D7
:1035B00048B90A6A1088C0F308000B685860086AA6
:1035C000801C086205E00B6A581C086218780B68BA
:1035D0005860C88C401E80B2C88458B90868C0685A
:1035E00020F080000B68D8600868C06840F0400098
:1035F0000B68D860002070470220FCE72DE9F843F3
:1036000004460D4617469846089E31E0701C70B37C
:10361000FDF79CFDA0EB0800B04200D816B90320CE
:10362000BDE8F8832068C06800F00400F8B1802D80
:103630001ED0402D1CD020680068C0F3C000B0B17F
:1036400000BF00200090206800680090206840685B
:10365000009000BF00BF2046FFF746FD08206064D1
:1036600000BF002084F8400000BF0120D8E7FFE73A
:10367000206800682840A84201D1012000E0002015
:10368000B842C3D00020CBE710B50248FEF736FEA3
:1036900010BD0000C807002000BFFEE70248006818
:1036A000C0F30220704700000CED00E010B50028C8
:1036B00004DB0A07130E054A135406E00A07140E2A
:1036C000034A00F00F031B1FD45410BD00E400E0B8
:1036D00018ED00E030380A2801D2012070470020A0
:1036E00070477047C0B01CE04FF47A724FF480719D
:1036F000684601F029FA044664B1214609A0FCF7A6
:103700008FFE64222146684601F0F0FA0BA0FCF718
:1037100087FE06E0FDF71AFD0546294608A0FCF7DE
:103720007FFEE1E75258206672616D6520256C7559
:103730002062797465733A20000000000D0A0000D1
:103740006865617274626561742C2048414C207414
:1037500069636B203D20256C750D0A000E480068DA
:1037600040F080700C49086000200C494860084611
:10377000006840F001000860094800680949B0FB92
:10378000F1F0094908600846006808B9012008609E
:103790000120064908707047FCED00E0001000E0D1
:1037A0000000002040420F002400002028000020DC
:1037B00038B504460D46E0B200904FF0FF320121CB
:1037C000684601F093FA204638BD000000B587B086
:1037D000142102A8FCF7D1FF00BF0020019073481C
:1037E000006840F00100714908600846006800F078
:1037F0000100019000BF00BF00BF002001900846FB
:10380000006840F0020008600846006800F002000E
:10381000019000BF00BF00BF002001900846006873
:1038200040F0080008600846006800F008000190B9
:1038300000BF00BF00BF002001900846006840F0B4
:10384000100008600846006800F01000019000BFFA
:1038500000BF012003900020049002200590400347
:10386000029002A95248FDF76BFB4FF48040029092
:1038700002A95048FDF764FB0220029002A94D48BE
:10388000FDF75EFB4FF48070029002A94A48FDF7F5
:1038900057FB00BF0020019044481430006840F4FA
:1038A00080504249143108600846006800F4805096
:1038B000019000BF00BF022003900020049003206D
:1038C0000590052006902020029002A93B48FDF7B4
:1038D00037FB2020029002A93748FDF731FB38481A
:1038E000384908604FF48270486000213548816093
:1038F000C160022101610121416149028161002110
:10390000C161016241628162FEF7BFF800BF002021
:1039100001902648006840F4800024490860084669
:10392000006800F48000019000BF00BF26482749CE
:1039300008604FF0C0604860402124488160002149
:10394000C1604FF480610161002141618161C16109
:1039500001624162FDF720FA00BF1C4819498864E2
:1039600008461A49886300BF002211463B20FDF734
:1039700084FC3B20FDF76DFC12480068006840F0B5
:103980004000104909680860012291030948FDF7C9
:10399000D1FB012291030648FDF7CCFB00224FF436
:1039A00080710548FDF7C6FB07B000BD3038024006
:1039B000000C0240001002400004024000000240DF
:1039C00000300140FC1700205864024054180020C9
:1039D00070B505460C461CE04FF6FC70844201D9D8
:1039E000064600E0A6B2324629460B48FEF7B8F973
:1039F00038B14FF47A73324629460748FEF7B5F8D6
:103A000005E000BF0448FEF73CF80128FAD1354430
:103A1000A41B002CE0D170BDFC17002001B50A23C7
:103A2000012269460148FEF7A0F808BDFC170020F6
:103A30001CB5FDF79DFB00F03DFF08B100BFFEE7A0
:103A4000FFF78CFE4FF4E13000F0B6FF08B100BF85
:103A5000FEE70DA0FCF7E4FCFFF71EF800200221B2
:103A600003464FF44072CDE900100DA10D4802F05D
:103A700041FA012804D00CA0FCF7D2FC00BFFEE7FD
:103A800001F050FC00BFFEE753595354454D2064EC
:103A90007269766572732072656164790D0A00003F
:103AA00061707000E5360008617070207461736B9E
:103AB00020637265617465206661696C65640D0AD6
:103AC000000000002DE9F04105460E462648076833
:103AD00026480068001D01F0A9F950B92348006884
:103AE00090F82C1001208840214909688143204822
:103AF0000160681CD8B9D6B11E4948681B490968DD
:103B000088601A4982680968CA6018490968091DED
:103B10008268516015490968091D8160154A134979
:103B200009684A6111460968491C11601AE07C194C
:103B30000E4800684460BC4207D20C480168091D69
:103B40000D48006801F0B4F90CE008480168091D4F
:103B50000A48006801F0ACF909480068844201D2C3
:103B600007480460BDE8F081500000203C000020C0
:103B700054000020082200204400002040000020C3
:103B80006C00002010B5044601F0ACF93148006823
:103B9000401C304908603048006840B92E48046035
:103BA0000846006801280DD100F030FA0AE02B48E1
:103BB000006838B928480068C06AE16A884201D8BC
:103BC0002548046026480068401C254908600846CE
:103BD0000068206494F82C1001208840214909686D
:103BE000084320490860E16A01EB81011E4A02EBAB
:103BF00081014868A0608268E260211D826851608E
:103C00008160E16A01EB8101174A02EB8102626186
:103C1000E16A01EB8101144A52F82110491CE26A61
:103C200002EB8202104B43F8221001F085F90B4899
:103C3000006868B108480068C06AE16A884207D233
:103C40004FF0805009490860BFF34F8FBFF36F8F6B
:103C500010BD00004C0000203C0000205800002057
:103C600068000020540000205421002004ED00E0F2
:103C700008B501F037F912480068E8B9114801F0B9
:103C800007F9114801F004F90E48104908600E4880
:103C90000F49086000200F4B0F4A0C2100900A20AA
:103CA00001F0B7FC064908600846006820B10BA186
:103CB0000348006801F0F4F901F03EF908BD000086
:103CC000840000201C220020302200207C000020E4
:103CD000800000204422002094220020546D725164
:103CE0000000000010B516E001F0FCF80C48C068B8
:103CF000C468201D01F09AF80A480068401E09496E
:103D0000086009480068401E0749086001F014F97E
:103D1000204600F05FF8044800680028E4D110BD98
:103D2000F42100204C0000204800002070B504461B
:103D30000D46206C70B1216CE0680144E160D4E96B
:103D40000210884201D32168E1602846226CE168B4
:103D5000FCF772FC70BD2DE9F04104460F46154694
:103D60004FF00008A66B206C48B9206800282CD1C1
:103D7000A06802F04BFA80460020A06025E07DB9E3
:103D80003946226C6068FCF757FC216C6068084477
:103D90006060D4E90101884217D32068606014E0B4
:103DA0003946226CE068FCF747FC216CE068411A58
:103DB000E1602168E068884203D2216CA068411A62
:103DC000E160022D01D106B1761E701CA063404651
:103DD000BDE8F08110B5044694F8550030B9206B69
:103DE00001F0C8F8204601F0C5F81AE094F8550033
:103DF000012803D1204601F0BDF812E094F85500E7
:103E0000022801D1012000E0002050B900BF50205D
:103E100080F31188BFF34F8FBFF36F8F00BF00BFD8
:103E2000FEE710BD01464A6A22B10A6B1268C2F170
:103E3000050000E0002070470146084A1268126839
:103E40000AB9012200E000220A600A6822B9034A86
:103E50001268D268106800E0002070477C000020E3
:103E600030B54FF49633154800F007042CB1C01D4F
:103E700020F00700114C041B1B1B0246104C226053
:103E800000240F4D6C60D018083820F007000D4C4E
:103E9000206000240B4D2D686C600A4D2D682C604D
:103EA0001146441A4C60074C24680C60064D4C685F
:103EB0002C60064D4C682C6030BD00000C230020A7
:103EC0009C000020A4000020AC000020A8000020DE
:103ED00000BFFFF707FF064800680128F9D94FF037
:103EE000805004490860BFF34F8FBFF36F8FF0E736
:103EF0005421002004ED00E010B5044654B1002028
:103F0000A06020600021E16000231A461946204687
:103F100001F03AFC10BD2DE9F04106460D4617466A
:103F20009846069C0DB9246000E02760E66325648E
:103F30000121204601F0BAFB84F84C80BDE8F081F5
:103F40002DE9F05F82460F4690469B460A9E0C9CE8
:103F50004FEA8801A522206BFCF7E5FBA8F10100E0
:103F6000216B01EB800929F0070909F0070008B966
:103F7000012000E0002050B900BF502080F31188DC
:103F8000BFF34F8FBFF36F8F00BF00BFFEE77FB15E
:103F9000002507E0795D04F134004155785D00B9F2
:103FA00002E06D1C0A2DF5D300BF00213D20015514
:103FB000052E01D2012000E0002050B900BF5020A2
:103FC00080F31188BFF34F8FBFF36F8F00BF00BF27
:103FD000FEE7052E00D30426E662A664201D00F04D
:103FE00064FF04F1180000F060FF2461C6F10500D1
:103FF000A06164625A465146484600F017FB2060B3
:104000000B9808B10B980460BDE8F09F10B5002430
:1040100007E004EB84010F4A02EB810000F038FF57
:10402000641C052CF5D30C4800F032FF0B4800F05F
:104030002FFF0B4800F02CFF0A4800F029FF0A4828
:1040400000F026FF04480949086004480849086050
:1040500010BD000054210020B8210020CC210020F8
:10406000E0210020F4210020082200204000002050
:104070004400002010B50146164800E000680368BF
:104080008B42FBD30246436813448B4204D14368FE
:104090004C682344436001460A464B681344046855
:1040A000A34211D10C4C03682468A34208D04B688A
:1040B0000468646823444B6003681B680B6005E078
:1040C000054B1B680B6001E003680B60884200D061
:1040D000016010BD9C000020A40000202DE9F041EB
:1040E00004460D4616461F464FF0000865602461E1
:1040F000B5420CD8F01BA169884202D34FF00108E9
:1041000011E0211D0948006800F0D2FE0BE0BE421C
:1041100004D2BD4202D34FF0010804E0211D04483F
:10412000006800F0C5FE4046BDE8F0818000002038
:104130007C00002070B5054600F0D4FEA86B08B9DD
:10414000012400E0002400F0F7FE204670BD70B5A9
:10415000054600F0C7FEA86BE96B884201D1012437
:1041600000E0002400F0E8FE204670BD70B5054672
:104170000E460E480068C068C468201D00F056FE58
:1041800094F8280000F0040028B132462946204661
:1041900000F0D6F805E094F8280000F0FE0084F85E
:1041A00028002046216A884770BD00007C0000205E
:1041B0007FB57FE0019800287CDB039C606908B92B
:1041C000012000E0002010B9201D00F02FFE6846FD
:1041D00000F0E2F8054601980A2869D2DFE800F00D
:1041E0006805072E365806082F3700BF00BF00BFEE
:1041F00094F8280040F0010084F828000298A26991
:10420000811803462A462046FFF768FFA8B194F8B4
:10421000280000F0040038B10298A26981182A46EB
:10422000204600F08DF805E094F8280000F0FE002C
:1042300084F828002046216A88473AE000BF94F8B5
:10424000280000F0FE0084F8280032E000BF94F857
:10425000280040F0010084F828000298A061A069BD
:1042600008B1012000E0002050B900BF502080F3C9
:104270001188BFF34F8FBFF36F8F00BF00BFFEE702
:10428000A06941192B462A462046FFF727FF10E078
:1042900094F8280000F0020018B9204600F06AFEE9
:1042A00005E094F8280000F0FE0084F8280000E003
:1042B00000BF00BF002201A90348006801F054FCC0
:1042C00000287FF477AF7FBD84000020F8B5054655
:1042D0000C4601F087F8684600F05EF80646009844
:1042E00020BB44B9B54206D802F00EF93146284643
:1042F000FFF73CFF1CE03CB10E480068006808B9BD
:10430000012000E000200446A91B22460A4800685C
:1043100000F0F6FE02F0F8F850B94FF0805007496F
:104320000860BFF34F8FBFF36F8F01E002F0ECF82E
:10433000F8BD0000800000208400002004ED00E0B3
:1043400070B504460D46164604E0A06905442046B3
:10435000216A8847A06941192B4632462046FFF75B
:10436000BDFE0028F1D170BD09480068006808B999
:10437000012000E0002020B14FF0FF300549086027
:1043800005E003480068C06800680249086070479B
:10439000400000206C00002070B5044601F052FE81
:1043A000054607480068854204D200F00BF801205A
:1043B000206001E00020206001480560284670BDB3
:1043C0008C00002070B508E00D480068C0680468E3
:1043D0004FF0FF312046FFF7C9FE0948006800682A
:1043E00008B9012000E000200028EDD0044805684D
:1043F00004480068024908600248056070BD00007A
:104400007C000020800000200E480068401C08B995
:10441000012000E0002050B900BF502080F3118837
:10442000BFF34F8FBFF36F8F00BF00BFFEE700BF2A
:10443000502080F31188BFF34F8FBFF36F8F00BF01
:1044400000BFFEE79000002008B500BF6846FFF7F8
:10445000F3FC044620460099FFF738FFFFF7A8FE5B
:10446000F4E770B5044600F03DFD94F9455010E0C6
:10447000606A08B9012000E0002038B904F1240086
:1044800001F0B2FF18B100F06DFE00E003E0681E1D
:1044900045B2002DECDC00BFFF2084F8450000F0A1
:1044A0004BFD00F01FFD94F9445010E0206908B95D
:1044B000012000E0002048B904F1100001F094FF51
:1044C00008B100F04FFE681E45B200E001E0002D8B
:1044D000ECDC00BFFF2084F8440000F02DFD70BD2F
:1044E0002DE9F04705464FF0000900F07BFF4248F8
:1044F000006808B9FFF7B4FC75B105F00700C0F11A
:104500001008C8F1FF30A84201D2012000E00020CD
:1045100008B9454400E00025012000EBE5700028C3
:1045200053D0002D51D03548006885424DD8344EC7
:104530003046046801E0264624686068A84202D23A
:1045400020680028F7D12C48006884423DD03068AC
:1045500000F10809206830606068401B102819D9F4
:10456000671907F0070008B9012000E0002050B9E2
:1045700000BF502080F31188BFF34F8FBFF36F8FC0
:1045800000BF00BFFEE76068401B7860656038468A
:10459000FFF770FD194960680968081A1749086033
:1045A0000846006817490968884203D21348006822
:1045B00014490860606840F000406060002020609E
:1045C00011480068401C1049086001F09DFF09F087
:1045D000070008B9012000E0002050B900BF5020BA
:1045E00080F31188BFF34F8FBFF36F8F00BF00BF01
:1045F000FEE74846BDE8F087A4000020A8000020A0
:104600009C000020AC000020B0000020064800689C
:1046100030B10549096801F14C00C96C491C0160C1
:1046200001480068704700003C000020001F4FF068
:1046300080730360001F21F001030360001F054B1E
:10464000036014380260001F6FF00203036020381B
:10465000704700000944000810B501221102024809
:10466000FCF768FD10BD00000004024010B50022F8
:104670004FF480710148FCF75DFD10BD000402405D
:1046800010B5012291030248FCF754FD10BD000053
:104690000010024010B500224FF480410148FCF7A1
:1046A00049FD10BD0010024010B5012291030248DF
:1046B000FCF740FD10BD0000000C024010B50022C8
:1046C0004FF480410148FCF735FD10BD000C02405D
:1046D0001FB53A2000F0D6F8052000F0DFF8B22030
:1046E00000F0D0F82DA103C9CDE90201052102A8EF
:1046F00000F0B7F8B72000F0C5F8352000F0CEF88C
:10470000BB2000F0BFF8322000F0C8F8C22000F053
:10471000B9F8012000F0C2F8C32000F0B3F815206A
:1047200000F0BCF8C42000F0ADF8202000F0B6F88E
:10473000C62000F0A7F80F2000F0B0F8D02000F05D
:10474000A1F818A000680390022103A800F089F8DE
:10475000E02000F097F814A090E80E00C0688DE803
:104760000E0003900E21684600F07BF8E12000F077
:1047700089F811A3D3E90021D3E90203CDE90203AB
:10478000CDE900210E21684600F06BF8212000F0F1
:1047900079F8292000F076F81FBD00000C0C0033DA
:1047A00033000000A4A10000D0080E090905313330
:1047B0004817141531340000D0080E09091531339B
:1047C000481714153134000010B5002202210748A3
:1047D000FCF7B0FC3220FCF79FFB012202210348CA
:1047E000FCF7A8FC7820FCF797FB10BD00100240F6
:1047F0002DE9F05F04460D4616461F461FFA84F861
:104800001FFA86F91FFA85FA1FFA87FB2A2000F0A3
:1048100039F84FEA282000F041F808F0FF0000F0D6
:104820003DF84FEA292000F039F809F0FF0000F0C8
:1048300035F82B2000F026F84FEA2A2000F02EF859
:104840000AF0FF0000F02AF84FEA2B2000F026F8CB
:104850000BF0FF0000F022F82C2000F013F8BDE868
:10486000F09F70B505460C4604B970BDFFF712FF06
:10487000FFF71AFF21462846FFF7AAF8FFF700FFC7
:1048800000BFF2E710B50446FFF704FFFFF716FF7D
:104890002046FFF7C3F8FFF7F3FE10BD10B504463E
:1048A000FFF7F8FEFFF700FF2046FFF7B7F8FFF726
:1048B000E7FE10BD10B592B0302106A8FBF75DFFF2
:1048C000142101A8FBF759FF00BF002000902D48DC
:1048D000006840F080502B4908600846006800F0EE
:1048E0008050009000BF00BF00BF0020009026480D
:1048F000006840F48040244908600846006800F4DD
:104900008040009000BF00BF012006900004079087
:1049100002200C9041050D9108210E914FF4A871D1
:104920000F91022110910721119106A8FCF75AFE60
:10493000044614B1204612B010BD0F200190022091
:104940000290002003904FF4A05004904FF4805048
:104950000590052101A8FCF7E3FC04460CB12046B4
:10496000E9E7FEF715FAFCF7EBFB41F2010188429B
:1049700005D10648006840F48070044908600020B2
:10498000D9E700004038024000700040003C02407F
:1049900000BF80F3108800BF704700BFEFF31081A5
:1049A000084672B6704700BFEFF3058008B10120DA
:1049B00070470020FCE7000038B505463148006824
:1049C00050B90020304B314A4FF4817100900820DB
:1049D00000F01FFE2B4908602D48006828B92D49BA
:1049E000012000F001FE2A4908602B48006848B900
:1049F00003202A4B002211460090012000F009FEFE
:104A0000254908601F48006828B12148006810B196
:104A10002148006808B9012038BD002020490880DD
:104A200020490880204908802049087020490870E2
:104A30002C212048FBF7A1FE1F48204908600846AA
:104A4000456000218160C160016181610C2141618B
:104A50000021C161FDF7D6FD04460CB12046DBE71D
:104A600001201749087000F0AFF804463CB1114826
:104A70000069401C0F490861002011490870204658
:104A8000CAE700000C000020D00A0020200B002004
:104A900018000020301700201C0000208017002084
:104AA000100000201200002014000020160000203A
:104AB00008000020D017002000100140C807002087
:104AC0002000002070B5C2B005460C46164614B151
:104AD0001B48006808B942B070BDB4F5807F09D9A1
:104AE0004FF48070ADF804001648C068401C1549AA
:104AF000C86001E0ADF80440BDF8042029460DF17E
:104B00000600FBF799FD0023324601A90C48006816
:104B100000F00EFF012805D00A488068401C0949B2
:104B20008860D8E707480068401C064908600846C6
:104B30004068BDF8041008440249486000BFCAE755
:104B40000C000020D0170020F0B5C1B006460C467E
:104B500017461EB114B10E48006810B9002041B0CC
:104B6000F0BD3A4669460A48006800F0FDFF01289A
:104B700001D00020F3E7BDF80050A54200D925463A
:104B80002A460DF102013046FBF756FD2846E6E7BE
:104B90000C00002070B506460C46601C10B94FF0A2
:104BA000FF3070BD01F04EFA851BA54201D30020F5
:104BB000F7E7601BF5E710B501F034FA022801D1E0
:104BC000012010BD0020FCE710B50D480D4A1278F9
:104BD00000EB02214FF480720B48FDF7A7FA044660
:104BE00064B90948C06B48B10748C06B00680068E9
:104BF00020F008000449C96B09680860204610BD10
:104C0000D008002008000020C807002010B500F0E0
:104C10005BF840F2FF31081A80B210BD10B5FFF703
:104C2000BCFE044600F004F82046FFF7B1FE10BDBC
:104C300070B51D48007840B91C4800881C49098897
:104C4000884202D01B48007800B970BD1748008820
:104C500017490988884206DD1448008814490988E4
:104C6000401A84B204E012480088C0F5806084B223
:104C700001200D4908701048048010480C4A128821
:104C8000811822460E48FDF707FE05464DB100206B
:104C900005490870084908800A48006A401C09490B
:104CA000086200BFD1E700001600002010000020BD
:104CB00012000020200000201400002030130020EB
:104CC000C8070020D017002006480288064801883F
:104CD0008A4202DB501A80B27047C1F580601044EE
:104CE00080B2F9E710000020120000202DE9F05FEB
:104CF00007460D469246B8460024B8F1000F03D08F
:104D000015B14348007810B90020BDE8F09FFFF7C7
:104D10004AFE30B13F48806A401C3E49886200200C
:104D2000F3E7FFF748FFD8B915E0281BB0F5803F3F
:104D300002D34FF6FF7000E0281B1FFA80F908EB42
:104D400004014FF0FF334A463348FDF745FD00B1FB
:104D500003E04C4400BFAC42E7D300BF2046D4E799
:104D600001F070F9834651462C48006800F0B0FF0E
:104D7000012806D02748806A401C26498862002006
:104D8000C3E739E0FFF742FFA8B118F8040024494F
:104D9000244A1288885423480088401CC0F3090024
:104DA00020490880641C1B488069401C194988619F
:104DB000FFF734FF20E0FFF731FF1648406A401C40
:104DC0001449486251465846FFF7E4FE06462EB99C
:104DD0001048806A401C0F4988620FE03146124833
:104DE000006800F075FF012805D00A48806A401C61
:104DF0000849886202E000BFAC42C3D300BF002371
:104E00001A4619460548006800F0BEFC20467CE7BB
:104E100020000020D0170020C80700201800002024
:104E200030130020100000201C00002001460A69F9
:104E3000D1E901309860D1E9010358605068884297
:104E400001D188685060002008611068401E106021
:104E50001068704701480068704700004C0000204F
:104E6000034B0360034B0B60822313607047000009
:104E7000B800002010010020034B0360034B0B60BF
:104E80004FF48273136070471803002070030020F2
:104E900000F1080141604FF0FF31816000F108012D
:104EA000C16001610021016070470021016170470C
:104EB00010B502460B685C1C0CB9106907E002F1E2
:104EC000080000E04068446824689C42FAD94468BD
:104ED0004C604C68A160886041600A611468641C81
:104EE000146010BD00BF502080F31188BFF34F8FB6
:104EF000BFF36F8F00BF0E480068401C0C4908606C
:104F000008460068012812D10A480068C0B208B9F2
:104F1000012000E0002050B900BF502080F311882C
:104F2000BFF34F8FBFF36F8F00BF00BFFEE7704727
:104F30009000002004ED00E00D48006850B900BF6B
:104F4000502080F31188BFF34F8FBFF36F8F00BFE6
:104F500000BFFEE706480068401E05490860084695
:104F6000006820B9002080F3118800BF00BF70479F
:104F70009000002070B506463546002E3BD0083D17
:104F80002C466068C00F50B900BF502080F31188D4
:104F9000BFF34F8FBFF36F8F00BF00BFFEE72068E6
:104FA00008B9012000E0002050B900BF502080F374
:104FB0001188BFF34F8FBFF36F8F00BF00BFFEE7B5
:104FC0006068C00FB8B12068A8B9606820F00040E0
:104FD000606000F007FA08496068096808440649FB
:104FE00008602046FFF746F804480068401C034963
:104FF000086001F089FA70BDA8000020B40000200C
:1050000000204FF0E02108618861064800684FF4F5
:105010007A71B0FBF1F0401E4FF0E02148610720AB
:10502000086170470000002070B5FBF75DF9044689
:10503000102C16D304F1E02090F8F05315480078B6
:10504000854201DB012000E0002050B900BF502064
:1050500080F31188BFF34F8FBFF36F8F00BF00BF86
:10506000FEE70D48006800F4E0600C4909688842DA
:1050700001D8012000E0002050B900BF502080F38B
:105080001188BFF34F8FBFF36F8F00BF00BFFEE7E4
:1050900070BD0000940000200CED00E0980000209E
:1050A00030B502460B46002152B900BF502484F3AC
:1050B0001188BFF34F8FBFF36F8F00BF00BFFEE7B4
:1050C000BBB1002012E00D4C04EBC00464689442B4
:1050D00003D10A4C04EBC0010AE031B9074C54F883
:1050E000304014B9054C04EBC001401C0828EAD339
:1050F00000BF09B10B604A6030BD000014210020E0
:105100002DE9F04105460E4617462C46FFF7EAFE0C
:1051100094F94400401C10B9002084F8440094F92C
:105120004500401C10B9002084F84500FFF704FF3B
:10513000A06B28B93A46314604F1240000F034F857
:105140002046FFF78EF9BDE8F081000003490968A9
:105150000160034909684160704700006400002055
:1051600050000020012001490860704760000020C5
:1051700070B504460D4654B900BF502080F3118825
:10518000BFF34F8FBFF36F8F00BF00BFFEE705482F
:10519000016818312046FFF78BFE01212846FEF7F3
:1051A00091FC70BD3C00002070B504460E461546CB
:1051B00054B900BF502080F31188BFF34F8FBFF365
:1051C0006F8F00BF00BFFEE760680F490968C861C4
:1051D0000D49826809680A620B49096818318268BA
:1051E00051600949096818318160074909688C6272
:1051F0002168491C21600DB14FF0FF362946304629
:10520000FEF760FC70BD00003C0000202DE9F04777
:1052100006460F4634464FF00109002E7AD0E06C66
:1052200050B900BF502080F31188BFF34F8FBFF3F8
:105230006F8F00BF00BFFEE7A06CB84201D23D46B1
:1052400000E0A56CE06AA84264D0E06C012861D15E
:1052500031480068844201D0012000E0002050B9AC
:1052600000BF502080F31188BFF34F8FBFF36F8FC3
:1052700000BF00BFFEE7D4F82C80E562A06900F013
:10528000004010B9C5F10500A06108EB8801234A70
:1052900002EB81016069884201D1012000E0002019
:1052A000C0B3201DFFF7C2FD40B994F82C100120B7
:1052B00088401B49096881431948016094F82C1003
:1052C0000120884016490968084315490860E16AC9
:1052D00001EB8101114A02EB81014868A0608268FC
:1052E000E260211D826851608160E16A01EB810109
:1052F0000A4A02EB81026261E16A01EB8101074A1D
:1053000052F82110491CE26A02EB8202034B43F877
:10531000221000BFBDE8F0873C000020542100208F
:105320005400002010B586B000200590049003AA18
:1053300004A905A8FFF794FD0022DDE90410134637
:10534000CDE9002102901FA12048039A00F008FE39
:105350001F4908600846006808B1012400E00024E5
:10536000012C02D101F08CF90446012C15D100BFAB
:10537000502080F31188BFF34F8FBFF36F8F00BFB2
:105380004FF0FF30134908600120134908600020E6
:105390001249086000F074F810E0601C08B10120A8
:1053A00000E0002050B900BF502080F31188BFF307
:1053B0004F8FBFF36F8F00BF00BFFEE70848006844
:1053C00006B010BD49444C4500000000D13E000825
:1053D000700000206C0000205800002050000020C9
:1053E0007400002002480068401C014908607047B2
:1053F000780000201D48006818B101201C49086091
:1054000032E000201A4908601A480068B0FA80F0BB
:10541000C0F11F0101EB8100174A52F8200008B1CA
:10542000012000E0002050B900BF502080F3118817
:10543000BFF34F8FBFF36F8F00BF00BFFEE701EBDD
:1054400081020D4B03EB820042685268426000F11A
:1054500008024368934202D142685268426042683F
:10546000D268064B1A6000BF704700007800002029
:105470006000002054000020542100203C00002047
:105480001CB5524800685249884201D0012000E012
:10549000002050B900BF502080F31188BFF34F8F18
:1054A000BFF36F8F00BF00BFFEE748480068484960
:1054B000491E884201D0012000E0002050B900BF01
:1054C000502080F31188BFF34F8FBFF36F8F00BF61
:1054D00000BFFEE73F49084600780190FF200A46DA
:1054E00010700846007800909DF8000000F0F00071
:1054F0009DF80020904201D1012000E0002050B929
:1055000000BF502080F31188BFF34F8FBFF36F8F20
:1055100000BF00BFFEE79DF8000000F050002E4ADB
:10552000107007202D4A106009E02C480068401ECA
:105530002A4A10609DF800004006000E00909DF879
:10554000000000F080008028EFD024480068C0F1FF
:105550000700042801D1012000E0002050B900BF5D
:10556000502080F31188BFF34F8FBFF36F8F00BFC0
:1055700000BFFEE7194800680002184A1060104694
:10558000008800F4E0601060124A019810700F4823
:105590002030006840F470000C4920310860084653
:1055A000006840F070400860FFF72AFD00200C49B9
:1055B0000860FAF761FE0B48006840F04040094976
:1055C0000860FAF745FE00201CBD000000ED00E079
:1055D00071C20F4100E400E0940000209800002018
:1055E0009000002034EF00E02DE9F84304460D461A
:1055F00001274FF000082B4600221146012000949D
:1056000000F007F806463046FEF776FC3046BDE867
:10561000F8832DE9F84380460E4617461C46DDF810
:105620002090002554B900BF502080F31188BFF3AB
:105630004F8FBFF36F8F00BF00BFFEE7B8F1000FC1
:1056400025D024B307B116B307B906BB502000908C
:105650000098502801D1012000E0002050B900BF7F
:10566000502080F31188BFF34F8FBFF36F8F00BFBF
:1056700000BFFEE700BF2546012085F846004B46E7
:105680003A46314640460095FEF745FC0BE055B9D9
:1056900000BF502080F31188BFF34F8FBFF36F8F8F
:1056A00000BF00BFFEE72846BDE8F8832DE9F041C2
:1056B00005460E4601272C4654B900BF502080F302
:1056C0001188BFF34F8FBFF36F8F00BF00BFFEE79E
:1056D000002C42D0E06B00283FD04FF0FF31E06B50
:1056E000B1FBF0F0216C884237D3FFF7FBFBD4E924
:1056F0000F12206801FB0200A0600020A063206858
:105700006060E06B401E226C216800FB0211E160CA
:10571000FF2084F8440084F845009EB9206908B948
:10572000012000E00020A8B904F1100000F05CFEA8
:1057300080B14FF0805013490860BFF34F8FBFF323
:105740006F8F07E004F11000FFF7A2FB04F12400C3
:10575000FFF79EFBFFF7F0FB00E000270FB10120F1
:1057600000E0002050B900BF502080F31188BFF343
:105770004F8FBFF36F8F00BF00BFFEE73846BDE815
:10578000F081000004ED00E02DE9FF4383B0064600
:1057900088461D464FF00009344654B900BF5020DA
:1057A00080F31188BFF34F8FBFF36F8F00BF00BF2F
:1057B000FEE7B8F1000F01D1206C08B9012000E02C
:1057C000002050B900BF502080F31188BFF34F8FE5
:1057D000BFF36F8F00BF00BFFEE7022D02D1E06B69
:1057E000012801D1012000E0002050B900BF502065
:1057F00080F31188BFF34F8FBFF36F8F00BF00BFDF
:10580000FEE700F00FFC08B9059808B9012000E098
:10581000002050B900BF502080F31188BFF34F8F94
:10582000BFF36F8F00BF00BFFEE700BFFFF75AFB5B
:10583000A06BE16B884201D3022D28D12A46414654
:105840002046FEF788FA0746606A08B9012000E0A2
:10585000002068B904F1240000F0C6FD88B14FF0C3
:10586000805032490860BFF34F8FBFF36F8F08E05D
:105870003FB14FF080502D490860BFF34F8FBFF309
:105880006F8FFFF759FB012007B0BDE8F083059843
:1058900018B9FFF751FB0020F6E7B9F1000F04D16A
:1058A00001A8FFF753FC4FF00109FFF745FBFFF795
:1058B00099FDFFF717FB94F94400401C10B9002034
:1058C00084F8440094F94500401C10B9002084F885
:1058D0004500FFF731FB05A901A800F0C3FAF0B9B4
:1058E0002046FEF734FCA0B104F110000599FFF743
:1058F0003FFC2046FEF7B5FD00F006FE002895D1DE
:105900004FF0805009490860BFF34F8FBFF36F8F8E
:105910008CE72046FEF7A5FD00F0F6FD86E7204661
:10592000FEF79FFD00F0F0FD0020ADE704ED00E084
:105930002DE9FC5F80468B4691461E46444654B98D
:1059400000BF502080F31188BFF34F8FBFF36F8FDC
:1059500000BF00BFFEE7BBF1000F01D1206C08B90A
:10596000012000E0002050B900BF502080F31188D2
:10597000BFF34F8FBFF36F8F00BF00BFFEE7022E54
:1059800002D1E06B012801D1012000E0002050B9D4
:1059900000BF502080F31188BFF34F8FBFF36F8F8C
:1059A00000BF00BFFEE7FFF73FFB00BF5021EFF352
:1059B000118081F31188BFF34F8FBFF36F8F00BF4A
:1059C0000546A06BE16B884201D3022E3BD194F9CE
:1059D0004570A06B0190324659462046FEF7BBF950
:1059E000781C88B9606A08B9012000E0002050B92D
:1059F00004F1240000F0F8FC28B1B9F1000F02D046
:105A00000120C9F800001BE0FFF724FA009000987D
:105A1000874214D27F2F01D0012000E0002050B92E
:105A200000BF502080F31188BFF34F8FBFF36F8FFB
:105A300000BF00BFFEE7781C40B284F8450000BFFD
:105A40004FF0010A01E04FF0000A00BF85F3118812
:105A500000BF5046BDE8FC9F2DE9F05F0746884631
:105A60003C4654B900BF502080F31188BFF34F8FDC
:105A7000BFF36F8F00BF00BFFEE7206C08B90120A5
:105A800000E0002050B900BF502080F31188BFF320
:105A90004F8FBFF36F8F00BF00BFFEE7206808B9CC
:105AA000A06808B9012000E0002050B900BF5020D4
:105AB00080F31188BFF34F8FBFF36F8F00BF00BF1C
:105AC000FEE7FFF7B1FA00BF5021EFF3118081F339
:105AD0001188BFF34F8FBFF36F8F00BF0546D4F817
